{
  "contractName": "CustomerRole",
  "abi": [
    {
      "inputs": [],
      "stateMutability": "nonpayable",
      "type": "constructor"
    },
    {
      "anonymous": false,
      "inputs": [
        {
          "indexed": true,
          "internalType": "bytes32",
          "name": "role",
          "type": "bytes32"
        },
        {
          "indexed": true,
          "internalType": "bytes32",
          "name": "previousAdminRole",
          "type": "bytes32"
        },
        {
          "indexed": true,
          "internalType": "bytes32",
          "name": "newAdminRole",
          "type": "bytes32"
        }
      ],
      "name": "RoleAdminChanged",
      "type": "event"
    },
    {
      "anonymous": false,
      "inputs": [
        {
          "indexed": true,
          "internalType": "bytes32",
          "name": "role",
          "type": "bytes32"
        },
        {
          "indexed": true,
          "internalType": "address",
          "name": "account",
          "type": "address"
        },
        {
          "indexed": true,
          "internalType": "address",
          "name": "sender",
          "type": "address"
        }
      ],
      "name": "RoleGranted",
      "type": "event"
    },
    {
      "anonymous": false,
      "inputs": [
        {
          "indexed": true,
          "internalType": "bytes32",
          "name": "role",
          "type": "bytes32"
        },
        {
          "indexed": true,
          "internalType": "address",
          "name": "account",
          "type": "address"
        },
        {
          "indexed": true,
          "internalType": "address",
          "name": "sender",
          "type": "address"
        }
      ],
      "name": "RoleRevoked",
      "type": "event"
    },
    {
      "inputs": [],
      "name": "CUSTOMER_ROLE",
      "outputs": [
        {
          "internalType": "bytes32",
          "name": "",
          "type": "bytes32"
        }
      ],
      "stateMutability": "view",
      "type": "function",
      "constant": true
    },
    {
      "inputs": [],
      "name": "DEFAULT_ADMIN_ROLE",
      "outputs": [
        {
          "internalType": "bytes32",
          "name": "",
          "type": "bytes32"
        }
      ],
      "stateMutability": "view",
      "type": "function",
      "constant": true
    },
    {
      "inputs": [
        {
          "internalType": "bytes32",
          "name": "role",
          "type": "bytes32"
        }
      ],
      "name": "getRoleAdmin",
      "outputs": [
        {
          "internalType": "bytes32",
          "name": "",
          "type": "bytes32"
        }
      ],
      "stateMutability": "view",
      "type": "function",
      "constant": true
    },
    {
      "inputs": [
        {
          "internalType": "bytes32",
          "name": "role",
          "type": "bytes32"
        },
        {
          "internalType": "address",
          "name": "account",
          "type": "address"
        }
      ],
      "name": "grantRole",
      "outputs": [],
      "stateMutability": "nonpayable",
      "type": "function"
    },
    {
      "inputs": [
        {
          "internalType": "bytes32",
          "name": "role",
          "type": "bytes32"
        },
        {
          "internalType": "address",
          "name": "account",
          "type": "address"
        }
      ],
      "name": "hasRole",
      "outputs": [
        {
          "internalType": "bool",
          "name": "",
          "type": "bool"
        }
      ],
      "stateMutability": "view",
      "type": "function",
      "constant": true
    },
    {
      "inputs": [
        {
          "internalType": "bytes32",
          "name": "role",
          "type": "bytes32"
        },
        {
          "internalType": "address",
          "name": "account",
          "type": "address"
        }
      ],
      "name": "renounceRole",
      "outputs": [],
      "stateMutability": "nonpayable",
      "type": "function"
    },
    {
      "inputs": [
        {
          "internalType": "bytes32",
          "name": "role",
          "type": "bytes32"
        },
        {
          "internalType": "address",
          "name": "account",
          "type": "address"
        }
      ],
      "name": "revokeRole",
      "outputs": [],
      "stateMutability": "nonpayable",
      "type": "function"
    },
    {
      "inputs": [
        {
          "internalType": "bytes4",
          "name": "interfaceId",
          "type": "bytes4"
        }
      ],
      "name": "supportsInterface",
      "outputs": [
        {
          "internalType": "bool",
          "name": "",
          "type": "bool"
        }
      ],
      "stateMutability": "view",
      "type": "function",
      "constant": true
    },
    {
      "inputs": [
        {
          "internalType": "address",
          "name": "account",
          "type": "address"
        }
      ],
      "name": "isCustomer",
      "outputs": [
        {
          "internalType": "bool",
          "name": "",
          "type": "bool"
        }
      ],
      "stateMutability": "view",
      "type": "function",
      "constant": true
    },
    {
      "inputs": [
        {
          "internalType": "address",
          "name": "account",
          "type": "address"
        }
      ],
      "name": "addCustomer",
      "outputs": [],
      "stateMutability": "nonpayable",
      "type": "function"
    },
    {
      "inputs": [],
      "name": "renounceCustomer",
      "outputs": [],
      "stateMutability": "nonpayable",
      "type": "function"
    }
  ],
  "bytecode": "0x60806040523480156200001157600080fd5b506200001f60003362000030565b6200002a33620000b9565b620004da565b6200003c8282620000e8565b620000b5576000828152602081815260408083206001600160a01b03851684529091529020805460ff19166001179055620000743390565b6001600160a01b0316816001600160a01b0316837f2f8788117e7eff1d82e926ec794901d17c78024a50270940304540a733656f0d60405160405180910390a45b5050565b620000e57f288a15c4a15d470e4cd9cad2f113b91206b520c26dbd3dd74627f0c057baa19c8262000113565b50565b6000828152602081815260408083206001600160a01b038516845290915290205460ff165b92915050565b60008281526020819052604090206001015462000131813362000142565b6200013d838362000030565b505050565b6200014e8282620000e8565b620000b557620001696001600160a01b0382166014620001ba565b62000176836020620001ba565b60405160200162000189929190620003a0565b60408051601f198184030181529082905262461bcd60e51b8252620001b19160040162000419565b60405180910390fd5b60606000620001cb83600262000464565b620001d89060026200047e565b6001600160401b03811115620001f257620001f262000494565b6040519080825280601f01601f1916602001820160405280156200021d576020820181803683370190505b509050600360fc1b816000815181106200023b576200023b620004aa565b60200101906001600160f81b031916908160001a905350600f60fb1b816001815181106200026d576200026d620004aa565b60200101906001600160f81b031916908160001a90535060006200029384600262000464565b620002a09060016200047e565b90505b600181111562000322576f181899199a1a9b1b9c1cb0b131b232b360811b85600f1660108110620002d857620002d8620004aa565b1a60f81b828281518110620002f157620002f1620004aa565b60200101906001600160f81b031916908160001a90535060049490941c936200031a81620004c0565b9050620002a3565b508315620003735760405162461bcd60e51b815260206004820181905260248201527f537472696e67733a20686578206c656e67746820696e73756666696369656e746044820152606401620001b1565b9392505050565b60005b83811015620003975781810151838201526020016200037d565b50506000910152565b7f416363657373436f6e74726f6c3a206163636f756e7420000000000000000000815260008351620003da8160178501602088016200037a565b7001034b99036b4b9b9b4b733903937b6329607d1b60179184019182015283516200040d8160288401602088016200037a565b01602801949350505050565b60208152600082518060208401526200043a8160408501602087016200037a565b601f01601f19169190910160400192915050565b634e487b7160e01b600052601160045260246000fd5b80820281158282048414176200010d576200010d6200044e565b808201808211156200010d576200010d6200044e565b634e487b7160e01b600052604160045260246000fd5b634e487b7160e01b600052603260045260246000fd5b600081620004d257620004d26200044e565b506000190190565b6108c580620004ea6000396000f3fe608060405234801561001057600080fd5b50600436106100a95760003560e01c806336568abe1161007157806336568abe1461014457806391d1485414610157578063a217fddf1461016a578063ac98e6db14610172578063ad973d741461017a578063d547741f1461018d57600080fd5b806301ffc9a7146100ae578063204d7923146100d6578063248a9ca3146100f957806328fd5e831461011c5780632f2ff15d1461012f575b600080fd5b6100c16100bc36600461067a565b6101a0565b60405190151581526020015b60405180910390f35b6100eb60008051602061087083398151915281565b6040519081526020016100cd565b6100eb6101073660046106a4565b60009081526020819052604090206001015490565b6100c161012a3660046106d9565b6101d7565b61014261013d3660046106f4565b6101f1565b005b6101426101523660046106f4565b61021c565b6100c16101653660046106f4565b61029f565b6100eb600081565b6101426102c8565b6101426101883660046106d9565b6102d3565b61014261019b3660046106f4565b610334565b60006001600160e01b03198216637965db0b60e01b14806101d157506301ffc9a760e01b6001600160e01b03198316145b92915050565b60006101d16000805160206108708339815191528361029f565b60008281526020819052604090206001015461020d813361035a565b61021783836103be565b505050565b6001600160a01b03811633146102915760405162461bcd60e51b815260206004820152602f60248201527f416363657373436f6e74726f6c3a2063616e206f6e6c792072656e6f756e636560448201526e103937b632b9903337b91039b2b63360891b60648201526084015b60405180910390fd5b61029b8282610442565b5050565b6000918252602082815260408084206001600160a01b0393909316845291905290205460ff1690565b6102d1336104a7565b565b6102dc336101d7565b6103285760405162461bcd60e51b815260206004820152601960248201527f43616c6c6572206973206e6f74206120637573746f6d65722e000000000000006044820152606401610288565b610331816104bf565b50565b600082815260208190526040902060010154610350813361035a565b6102178383610442565b610364828261029f565b61029b5761037c816001600160a01b031660146104d7565b6103878360206104d7565b604051602001610398929190610744565b60408051601f198184030181529082905262461bcd60e51b8252610288916004016107b9565b6103c8828261029f565b61029b576000828152602081815260408083206001600160a01b03851684529091529020805460ff191660011790556103fe3390565b6001600160a01b0316816001600160a01b0316837f2f8788117e7eff1d82e926ec794901d17c78024a50270940304540a733656f0d60405160405180910390a45050565b61044c828261029f565b1561029b576000828152602081815260408083206001600160a01b0385168085529252808320805460ff1916905551339285917ff6391f5c32d9c69d2a47ea670b442974b53935d1edc7fd64eb21e047a839171b9190a45050565b61033160008051602061087083398151915282610334565b610331600080516020610870833981519152826101f1565b606060006104e6836002610802565b6104f1906002610819565b67ffffffffffffffff8111156105095761050961082c565b6040519080825280601f01601f191660200182016040528015610533576020820181803683370190505b509050600360fc1b8160008151811061054e5761054e610842565b60200101906001600160f81b031916908160001a905350600f60fb1b8160018151811061057d5761057d610842565b60200101906001600160f81b031916908160001a90535060006105a1846002610802565b6105ac906001610819565b90505b6001811115610624576f181899199a1a9b1b9c1cb0b131b232b360811b85600f16601081106105e0576105e0610842565b1a60f81b8282815181106105f6576105f6610842565b60200101906001600160f81b031916908160001a90535060049490941c9361061d81610858565b90506105af565b5083156106735760405162461bcd60e51b815260206004820181905260248201527f537472696e67733a20686578206c656e67746820696e73756666696369656e746044820152606401610288565b9392505050565b60006020828403121561068c57600080fd5b81356001600160e01b03198116811461067357600080fd5b6000602082840312156106b657600080fd5b5035919050565b80356001600160a01b03811681146106d457600080fd5b919050565b6000602082840312156106eb57600080fd5b610673826106bd565b6000806040838503121561070757600080fd5b82359150610717602084016106bd565b90509250929050565b60005b8381101561073b578181015183820152602001610723565b50506000910152565b7f416363657373436f6e74726f6c3a206163636f756e742000000000000000000081526000835161077c816017850160208801610720565b7001034b99036b4b9b9b4b733903937b6329607d1b60179184019182015283516107ad816028840160208801610720565b01602801949350505050565b60208152600082518060208401526107d8816040850160208701610720565b601f01601f19169190910160400192915050565b634e487b7160e01b600052601160045260246000fd5b80820281158282048414176101d1576101d16107ec565b808201808211156101d1576101d16107ec565b634e487b7160e01b600052604160045260246000fd5b634e487b7160e01b600052603260045260246000fd5b600081610867576108676107ec565b50600019019056fe288a15c4a15d470e4cd9cad2f113b91206b520c26dbd3dd74627f0c057baa19ca264697066735822122051f2e2c7fbe593c2050fa4e2ec0c2eb07585d985742d4cb8b47150ae55a2e7a764736f6c63430008130033",
  "immutableReferences": {},
  "source": "// SPDX-License-Identifier: MIT\npragma solidity ^0.8.10;\n\n// Import the library 'AccessControl' from OpenZeppelin\nimport \"@openzeppelin/contracts/access/AccessControl.sol\";\n\n// Define a contract 'CustomerRole' to manage this role - add, remove, check\ncontract CustomerRole is AccessControl {\n  \n  // Define a constant for the customer role\n  bytes32 public constant CUSTOMER_ROLE = keccak256(\"CUSTOMER_ROLE\");\n\n  // In the constructor, make the address that deploys this contract the 1st customer\n  constructor() {\n    _grantRole(DEFAULT_ADMIN_ROLE, msg.sender);\n    _addCustomer(msg.sender);\n  }\n\n  // Define a modifier that checks if the caller has the customer role\n  modifier onlyCustomer() {\n    require(isCustomer(msg.sender), \"Caller is not a customer.\");\n    _;\n  }\n\n  // Define a function to check if an address has the customer role\n  function isCustomer(address account) public view returns (bool) {\n    return hasRole(CUSTOMER_ROLE, account);\n  }\n\n  // Define a function to add the customer role to an address\n  function addCustomer(address account) public onlyCustomer {\n    _addCustomer(account);\n  }\n\n  // Define a function to renounce the customer role\n  function renounceCustomer() public {\n    _removeCustomer(msg.sender);\n  }\n\n  // Define an internal function to add the customer role\n  function _addCustomer(address account) internal {\n    grantRole(CUSTOMER_ROLE, account);\n  }\n\n  // Define an internal function to remove the customer role\n  function _removeCustomer(address account) internal {\n    revokeRole(CUSTOMER_ROLE, account);\n  }\n}\n",
  "sourcePath": "/Users/mac/Desktop/GoldTracker/src/contracts/emeraldaccesscontrol/CustomerRole.sol",
  "compiler": {
    "name": "solc",
    "version": "0.8.19+commit.7dd6d404.Emscripten.clang"
  },
  "schemaVersion": "3.4.16",
  "updatedAt": "2024-05-28T12:55:02.242Z",
  "networkType": "ethereum",
  "devdoc": {
    "events": {
      "RoleAdminChanged(bytes32,bytes32,bytes32)": {
        "details": "Emitted when `newAdminRole` is set as ``role``'s admin role, replacing `previousAdminRole` `DEFAULT_ADMIN_ROLE` is the starting admin for all roles, despite {RoleAdminChanged} not being emitted signaling this. _Available since v3.1._"
      },
      "RoleGranted(bytes32,address,address)": {
        "details": "Emitted when `account` is granted `role`. `sender` is the account that originated the contract call, an admin role bearer except when using {AccessControl-_setupRole}."
      },
      "RoleRevoked(bytes32,address,address)": {
        "details": "Emitted when `account` is revoked `role`. `sender` is the account that originated the contract call:   - if using `revokeRole`, it is the admin role bearer   - if using `renounceRole`, it is the role bearer (i.e. `account`)"
      }
    },
    "kind": "dev",
    "methods": {
      "getRoleAdmin(bytes32)": {
        "details": "Returns the admin role that controls `role`. See {grantRole} and {revokeRole}. To change a role's admin, use {_setRoleAdmin}."
      },
      "grantRole(bytes32,address)": {
        "details": "Grants `role` to `account`. If `account` had not been already granted `role`, emits a {RoleGranted} event. Requirements: - the caller must have ``role``'s admin role."
      },
      "hasRole(bytes32,address)": {
        "details": "Returns `true` if `account` has been granted `role`."
      },
      "renounceRole(bytes32,address)": {
        "details": "Revokes `role` from the calling account. Roles are often managed via {grantRole} and {revokeRole}: this function's purpose is to provide a mechanism for accounts to lose their privileges if they are compromised (such as when a trusted device is misplaced). If the calling account had been revoked `role`, emits a {RoleRevoked} event. Requirements: - the caller must be `account`."
      },
      "revokeRole(bytes32,address)": {
        "details": "Revokes `role` from `account`. If `account` had been granted `role`, emits a {RoleRevoked} event. Requirements: - the caller must have ``role``'s admin role."
      },
      "supportsInterface(bytes4)": {
        "details": "See {IERC165-supportsInterface}."
      }
    },
    "version": 1
  },
  "userdoc": {
    "kind": "user",
    "methods": {},
    "version": 1
  }
}