{
  "contractName": "CustodianRole",
  "abi": [
    {
      "inputs": [],
      "stateMutability": "nonpayable",
      "type": "constructor"
    },
    {
      "anonymous": false,
      "inputs": [
        {
          "indexed": true,
          "internalType": "bytes32",
          "name": "role",
          "type": "bytes32"
        },
        {
          "indexed": true,
          "internalType": "bytes32",
          "name": "previousAdminRole",
          "type": "bytes32"
        },
        {
          "indexed": true,
          "internalType": "bytes32",
          "name": "newAdminRole",
          "type": "bytes32"
        }
      ],
      "name": "RoleAdminChanged",
      "type": "event"
    },
    {
      "anonymous": false,
      "inputs": [
        {
          "indexed": true,
          "internalType": "bytes32",
          "name": "role",
          "type": "bytes32"
        },
        {
          "indexed": true,
          "internalType": "address",
          "name": "account",
          "type": "address"
        },
        {
          "indexed": true,
          "internalType": "address",
          "name": "sender",
          "type": "address"
        }
      ],
      "name": "RoleGranted",
      "type": "event"
    },
    {
      "anonymous": false,
      "inputs": [
        {
          "indexed": true,
          "internalType": "bytes32",
          "name": "role",
          "type": "bytes32"
        },
        {
          "indexed": true,
          "internalType": "address",
          "name": "account",
          "type": "address"
        },
        {
          "indexed": true,
          "internalType": "address",
          "name": "sender",
          "type": "address"
        }
      ],
      "name": "RoleRevoked",
      "type": "event"
    },
    {
      "inputs": [],
      "name": "CUSTODIAN_ROLE",
      "outputs": [
        {
          "internalType": "bytes32",
          "name": "",
          "type": "bytes32"
        }
      ],
      "stateMutability": "view",
      "type": "function",
      "constant": true
    },
    {
      "inputs": [],
      "name": "DEFAULT_ADMIN_ROLE",
      "outputs": [
        {
          "internalType": "bytes32",
          "name": "",
          "type": "bytes32"
        }
      ],
      "stateMutability": "view",
      "type": "function",
      "constant": true
    },
    {
      "inputs": [
        {
          "internalType": "bytes32",
          "name": "role",
          "type": "bytes32"
        }
      ],
      "name": "getRoleAdmin",
      "outputs": [
        {
          "internalType": "bytes32",
          "name": "",
          "type": "bytes32"
        }
      ],
      "stateMutability": "view",
      "type": "function",
      "constant": true
    },
    {
      "inputs": [
        {
          "internalType": "bytes32",
          "name": "role",
          "type": "bytes32"
        },
        {
          "internalType": "address",
          "name": "account",
          "type": "address"
        }
      ],
      "name": "grantRole",
      "outputs": [],
      "stateMutability": "nonpayable",
      "type": "function"
    },
    {
      "inputs": [
        {
          "internalType": "bytes32",
          "name": "role",
          "type": "bytes32"
        },
        {
          "internalType": "address",
          "name": "account",
          "type": "address"
        }
      ],
      "name": "hasRole",
      "outputs": [
        {
          "internalType": "bool",
          "name": "",
          "type": "bool"
        }
      ],
      "stateMutability": "view",
      "type": "function",
      "constant": true
    },
    {
      "inputs": [
        {
          "internalType": "bytes32",
          "name": "role",
          "type": "bytes32"
        },
        {
          "internalType": "address",
          "name": "account",
          "type": "address"
        }
      ],
      "name": "renounceRole",
      "outputs": [],
      "stateMutability": "nonpayable",
      "type": "function"
    },
    {
      "inputs": [
        {
          "internalType": "bytes32",
          "name": "role",
          "type": "bytes32"
        },
        {
          "internalType": "address",
          "name": "account",
          "type": "address"
        }
      ],
      "name": "revokeRole",
      "outputs": [],
      "stateMutability": "nonpayable",
      "type": "function"
    },
    {
      "inputs": [
        {
          "internalType": "bytes4",
          "name": "interfaceId",
          "type": "bytes4"
        }
      ],
      "name": "supportsInterface",
      "outputs": [
        {
          "internalType": "bool",
          "name": "",
          "type": "bool"
        }
      ],
      "stateMutability": "view",
      "type": "function",
      "constant": true
    },
    {
      "inputs": [
        {
          "internalType": "address",
          "name": "account",
          "type": "address"
        }
      ],
      "name": "isCustodian",
      "outputs": [
        {
          "internalType": "bool",
          "name": "",
          "type": "bool"
        }
      ],
      "stateMutability": "view",
      "type": "function",
      "constant": true
    },
    {
      "inputs": [
        {
          "internalType": "address",
          "name": "account",
          "type": "address"
        }
      ],
      "name": "addCustodian",
      "outputs": [],
      "stateMutability": "nonpayable",
      "type": "function"
    },
    {
      "inputs": [],
      "name": "renounceCustodian",
      "outputs": [],
      "stateMutability": "nonpayable",
      "type": "function"
    }
  ],
  "bytecode": "0x60806040523480156200001157600080fd5b506200001f60003362000030565b6200002a33620000d1565b6200050d565b6000828152602081815260408083206001600160a01b038516845290915290205460ff16620000cd576000828152602081815260408083206001600160a01b03851684529091529020805460ff191660011790556200008c3390565b6001600160a01b0316816001600160a01b0316837f2f8788117e7eff1d82e926ec794901d17c78024a50270940304540a733656f0d60405160405180910390a45b5050565b620000fd7fe28434228950b641dbbc0178de89daa359a87c6ee0d8399aeace52a98fe902b98262000100565b50565b6000828152602081905260409020600101546200011e81336200012f565b6200012a838362000030565b505050565b6000828152602081815260408083206001600160a01b038516845290915290205460ff16620000cd5762000179816001600160a01b03166014620001d360201b6200035a1760201c565b6200018f8360206200035a620001d3821b17811c565b604051602001620001a2929190620003c6565b60408051601f198184030181529082905262461bcd60e51b8252620001ca916004016200043f565b60405180910390fd5b60606000620001e48360026200048a565b620001f1906002620004ac565b6001600160401b038111156200020b576200020b620004c7565b6040519080825280601f01601f19166020018201604052801562000236576020820181803683370190505b509050600360fc1b81600081518110620002545762000254620004dd565b60200101906001600160f81b031916908160001a905350600f60fb1b81600181518110620002865762000286620004dd565b60200101906001600160f81b031916908160001a9053506000620002ac8460026200048a565b620002b9906001620004ac565b90505b60018111156200033b576f181899199a1a9b1b9c1cb0b131b232b360811b85600f1660108110620002f157620002f1620004dd565b1a60f81b8282815181106200030a576200030a620004dd565b60200101906001600160f81b031916908160001a90535060049490941c936200033381620004f3565b9050620002bc565b5083156200038c5760405162461bcd60e51b815260206004820181905260248201527f537472696e67733a20686578206c656e67746820696e73756666696369656e746044820152606401620001ca565b9392505050565b60005b83811015620003b057818101518382015260200162000396565b83811115620003c0576000848401525b50505050565b7f416363657373436f6e74726f6c3a206163636f756e74200000000000000000008152600083516200040081601785016020880162000393565b7001034b99036b4b9b9b4b733903937b6329607d1b60179184019182015283516200043381602884016020880162000393565b01602801949350505050565b60208152600082518060208401526200046081604085016020870162000393565b601f01601f19169190910160400192915050565b634e487b7160e01b600052601160045260246000fd5b6000816000190483118215151615620004a757620004a762000474565b500290565b60008219821115620004c257620004c262000474565b500190565b634e487b7160e01b600052604160045260246000fd5b634e487b7160e01b600052603260045260246000fd5b60008162000505576200050562000474565b506000190190565b6108de806200051d6000396000f3fe608060405234801561001057600080fd5b50600436106100a95760003560e01c80635d4bc638116100715780635d4bc6381461014257806385d95b811461014a57806391d148541461015d578063a217fddf14610170578063c79445d014610178578063d547741f1461018d57600080fd5b806301ffc9a7146100ae578063248a9ca3146100d65780632f2ff15d1461010757806335c80c8c1461011c57806336568abe1461012f575b600080fd5b6100c16100bc36600461067a565b6101a0565b60405190151581526020015b60405180910390f35b6100f96100e43660046106a4565b60009081526020819052604090206001015490565b6040519081526020016100cd565b61011a6101153660046106d9565b6101d7565b005b6100c161012a366004610705565b610202565b61011a61013d3660046106d9565b61021c565b61011a61029f565b61011a610158366004610705565b6102aa565b6100c161016b3660046106d9565b61030b565b6100f9600081565b6100f960008051602061088983398151915281565b61011a61019b3660046106d9565b610334565b60006001600160e01b03198216637965db0b60e01b14806101d157506301ffc9a760e01b6001600160e01b03198316145b92915050565b6000828152602081905260409020600101546101f381336104fd565b6101fd8383610561565b505050565b60006101d16000805160206108898339815191528361030b565b6001600160a01b03811633146102915760405162461bcd60e51b815260206004820152602f60248201527f416363657373436f6e74726f6c3a2063616e206f6e6c792072656e6f756e636560448201526e103937b632b9903337b91039b2b63360891b60648201526084015b60405180910390fd5b61029b82826105e5565b5050565b6102a83361064a565b565b6102b333610202565b6102ff5760405162461bcd60e51b815260206004820152601a60248201527f43616c6c6572206973206e6f74206120637573746f6469616e2e0000000000006044820152606401610288565b61030881610662565b50565b6000918252602082815260408084206001600160a01b0393909316845291905290205460ff1690565b60008281526020819052604090206001015461035081336104fd565b6101fd83836105e5565b60606000610369836002610736565b610374906002610755565b67ffffffffffffffff81111561038c5761038c61076d565b6040519080825280601f01601f1916602001820160405280156103b6576020820181803683370190505b509050600360fc1b816000815181106103d1576103d1610783565b60200101906001600160f81b031916908160001a905350600f60fb1b8160018151811061040057610400610783565b60200101906001600160f81b031916908160001a9053506000610424846002610736565b61042f906001610755565b90505b60018111156104a7576f181899199a1a9b1b9c1cb0b131b232b360811b85600f166010811061046357610463610783565b1a60f81b82828151811061047957610479610783565b60200101906001600160f81b031916908160001a90535060049490941c936104a081610799565b9050610432565b5083156104f65760405162461bcd60e51b815260206004820181905260248201527f537472696e67733a20686578206c656e67746820696e73756666696369656e746044820152606401610288565b9392505050565b610507828261030b565b61029b5761051f816001600160a01b0316601461035a565b61052a83602061035a565b60405160200161053b9291906107e0565b60408051601f198184030181529082905262461bcd60e51b825261028891600401610855565b61056b828261030b565b61029b576000828152602081815260408083206001600160a01b03851684529091529020805460ff191660011790556105a13390565b6001600160a01b0316816001600160a01b0316837f2f8788117e7eff1d82e926ec794901d17c78024a50270940304540a733656f0d60405160405180910390a45050565b6105ef828261030b565b1561029b576000828152602081815260408083206001600160a01b0385168085529252808320805460ff1916905551339285917ff6391f5c32d9c69d2a47ea670b442974b53935d1edc7fd64eb21e047a839171b9190a45050565b61030860008051602061088983398151915282610334565b610308600080516020610889833981519152826101d7565b60006020828403121561068c57600080fd5b81356001600160e01b0319811681146104f657600080fd5b6000602082840312156106b657600080fd5b5035919050565b80356001600160a01b03811681146106d457600080fd5b919050565b600080604083850312156106ec57600080fd5b823591506106fc602084016106bd565b90509250929050565b60006020828403121561071757600080fd5b6104f6826106bd565b634e487b7160e01b600052601160045260246000fd5b600081600019048311821515161561075057610750610720565b500290565b6000821982111561076857610768610720565b500190565b634e487b7160e01b600052604160045260246000fd5b634e487b7160e01b600052603260045260246000fd5b6000816107a8576107a8610720565b506000190190565b60005b838110156107cb5781810151838201526020016107b3565b838111156107da576000848401525b50505050565b7f416363657373436f6e74726f6c3a206163636f756e74200000000000000000008152600083516108188160178501602088016107b0565b7001034b99036b4b9b9b4b733903937b6329607d1b60179184019182015283516108498160288401602088016107b0565b01602801949350505050565b60208152600082518060208401526108748160408501602087016107b0565b601f01601f1916919091016040019291505056fee28434228950b641dbbc0178de89daa359a87c6ee0d8399aeace52a98fe902b9a264697066735822122046415c47a117b5acc783a26ffe6aeff36fdd759b1614474ef19137bac2d067a864736f6c634300080a0033",
  "immutableReferences": {},
  "source": "// SPDX-License-Identifier: MIT\r\npragma solidity ^0.8.10;\r\n\r\n// Import the library 'AccessControl' from OpenZeppelin\r\nimport \"@openzeppelin/contracts/access/AccessControl.sol\";\r\n\r\n// Define a contract 'CustodianRole' to manage this role - add, remove, check\r\ncontract CustodianRole is AccessControl {\r\n  \r\n  // Role identifier for the Custodian role\r\n  bytes32 public constant CUSTODIAN_ROLE = keccak256(\"CUSTODIAN_ROLE\");\r\n\r\n  // In the constructor, make the address that deploys this contract the 1st custodian\r\n  constructor() {\r\n    _grantRole(DEFAULT_ADMIN_ROLE, msg.sender);\r\n    _addCustodian(msg.sender);\r\n  }\r\n\r\n  // Define a modifier that checks if the caller has the appropriate role\r\n  modifier onlyCustodian() {\r\n    require(isCustodian(msg.sender), \"Caller is not a custodian.\");\r\n    _;\r\n  }\r\n\r\n  // Define a function 'isCustodian' to check this role\r\n  function isCustodian(address account) public view returns (bool) {\r\n    return hasRole(CUSTODIAN_ROLE, account);\r\n  }\r\n\r\n  // Define a function 'addCustodian' that adds this role\r\n  function addCustodian(address account) public onlyCustodian {\r\n    _addCustodian(account);\r\n  }\r\n\r\n  // Define a function 'renounceCustodian' to renounce this role\r\n  function renounceCustodian() public {\r\n    _removeCustodian(msg.sender);\r\n  }\r\n\r\n  // Define an internal function '_addCustodian' to add this role, called by 'addDistributor'\r\n  function _addCustodian(address account) internal {\r\n    grantRole(CUSTODIAN_ROLE, account);\r\n  }\r\n\r\n  // Define an internal function '_removeCustodian' to remove this role, called by 'removeDistributor'\r\n  function _removeCustodian(address account) internal {\r\n    revokeRole(CUSTODIAN_ROLE, account);\r\n  }\r\n}\r\n",
  "sourcePath": "D:\\INE1\\S2\\SecurityProject2\\goldtracker\\src\\contracts\\emeraldaccesscontrol\\CustodianRole.sol",
  "compiler": {
    "name": "solc",
    "version": "0.8.10+commit.fc410830.Emscripten.clang"
  },
  "schemaVersion": "3.4.16",
  "updatedAt": "2024-05-27T09:11:23.961Z",
  "networkType": "ethereum",
  "devdoc": {
    "kind": "dev",
    "methods": {
      "getRoleAdmin(bytes32)": {
        "details": "Returns the admin role that controls `role`. See {grantRole} and {revokeRole}. To change a role's admin, use {_setRoleAdmin}."
      },
      "grantRole(bytes32,address)": {
        "details": "Grants `role` to `account`. If `account` had not been already granted `role`, emits a {RoleGranted} event. Requirements: - the caller must have ``role``'s admin role."
      },
      "hasRole(bytes32,address)": {
        "details": "Returns `true` if `account` has been granted `role`."
      },
      "renounceRole(bytes32,address)": {
        "details": "Revokes `role` from the calling account. Roles are often managed via {grantRole} and {revokeRole}: this function's purpose is to provide a mechanism for accounts to lose their privileges if they are compromised (such as when a trusted device is misplaced). If the calling account had been revoked `role`, emits a {RoleRevoked} event. Requirements: - the caller must be `account`."
      },
      "revokeRole(bytes32,address)": {
        "details": "Revokes `role` from `account`. If `account` had been granted `role`, emits a {RoleRevoked} event. Requirements: - the caller must have ``role``'s admin role."
      },
      "supportsInterface(bytes4)": {
        "details": "See {IERC165-supportsInterface}."
      }
    },
    "version": 1
  },
  "userdoc": {
    "kind": "user",
    "methods": {},
    "version": 1
  }
}