{
  "contractName": "CustodianRole",
  "abi": [
    {
      "inputs": [],
      "stateMutability": "nonpayable",
      "type": "constructor"
    },
    {
      "anonymous": false,
      "inputs": [
        {
          "indexed": true,
          "internalType": "bytes32",
          "name": "role",
          "type": "bytes32"
        },
        {
          "indexed": true,
          "internalType": "bytes32",
          "name": "previousAdminRole",
          "type": "bytes32"
        },
        {
          "indexed": true,
          "internalType": "bytes32",
          "name": "newAdminRole",
          "type": "bytes32"
        }
      ],
      "name": "RoleAdminChanged",
      "type": "event"
    },
    {
      "anonymous": false,
      "inputs": [
        {
          "indexed": true,
          "internalType": "bytes32",
          "name": "role",
          "type": "bytes32"
        },
        {
          "indexed": true,
          "internalType": "address",
          "name": "account",
          "type": "address"
        },
        {
          "indexed": true,
          "internalType": "address",
          "name": "sender",
          "type": "address"
        }
      ],
      "name": "RoleGranted",
      "type": "event"
    },
    {
      "anonymous": false,
      "inputs": [
        {
          "indexed": true,
          "internalType": "bytes32",
          "name": "role",
          "type": "bytes32"
        },
        {
          "indexed": true,
          "internalType": "address",
          "name": "account",
          "type": "address"
        },
        {
          "indexed": true,
          "internalType": "address",
          "name": "sender",
          "type": "address"
        }
      ],
      "name": "RoleRevoked",
      "type": "event"
    },
    {
      "inputs": [],
      "name": "CUSTODIAN_ROLE",
      "outputs": [
        {
          "internalType": "bytes32",
          "name": "",
          "type": "bytes32"
        }
      ],
      "stateMutability": "view",
      "type": "function"
    },
    {
      "inputs": [],
      "name": "DEFAULT_ADMIN_ROLE",
      "outputs": [
        {
          "internalType": "bytes32",
          "name": "",
          "type": "bytes32"
        }
      ],
      "stateMutability": "view",
      "type": "function"
    },
    {
      "inputs": [
        {
          "internalType": "bytes32",
          "name": "role",
          "type": "bytes32"
        }
      ],
      "name": "getRoleAdmin",
      "outputs": [
        {
          "internalType": "bytes32",
          "name": "",
          "type": "bytes32"
        }
      ],
      "stateMutability": "view",
      "type": "function"
    },
    {
      "inputs": [
        {
          "internalType": "bytes32",
          "name": "role",
          "type": "bytes32"
        },
        {
          "internalType": "address",
          "name": "account",
          "type": "address"
        }
      ],
      "name": "grantRole",
      "outputs": [],
      "stateMutability": "nonpayable",
      "type": "function"
    },
    {
      "inputs": [
        {
          "internalType": "bytes32",
          "name": "role",
          "type": "bytes32"
        },
        {
          "internalType": "address",
          "name": "account",
          "type": "address"
        }
      ],
      "name": "hasRole",
      "outputs": [
        {
          "internalType": "bool",
          "name": "",
          "type": "bool"
        }
      ],
      "stateMutability": "view",
      "type": "function"
    },
    {
      "inputs": [
        {
          "internalType": "bytes32",
          "name": "role",
          "type": "bytes32"
        },
        {
          "internalType": "address",
          "name": "account",
          "type": "address"
        }
      ],
      "name": "renounceRole",
      "outputs": [],
      "stateMutability": "nonpayable",
      "type": "function"
    },
    {
      "inputs": [
        {
          "internalType": "bytes32",
          "name": "role",
          "type": "bytes32"
        },
        {
          "internalType": "address",
          "name": "account",
          "type": "address"
        }
      ],
      "name": "revokeRole",
      "outputs": [],
      "stateMutability": "nonpayable",
      "type": "function"
    },
    {
      "inputs": [
        {
          "internalType": "bytes4",
          "name": "interfaceId",
          "type": "bytes4"
        }
      ],
      "name": "supportsInterface",
      "outputs": [
        {
          "internalType": "bool",
          "name": "",
          "type": "bool"
        }
      ],
      "stateMutability": "view",
      "type": "function"
    },
    {
      "inputs": [
        {
          "internalType": "address",
          "name": "account",
          "type": "address"
        }
      ],
      "name": "isCustodian",
      "outputs": [
        {
          "internalType": "bool",
          "name": "",
          "type": "bool"
        }
      ],
      "stateMutability": "view",
      "type": "function"
    },
    {
      "inputs": [
        {
          "internalType": "address",
          "name": "account",
          "type": "address"
        }
      ],
      "name": "addCustodian",
      "outputs": [],
      "stateMutability": "nonpayable",
      "type": "function"
    },
    {
      "inputs": [],
      "name": "renounceCustodian",
      "outputs": [],
      "stateMutability": "nonpayable",
      "type": "function"
    }
  ],
  "bytecode": "0x60806040523480156200001157600080fd5b506200001f60003362000030565b6200002a33620000d1565b62000525565b6000828152602081815260408083206001600160a01b038516845290915290205460ff16620000cd576000828152602081815260408083206001600160a01b03851684529091529020805460ff191660011790556200008c3390565b6001600160a01b0316816001600160a01b0316837f2f8788117e7eff1d82e926ec794901d17c78024a50270940304540a733656f0d60405160405180910390a45b5050565b620000fd7fe28434228950b641dbbc0178de89daa359a87c6ee0d8399aeace52a98fe902b98262000100565b50565b6000828152602081905260409020600101546200011d816200012e565b62000129838362000030565b505050565b620000fd81336000828152602081815260408083206001600160a01b038516845290915290205460ff16620000cd576200017381620001cd60201b620003581760201c565b620001898360206200036a620001eb821b17811c565b6040516020016200019c929190620003de565b60408051601f198184030181529082905262461bcd60e51b8252620001c49160040162000457565b60405180910390fd5b6060620001e56001600160a01b0383166014620001eb565b92915050565b60606000620001fc836002620004a2565b62000209906002620004c4565b6001600160401b03811115620002235762000223620004df565b6040519080825280601f01601f1916602001820160405280156200024e576020820181803683370190505b509050600360fc1b816000815181106200026c576200026c620004f5565b60200101906001600160f81b031916908160001a905350600f60fb1b816001815181106200029e576200029e620004f5565b60200101906001600160f81b031916908160001a9053506000620002c4846002620004a2565b620002d1906001620004c4565b90505b600181111562000353576f181899199a1a9b1b9c1cb0b131b232b360811b85600f1660108110620003095762000309620004f5565b1a60f81b828281518110620003225762000322620004f5565b60200101906001600160f81b031916908160001a90535060049490941c936200034b816200050b565b9050620002d4565b508315620003a45760405162461bcd60e51b815260206004820181905260248201527f537472696e67733a20686578206c656e67746820696e73756666696369656e746044820152606401620001c4565b9392505050565b60005b83811015620003c8578181015183820152602001620003ae565b83811115620003d8576000848401525b50505050565b7f416363657373436f6e74726f6c3a206163636f756e742000000000000000000081526000835162000418816017850160208801620003ab565b7001034b99036b4b9b9b4b733903937b6329607d1b60179184019182015283516200044b816028840160208801620003ab565b01602801949350505050565b602081526000825180602084015262000478816040850160208701620003ab565b601f01601f19169190910160400192915050565b634e487b7160e01b600052601160045260246000fd5b6000816000190483118215151615620004bf57620004bf6200048c565b500290565b60008219821115620004da57620004da6200048c565b500190565b634e487b7160e01b600052604160045260246000fd5b634e487b7160e01b600052603260045260246000fd5b6000816200051d576200051d6200048c565b506000190190565b6108ed80620005356000396000f3fe608060405234801561001057600080fd5b50600436106100a95760003560e01c80635d4bc638116100715780635d4bc6381461014257806385d95b811461014a57806391d148541461015d578063a217fddf14610170578063c79445d014610178578063d547741f1461018d57600080fd5b806301ffc9a7146100ae578063248a9ca3146100d65780632f2ff15d1461010757806335c80c8c1461011c57806336568abe1461012f575b600080fd5b6100c16100bc366004610689565b6101a0565b60405190151581526020015b60405180910390f35b6100f96100e43660046106b3565b60009081526020819052604090206001015490565b6040519081526020016100cd565b61011a6101153660046106e8565b6101d7565b005b6100c161012a366004610714565b610201565b61011a61013d3660046106e8565b61021b565b61011a61029e565b61011a610158366004610714565b6102a9565b6100c161016b3660046106e8565b61030a565b6100f9600081565b6100f960008051602061089883398151915281565b61011a61019b3660046106e8565b610333565b60006001600160e01b03198216637965db0b60e01b14806101d157506301ffc9a760e01b6001600160e01b03198316145b92915050565b6000828152602081905260409020600101546101f28161050d565b6101fc8383610517565b505050565b60006101d16000805160206108988339815191528361030a565b6001600160a01b03811633146102905760405162461bcd60e51b815260206004820152602f60248201527f416363657373436f6e74726f6c3a2063616e206f6e6c792072656e6f756e636560448201526e103937b632b9903337b91039b2b63360891b60648201526084015b60405180910390fd5b61029a828261059b565b5050565b6102a733610600565b565b6102b233610201565b6102fe5760405162461bcd60e51b815260206004820152601a60248201527f43616c6c6572206973206e6f74206120637573746f6469616e2e0000000000006044820152606401610287565b61030781610618565b50565b6000918252602082815260408084206001600160a01b0393909316845291905290205460ff1690565b60008281526020819052604090206001015461034e8161050d565b6101fc838361059b565b60606101d16001600160a01b03831660145b60606000610379836002610745565b610384906002610764565b67ffffffffffffffff81111561039c5761039c61077c565b6040519080825280601f01601f1916602001820160405280156103c6576020820181803683370190505b509050600360fc1b816000815181106103e1576103e1610792565b60200101906001600160f81b031916908160001a905350600f60fb1b8160018151811061041057610410610792565b60200101906001600160f81b031916908160001a9053506000610434846002610745565b61043f906001610764565b90505b60018111156104b7576f181899199a1a9b1b9c1cb0b131b232b360811b85600f166010811061047357610473610792565b1a60f81b82828151811061048957610489610792565b60200101906001600160f81b031916908160001a90535060049490941c936104b0816107a8565b9050610442565b5083156105065760405162461bcd60e51b815260206004820181905260248201527f537472696e67733a20686578206c656e67746820696e73756666696369656e746044820152606401610287565b9392505050565b6103078133610630565b610521828261030a565b61029a576000828152602081815260408083206001600160a01b03851684529091529020805460ff191660011790556105573390565b6001600160a01b0316816001600160a01b0316837f2f8788117e7eff1d82e926ec794901d17c78024a50270940304540a733656f0d60405160405180910390a45050565b6105a5828261030a565b1561029a576000828152602081815260408083206001600160a01b0385168085529252808320805460ff1916905551339285917ff6391f5c32d9c69d2a47ea670b442974b53935d1edc7fd64eb21e047a839171b9190a45050565b61030760008051602061089883398151915282610333565b610307600080516020610898833981519152826101d7565b61063a828261030a565b61029a5761064781610358565b61065283602061036a565b6040516020016106639291906107ef565b60408051601f198184030181529082905262461bcd60e51b825261028791600401610864565b60006020828403121561069b57600080fd5b81356001600160e01b03198116811461050657600080fd5b6000602082840312156106c557600080fd5b5035919050565b80356001600160a01b03811681146106e357600080fd5b919050565b600080604083850312156106fb57600080fd5b8235915061070b602084016106cc565b90509250929050565b60006020828403121561072657600080fd5b610506826106cc565b634e487b7160e01b600052601160045260246000fd5b600081600019048311821515161561075f5761075f61072f565b500290565b600082198211156107775761077761072f565b500190565b634e487b7160e01b600052604160045260246000fd5b634e487b7160e01b600052603260045260246000fd5b6000816107b7576107b761072f565b506000190190565b60005b838110156107da5781810151838201526020016107c2565b838111156107e9576000848401525b50505050565b7f416363657373436f6e74726f6c3a206163636f756e74200000000000000000008152600083516108278160178501602088016107bf565b7001034b99036b4b9b9b4b733903937b6329607d1b60179184019182015283516108588160288401602088016107bf565b01602801949350505050565b60208152600082518060208401526108838160408501602087016107bf565b601f01601f1916919091016040019291505056fee28434228950b641dbbc0178de89daa359a87c6ee0d8399aeace52a98fe902b9a26469706673582212200dec2159ca6251bf4a1a3ec74f0c9d84c73f85be6cd066c2d30823ebbfbc72a064736f6c634300080a0033",
  "immutableReferences": {},
  "source": "// SPDX-License-Identifier: MIT\r\npragma solidity ^0.8.10;\r\n\r\n// Import the library 'AccessControl' from OpenZeppelin\r\nimport \"@openzeppelin/contracts/access/AccessControl.sol\";\r\n\r\n// Define a contract 'CustodianRole' to manage this role - add, remove, check\r\ncontract CustodianRole is AccessControl {\r\n  \r\n  // Role identifier for the Custodian role\r\n  bytes32 public constant CUSTODIAN_ROLE = keccak256(\"CUSTODIAN_ROLE\");\r\n\r\n  // In the constructor, make the address that deploys this contract the 1st custodian\r\n  constructor() {\r\n    _grantRole(DEFAULT_ADMIN_ROLE, msg.sender);\r\n    _addCustodian(msg.sender);\r\n  }\r\n\r\n  // Define a modifier that checks if the caller has the appropriate role\r\n  modifier onlyCustodian() {\r\n    require(isCustodian(msg.sender), \"Caller is not a custodian.\");\r\n    _;\r\n  }\r\n\r\n  // Define a function 'isCustodian' to check this role\r\n  function isCustodian(address account) public view returns (bool) {\r\n    return hasRole(CUSTODIAN_ROLE, account);\r\n  }\r\n\r\n  // Define a function 'addCustodian' that adds this role\r\n  function addCustodian(address account) public onlyCustodian {\r\n    _addCustodian(account);\r\n  }\r\n\r\n  // Define a function 'renounceCustodian' to renounce this role\r\n  function renounceCustodian() public {\r\n    _removeCustodian(msg.sender);\r\n  }\r\n\r\n  // Define an internal function '_addCustodian' to add this role, called by 'addDistributor'\r\n  function _addCustodian(address account) internal {\r\n    grantRole(CUSTODIAN_ROLE, account);\r\n  }\r\n\r\n  // Define an internal function '_removeCustodian' to remove this role, called by 'removeDistributor'\r\n  function _removeCustodian(address account) internal {\r\n    revokeRole(CUSTODIAN_ROLE, account);\r\n  }\r\n}\r\n",
  "sourcePath": "D:\\INE1\\S2\\SecurityProject2\\emeraldTracker\\src\\contracts\\emeraldaccesscontrol\\CustodianRole.sol",
  "compiler": {
    "name": "solc",
    "version": "0.8.10+commit.fc410830.Emscripten.clang"
  },
  "schemaVersion": "3.4.16",
  "updatedAt": "2024-06-03T09:35:03.507Z",
  "devdoc": {
    "kind": "dev",
    "methods": {
      "getRoleAdmin(bytes32)": {
        "details": "Returns the admin role that controls `role`. See {grantRole} and {revokeRole}. To change a role's admin, use {_setRoleAdmin}."
      },
      "grantRole(bytes32,address)": {
        "details": "Grants `role` to `account`. If `account` had not been already granted `role`, emits a {RoleGranted} event. Requirements: - the caller must have ``role``'s admin role. May emit a {RoleGranted} event."
      },
      "hasRole(bytes32,address)": {
        "details": "Returns `true` if `account` has been granted `role`."
      },
      "renounceRole(bytes32,address)": {
        "details": "Revokes `role` from the calling account. Roles are often managed via {grantRole} and {revokeRole}: this function's purpose is to provide a mechanism for accounts to lose their privileges if they are compromised (such as when a trusted device is misplaced). If the calling account had been revoked `role`, emits a {RoleRevoked} event. Requirements: - the caller must be `account`. May emit a {RoleRevoked} event."
      },
      "revokeRole(bytes32,address)": {
        "details": "Revokes `role` from `account`. If `account` had been granted `role`, emits a {RoleRevoked} event. Requirements: - the caller must have ``role``'s admin role. May emit a {RoleRevoked} event."
      },
      "supportsInterface(bytes4)": {
        "details": "See {IERC165-supportsInterface}."
      }
    },
    "version": 1
  },
  "userdoc": {
    "kind": "user",
    "methods": {},
    "version": 1
  }
}