{
  "contractName": "EmeraldProperties",
  "abi": [
    {
      "inputs": [],
      "stateMutability": "nonpayable",
      "type": "constructor"
    },
    {
      "inputs": [],
      "name": "clarityGrade",
      "outputs": [
        {
          "internalType": "string",
          "name": "",
          "type": "string"
        }
      ],
      "stateMutability": "view",
      "type": "function",
      "constant": true
    },
    {
      "inputs": [],
      "name": "color",
      "outputs": [
        {
          "internalType": "string",
          "name": "",
          "type": "string"
        }
      ],
      "stateMutability": "view",
      "type": "function",
      "constant": true
    },
    {
      "inputs": [],
      "name": "cutType",
      "outputs": [
        {
          "internalType": "string",
          "name": "",
          "type": "string"
        }
      ],
      "stateMutability": "view",
      "type": "function",
      "constant": true
    },
    {
      "inputs": [],
      "name": "shape",
      "outputs": [
        {
          "internalType": "string",
          "name": "",
          "type": "string"
        }
      ],
      "stateMutability": "view",
      "type": "function",
      "constant": true
    },
    {
      "inputs": [],
      "name": "size",
      "outputs": [
        {
          "internalType": "string",
          "name": "",
          "type": "string"
        }
      ],
      "stateMutability": "view",
      "type": "function",
      "constant": true
    },
    {
      "inputs": [],
      "name": "weight",
      "outputs": [
        {
          "internalType": "uint256",
          "name": "",
          "type": "uint256"
        }
      ],
      "stateMutability": "view",
      "type": "function",
      "constant": true
    },
    {
      "inputs": [
        {
          "internalType": "string",
          "name": "_color",
          "type": "string"
        }
      ],
      "name": "setColor",
      "outputs": [],
      "stateMutability": "nonpayable",
      "type": "function"
    },
    {
      "inputs": [
        {
          "internalType": "string",
          "name": "_size",
          "type": "string"
        }
      ],
      "name": "setSize",
      "outputs": [],
      "stateMutability": "nonpayable",
      "type": "function"
    },
    {
      "inputs": [
        {
          "internalType": "string",
          "name": "_cutType",
          "type": "string"
        }
      ],
      "name": "setCutType",
      "outputs": [],
      "stateMutability": "nonpayable",
      "type": "function"
    },
    {
      "inputs": [
        {
          "internalType": "string",
          "name": "_shape",
          "type": "string"
        }
      ],
      "name": "setShape",
      "outputs": [],
      "stateMutability": "nonpayable",
      "type": "function"
    },
    {
      "inputs": [
        {
          "internalType": "string",
          "name": "_clarityGrade",
          "type": "string"
        }
      ],
      "name": "setClarityGrade",
      "outputs": [],
      "stateMutability": "nonpayable",
      "type": "function"
    },
    {
      "inputs": [
        {
          "internalType": "uint256",
          "name": "_weight",
          "type": "uint256"
        }
      ],
      "name": "setWeight",
      "outputs": [],
      "stateMutability": "nonpayable",
      "type": "function"
    }
  ],
  "bytecode": "0x608060405234801561001057600080fd5b506104e2806100206000396000f3fe608060405234801561001057600080fd5b50600436106100b45760003560e01c8063978edb7a11610071578063978edb7a146101175780639988fa691461012a578063a1aab33f1461013d578063cf08fed514610154578063fc1711f21461015c578063fc703df91461016f57600080fd5b80630f7514a2146100b957806323d6cce3146100d75780633c5ad4a6146100ec57806344bae04c146100ff5780638b4722df14610107578063949d225d1461010f575b600080fd5b6100c1610182565b6040516100ce919061033c565b60405180910390f35b6100ea6100e53660046103a7565b610210565b005b6100ea6100fa3660046103a7565b610227565b6100c161023a565b6100c1610247565b6100c1610254565b6100ea6101253660046103a7565b610261565b6100ea6101383660046103a7565b610274565b61014660055481565b6040519081526020016100ce565b6100c1610287565b6100ea61016a366004610458565b600555565b6100ea61017d3660046103a7565b610294565b6001805461018f90610471565b80601f01602080910402602001604051908101604052809291908181526020018280546101bb90610471565b80156102085780601f106101dd57610100808354040283529160200191610208565b820191906000526020600020905b8154815290600101906020018083116101eb57829003601f168201915b505050505081565b80516102239060049060208401906102a3565b5050565b80516102239060019060208401906102a3565b6004805461018f90610471565b6000805461018f90610471565b6002805461018f90610471565b80516102239060029060208401906102a3565b80516102239060039060208401906102a3565b6003805461018f90610471565b80516102239060009060208401905b8280546102af90610471565b90600052602060002090601f0160209004810192826102d15760008555610317565b82601f106102ea57805160ff1916838001178555610317565b82800160010185558215610317579182015b828111156103175782518255916020019190600101906102fc565b50610323929150610327565b5090565b5b808211156103235760008155600101610328565b600060208083528351808285015260005b818110156103695785810183015185820160400152820161034d565b8181111561037b576000604083870101525b50601f01601f1916929092016040019392505050565b634e487b7160e01b600052604160045260246000fd5b6000602082840312156103b957600080fd5b813567ffffffffffffffff808211156103d157600080fd5b818401915084601f8301126103e557600080fd5b8135818111156103f7576103f7610391565b604051601f8201601f19908116603f0116810190838211818310171561041f5761041f610391565b8160405282815287602084870101111561043857600080fd5b826020860160208301376000928101602001929092525095945050505050565b60006020828403121561046a57600080fd5b5035919050565b600181811c9082168061048557607f821691505b602082108114156104a657634e487b7160e01b600052602260045260246000fd5b5091905056fea26469706673582212201a932774322a35c8711ac9d360df1d4f5c2b13e11a8847624dbcd6198d99f43964736f6c634300080a0033",
  "immutableReferences": {},
  "source": "// SPDX-License-Identifier: MIT\r\npragma solidity ^0.8.10;\r\n\r\ncontract EmeraldProperties {\r\n\r\n    string public cutType; // Emerald cut type\r\n    string public shape; // Emerald shape\r\n    string public size; // Length, width, and depth in mm\r\n    string public color; // Emerald color [Hue, Tone, Saturation]\r\n    string public clarityGrade; // Emerald clarity grade\r\n    uint256 public weight; // Emerald weight in grams\r\n \r\n    constructor() {}\r\n\r\n    function setColor(string memory _color) public {\r\n        color = _color;\r\n    }\r\n\r\n    function setSize(string memory _size) public {\r\n        size = _size;\r\n    }        \r\n    \r\n    function setCutType(string memory _cutType) public {\r\n        cutType = _cutType;\r\n    }\r\n\r\n    function setShape(string memory _shape) public {\r\n        shape = _shape;\r\n    }\r\n\r\n    function setClarityGrade(string memory _clarityGrade) public {\r\n        clarityGrade = _clarityGrade;\r\n    }\r\n\r\n    function setWeight(uint256 _weight) public {\r\n        weight = _weight;\r\n    }\r\n}\r\n",
  "sourcePath": "D:\\INE1\\S2\\SecurityProject2\\goldtracker\\src\\contracts\\emeraldbase\\EmeraldProperties.sol",
  "compiler": {
    "name": "solc",
    "version": "0.8.10+commit.fc410830.Emscripten.clang"
  },
  "schemaVersion": "3.4.16",
  "updatedAt": "2024-05-29T09:45:00.714Z",
  "networkType": "ethereum",
  "devdoc": {
    "kind": "dev",
    "methods": {},
    "version": 1
  },
  "userdoc": {
    "kind": "user",
    "methods": {},
    "version": 1
  }
}