{
  "contractName": "Emerald",
  "abi": [
    {
      "inputs": [],
      "stateMutability": "nonpayable",
      "type": "constructor"
    },
    {
      "inputs": [
        {
          "internalType": "uint256",
          "name": "_sku",
          "type": "uint256"
        },
        {
          "internalType": "uint256",
          "name": "_upc",
          "type": "uint256"
        },
        {
          "internalType": "address payable",
          "name": "_originMinerID",
          "type": "address"
        },
        {
          "internalType": "string",
          "name": "_originMineName",
          "type": "string"
        },
        {
          "internalType": "string",
          "name": "_originMineInformation",
          "type": "string"
        },
        {
          "internalType": "string",
          "name": "_originMineLatitude",
          "type": "string"
        },
        {
          "internalType": "string",
          "name": "_originMineLongitude",
          "type": "string"
        }
      ],
      "name": "setExtractionInfo",
      "outputs": [],
      "stateMutability": "nonpayable",
      "type": "function"
    },
    {
      "inputs": [
        {
          "internalType": "string",
          "name": "_scaleInfo",
          "type": "string"
        }
      ],
      "name": "setScaleInfo",
      "outputs": [],
      "stateMutability": "nonpayable",
      "type": "function"
    },
    {
      "inputs": [
        {
          "internalType": "string",
          "name": "_certifiedProperties",
          "type": "string"
        }
      ],
      "name": "setCertifiedInfo",
      "outputs": [],
      "stateMutability": "nonpayable",
      "type": "function"
    },
    {
      "inputs": [
        {
          "internalType": "string",
          "name": "_manufactureInfo",
          "type": "string"
        }
      ],
      "name": "setManufactureInfo",
      "outputs": [],
      "stateMutability": "nonpayable",
      "type": "function"
    },
    {
      "inputs": [
        {
          "internalType": "enum EmeraldStates.State",
          "name": "_state",
          "type": "uint8"
        }
      ],
      "name": "setEmeraldState",
      "outputs": [],
      "stateMutability": "nonpayable",
      "type": "function"
    },
    {
      "inputs": [
        {
          "internalType": "address payable",
          "name": "_newOwnerID",
          "type": "address"
        }
      ],
      "name": "setOwnerID",
      "outputs": [],
      "stateMutability": "nonpayable",
      "type": "function"
    },
    {
      "inputs": [
        {
          "internalType": "address",
          "name": "_laboratoryID",
          "type": "address"
        }
      ],
      "name": "authorizeLab",
      "outputs": [],
      "stateMutability": "nonpayable",
      "type": "function"
    },
    {
      "inputs": [
        {
          "internalType": "address",
          "name": "_custodianID",
          "type": "address"
        }
      ],
      "name": "authorizeCustodian",
      "outputs": [],
      "stateMutability": "nonpayable",
      "type": "function"
    },
    {
      "inputs": [
        {
          "internalType": "address",
          "name": "_manufacturerID",
          "type": "address"
        }
      ],
      "name": "setManufacturerID",
      "outputs": [],
      "stateMutability": "nonpayable",
      "type": "function"
    },
    {
      "inputs": [
        {
          "internalType": "address",
          "name": "_customerID",
          "type": "address"
        }
      ],
      "name": "setCustomerID",
      "outputs": [],
      "stateMutability": "nonpayable",
      "type": "function"
    },
    {
      "inputs": [],
      "name": "getSku",
      "outputs": [
        {
          "internalType": "uint256",
          "name": "",
          "type": "uint256"
        }
      ],
      "stateMutability": "view",
      "type": "function",
      "constant": true
    },
    {
      "inputs": [],
      "name": "getUpc",
      "outputs": [
        {
          "internalType": "uint256",
          "name": "",
          "type": "uint256"
        }
      ],
      "stateMutability": "view",
      "type": "function",
      "constant": true
    },
    {
      "inputs": [],
      "name": "getProductID",
      "outputs": [
        {
          "internalType": "uint256",
          "name": "",
          "type": "uint256"
        }
      ],
      "stateMutability": "view",
      "type": "function",
      "constant": true
    },
    {
      "inputs": [],
      "name": "getOwnerID",
      "outputs": [
        {
          "internalType": "address",
          "name": "",
          "type": "address"
        }
      ],
      "stateMutability": "view",
      "type": "function",
      "constant": true
    },
    {
      "inputs": [],
      "name": "getOriginMinerID",
      "outputs": [
        {
          "internalType": "address payable",
          "name": "",
          "type": "address"
        }
      ],
      "stateMutability": "view",
      "type": "function",
      "constant": true
    },
    {
      "inputs": [],
      "name": "getMarketPrice",
      "outputs": [
        {
          "internalType": "uint256",
          "name": "",
          "type": "uint256"
        }
      ],
      "stateMutability": "view",
      "type": "function",
      "constant": true
    },
    {
      "inputs": [
        {
          "internalType": "uint256",
          "name": "_marketPrice",
          "type": "uint256"
        }
      ],
      "name": "setMarketPrice",
      "outputs": [],
      "stateMutability": "nonpayable",
      "type": "function"
    },
    {
      "inputs": [],
      "name": "getCustomerID",
      "outputs": [
        {
          "internalType": "address",
          "name": "",
          "type": "address"
        }
      ],
      "stateMutability": "view",
      "type": "function",
      "constant": true
    },
    {
      "inputs": [],
      "name": "getCustodianID",
      "outputs": [
        {
          "internalType": "address",
          "name": "",
          "type": "address"
        }
      ],
      "stateMutability": "view",
      "type": "function",
      "constant": true
    },
    {
      "inputs": [],
      "name": "getLaboratoryID",
      "outputs": [
        {
          "internalType": "address",
          "name": "",
          "type": "address"
        }
      ],
      "stateMutability": "view",
      "type": "function",
      "constant": true
    },
    {
      "inputs": [],
      "name": "getManufacturerID",
      "outputs": [
        {
          "internalType": "address",
          "name": "",
          "type": "address"
        }
      ],
      "stateMutability": "view",
      "type": "function",
      "constant": true
    },
    {
      "inputs": [],
      "name": "getEmeraldState",
      "outputs": [
        {
          "internalType": "enum EmeraldStates.State",
          "name": "",
          "type": "uint8"
        }
      ],
      "stateMutability": "view",
      "type": "function",
      "constant": true
    },
    {
      "inputs": [],
      "name": "getMineName",
      "outputs": [
        {
          "internalType": "string",
          "name": "",
          "type": "string"
        }
      ],
      "stateMutability": "view",
      "type": "function",
      "constant": true
    },
    {
      "inputs": [],
      "name": "getMineInformation",
      "outputs": [
        {
          "internalType": "string",
          "name": "",
          "type": "string"
        }
      ],
      "stateMutability": "view",
      "type": "function",
      "constant": true
    },
    {
      "inputs": [],
      "name": "getMineLatitude",
      "outputs": [
        {
          "internalType": "string",
          "name": "",
          "type": "string"
        }
      ],
      "stateMutability": "view",
      "type": "function",
      "constant": true
    },
    {
      "inputs": [],
      "name": "getMineLongitude",
      "outputs": [
        {
          "internalType": "string",
          "name": "",
          "type": "string"
        }
      ],
      "stateMutability": "view",
      "type": "function",
      "constant": true
    },
    {
      "inputs": [],
      "name": "getBasicInfo",
      "outputs": [
        {
          "internalType": "bytes",
          "name": "",
          "type": "bytes"
        }
      ],
      "stateMutability": "view",
      "type": "function",
      "constant": true
    },
    {
      "inputs": [],
      "name": "getDetailedInfo",
      "outputs": [
        {
          "internalType": "bytes",
          "name": "",
          "type": "bytes"
        }
      ],
      "stateMutability": "view",
      "type": "function",
      "constant": true
    }
  ],
  "bytecode": "0x608060405234801561001057600080fd5b50610c4e806100206000396000f3fe608060405234801561001057600080fd5b50600436106101c45760003560e01c80639f999da3116100f9578063d47d02d811610097578063e4729f2011610071578063e4729f20146103cc578063ee8c834b146103d4578063f2b34d2c146103e7578063f960278d1461041757600080fd5b8063d47d02d814610378578063e0e6d75614610389578063e2c737d7146103b957600080fd5b8063b380b202116100d3578063b380b2021461033b578063b53fbe6b1461034e578063c33955681461035f578063ca0a9b311461037057600080fd5b80639f999da31461030f578063a50eeba914610317578063b0a742b01461032a57600080fd5b806353d7483611610166578063686690e611610140578063686690e6146102db57806368c2014b146102e3578063748d02ea146102f65780639d791887146102fe57600080fd5b806353d74836146102a65780635499b035146102cb578063660e16c3146102d357600080fd5b80632041d8cc116101a25780632041d8cc14610249578063372d5e4514610251578063460f7ed314610281578063525cefae1461029457600080fd5b806313674e5b146101c957806317cd611b146101fb5780631b1a22d314610219575b600080fd5b6101f96101d7366004610697565b601180546001600160a01b0319166001600160a01b0392909216919091179055565b005b61020361042a565b6040516102109190610701565b60405180910390f35b6101f9610227366004610697565b600f80546001600160a01b0319166001600160a01b0392909216919091179055565b6102036104bc565b6101f961025f366004610697565b600380546001600160a01b0319166001600160a01b0392909216919091179055565b6101f961028f3660046107c7565b6104cb565b6008545b604051908152602001610210565b6011546001600160a01b03165b6040516001600160a01b039091168152602001610210565b600154610298565b600d54610298565b600054610298565b6101f96102f13660046107c7565b6104db565b6102036104e7565b600f546001600160a01b03166102b3565b6102036104f6565b6101f9610325366004610804565b610541565b6002546001600160a01b03166102b3565b6101f96103493660046108d5565b600d55565b600e546001600160a01b03166102b3565b6010546001600160a01b03166102b3565b6102036105eb565b6003546001600160a01b03166102b3565b6101f9610397366004610697565b601080546001600160a01b0319166001600160a01b0392909216919091179055565b6101f96103c73660046108ee565b61063d565b610203610664565b60095460ff166040516102109190610947565b6101f96103f5366004610697565b600e80546001600160a01b0319166001600160a01b0392909216919091179055565b6101f96104253660046107c7565b610673565b6060600680546104399061095b565b80601f01602080910402602001604051908101604052809291908181526020018280546104659061095b565b80156104b25780601f10610487576101008083540402835291602001916104b2565b820191906000526020600020905b81548152906001019060200180831161049557829003601f168201915b5050505050905090565b6060600480546104399061095b565b600b6104d782826109e4565b5050565b600c6104d782826109e4565b6060600580546104399061095b565b60005460015460035460405160609361052d93909290916001600160a01b0390911690600490600590600690600790602001610b21565b604051602081830303815290604052905090565b60008790556001869055600380546001600160a01b0319166001600160a01b038716179055600461057285826109e4565b50600561057f84826109e4565b50600661058c83826109e4565b50600761059982826109e4565b506105a48688610b96565b60085550506009805460ff1916905550506000600d555050600e80546001600160a01b0319908116909155600f805482169055601080548216905560118054909116905550565b600054600154600854600d54600954600e54600f5460105460115460405160609961052d99909890979096909560ff909116946001600160a01b03918216949082169390821692911690602001610bb7565b6009805482919060ff1916600183601281111561065c5761065c61090f565b021790555050565b6060600780546104399061095b565b600a6104d782826109e4565b6001600160a01b038116811461069457600080fd5b50565b6000602082840312156106a957600080fd5b81356106b48161067f565b9392505050565b6000815180845260005b818110156106e1576020818501810151868301820152016106c5565b506000602082860101526020601f19601f83011685010191505092915050565b6020815260006106b460208301846106bb565b803561071f8161067f565b919050565b634e487b7160e01b600052604160045260246000fd5b600082601f83011261074b57600080fd5b813567ffffffffffffffff8082111561076657610766610724565b604051601f8301601f19908116603f0116810190828211818310171561078e5761078e610724565b816040528381528660208588010111156107a757600080fd5b836020870160208301376000602085830101528094505050505092915050565b6000602082840312156107d957600080fd5b813567ffffffffffffffff8111156107f057600080fd5b6107fc8482850161073a565b949350505050565b600080600080600080600060e0888a03121561081f57600080fd5b873596506020880135955061083660408901610714565b9450606088013567ffffffffffffffff8082111561085357600080fd5b61085f8b838c0161073a565b955060808a013591508082111561087557600080fd5b6108818b838c0161073a565b945060a08a013591508082111561089757600080fd5b6108a38b838c0161073a565b935060c08a01359150808211156108b957600080fd5b506108c68a828b0161073a565b91505092959891949750929550565b6000602082840312156108e757600080fd5b5035919050565b60006020828403121561090057600080fd5b8135601381106106b457600080fd5b634e487b7160e01b600052602160045260246000fd5b6013811061094357634e487b7160e01b600052602160045260246000fd5b9052565b602081016109558284610925565b92915050565b600181811c9082168061096f57607f821691505b60208210810361098f57634e487b7160e01b600052602260045260246000fd5b50919050565b601f8211156109df57600081815260208120601f850160051c810160208610156109bc5750805b601f850160051c820191505b818110156109db578281556001016109c8565b5050505b505050565b815167ffffffffffffffff8111156109fe576109fe610724565b610a1281610a0c845461095b565b84610995565b602080601f831160018114610a475760008415610a2f5750858301515b600019600386901b1c1916600185901b1785556109db565b600085815260208120601f198616915b82811015610a7657888601518255948401946001909101908401610a57565b5085821015610a945787850151600019600388901b60f8161c191681555b5050505050600190811b01905550565b60008154610ab18161095b565b808552602060018381168015610ace5760018114610ae857610b16565b60ff1985168884015283151560051b880183019550610b16565b866000528260002060005b85811015610b0e5781548a8201860152908301908401610af3565b890184019650505b505050505092915050565b87815286602082015260018060a01b038616604082015260e060608201526000610b4e60e0830187610aa4565b8281036080840152610b608187610aa4565b905082810360a0840152610b748186610aa4565b905082810360c0840152610b888185610aa4565b9a9950505050505050505050565b8082018082111561095557634e487b7160e01b600052601160045260246000fd5b6000610120820190508a8252896020830152886040830152876060830152610be26080830188610925565b6001600160a01b0395861660a083015293851660c082015291841660e0830152909216610100909201919091529594505050505056fea26469706673582212209ce7994816500f8c7151a2b3e63d4a8dd4d0a4812bfe3a3797e03a0177d6749564736f6c63430008130033",
  "immutableReferences": {},
  "source": "// SPDX-License-Identifier: MIT\npragma solidity ^0.8.10;\n\nimport \"./EmeraldProperties.sol\";\nimport \"./EmeraldStates.sol\";\n\ncontract Emerald {\n    uint256 sku;\n    uint256 upc;\n    address ownerID;\n    address payable originMinerID;\n    string originMineName;\n    string originMineInformation;\n    string originMineLatitude;\n    string originMineLongitude;\n    uint256 productID;\n    EmeraldStates.State emeraldState;\n    string scaleInfo;\n    string certifiedProperties;\n    string manufactureInfo;\n    uint256 marketPrice;\n    address laboratoryID;\n    address  custodianID;\n    address  manufacturerID;\n    address  customerID;\n\n    constructor() {}\n\n    function setExtractionInfo(\n        uint256 _sku,\n        uint256 _upc,\n        address payable _originMinerID,\n        string memory _originMineName,\n        string memory _originMineInformation,\n        string memory _originMineLatitude,\n        string memory _originMineLongitude\n    ) public {\n        sku = _sku;\n        upc = _upc;\n        originMinerID = _originMinerID;\n        originMineName = _originMineName;\n        originMineInformation = _originMineInformation;\n        originMineLatitude = _originMineLatitude;\n        originMineLongitude = _originMineLongitude;\n        productID =_sku + _upc;\n        emeraldState = EmeraldStates.State.Mined;\n        marketPrice = 0;\n        laboratoryID = address(0);\n        custodianID = address(0);\n         manufacturerID = address(0);\n        customerID = address(0);\n    }\n\n    function setScaleInfo(string memory _scaleInfo) public {\n        scaleInfo = _scaleInfo;\n    }\n\n    function setCertifiedInfo(string memory _certifiedProperties) public {\n        certifiedProperties = _certifiedProperties;\n    }\n\n    function setManufactureInfo(string memory _manufactureInfo) public {\n        manufactureInfo = _manufactureInfo;\n    }\n\n    function setEmeraldState(EmeraldStates.State _state) public {\n        emeraldState = _state;\n    }\n\n    function setOwnerID(address payable _newOwnerID) public {\n        originMinerID = _newOwnerID;\n    }\n\n    function authorizeLab(address _laboratoryID) public {\n        laboratoryID = _laboratoryID;\n    }\n\n    function authorizeCustodian(address _custodianID) public {\n        custodianID = _custodianID;\n    }\n\n    function setManufacturerID(address _manufacturerID) public {\n        manufacturerID = _manufacturerID;\n    }\n\n    function setCustomerID(address _customerID) public {\n        customerID = _customerID;\n    }\n\n    function getSku() public view returns (uint256) {\n        return sku;\n    }\n\n    function getUpc() public view returns (uint256) {\n        return upc;\n    }\n\n    function getProductID() public view returns (uint256) {\n        return productID;\n    }\n\n    function getOwnerID() public view returns (address) {\n        return ownerID;\n    }\n\n    function getOriginMinerID() public view returns (address payable) {\n        return originMinerID;\n    }\n\n    function getMarketPrice() public view returns (uint256) {\n        return marketPrice;\n    }\n\n    function setMarketPrice(uint256 _marketPrice) public {\n        marketPrice = _marketPrice;\n    }\n\n    function getCustomerID() public view returns (address ) {\n        return customerID;\n    }\n\n    function getCustodianID() public view returns (address) {\n        return custodianID;\n    }\n\n    function getLaboratoryID() public view returns (address) {\n        return laboratoryID;\n    }\n\n    function getManufacturerID() public view returns (address ) {\n        return manufacturerID;\n    }\n\n    function getEmeraldState() public view returns (EmeraldStates.State) {\n        return emeraldState;\n    }\n\n    function getMineName() public view returns (string memory) {\n        return originMineName;\n    }\n\n    function getMineInformation() public view returns (string memory) {\n        return originMineInformation;\n    }\n\n    function getMineLatitude() public view returns (string memory) {\n        return originMineLatitude;\n    }\n\n    function getMineLongitude() public view returns (string memory) {\n        return originMineLongitude;\n    }\n\n    function getBasicInfo() public view returns (bytes memory) {\n        return\n            abi.encode(\n                sku,\n                upc,\n                originMinerID,\n                originMineName,\n                originMineInformation,\n                originMineLatitude,\n                originMineLongitude\n            );\n    }\n\n    function getDetailedInfo() public view returns (bytes memory) {\n        return\n            abi.encode(\n                sku,\n                upc,\n                productID,\n                marketPrice,\n                emeraldState,\n                laboratoryID,\n                custodianID,\n                manufacturerID,\n                customerID\n            );\n    }\n}\n",
  "sourcePath": "/Users/mac/Desktop/GoldTracker/src/contracts/emeraldbase/Emerald.sol",
  "compiler": {
    "name": "solc",
    "version": "0.8.19+commit.7dd6d404.Emscripten.clang"
  },
  "schemaVersion": "3.4.16",
  "updatedAt": "2024-05-28T12:55:02.301Z",
  "networkType": "ethereum",
  "devdoc": {
    "kind": "dev",
    "methods": {},
    "version": 1
  },
  "userdoc": {
    "kind": "user",
    "methods": {},
    "version": 1
  }
}