{
  "contractName": "Emerald",
  "abi": [
    {
      "inputs": [],
      "stateMutability": "nonpayable",
      "type": "constructor"
    },
    {
      "inputs": [
        {
          "internalType": "uint256",
          "name": "_sku",
          "type": "uint256"
        },
        {
          "internalType": "uint256",
          "name": "_upc",
          "type": "uint256"
        },
        {
          "internalType": "address payable",
          "name": "_ownerID",
          "type": "address"
        },
        {
          "internalType": "address payable",
          "name": "_originMinerID",
          "type": "address"
        },
        {
          "internalType": "string",
          "name": "_originMineName",
          "type": "string"
        },
        {
          "internalType": "string",
          "name": "_originMineInformation",
          "type": "string"
        },
        {
          "internalType": "string",
          "name": "_originMineLatitude",
          "type": "string"
        },
        {
          "internalType": "string",
          "name": "_originMineLongitude",
          "type": "string"
        }
      ],
      "name": "setExtractionInfo",
      "outputs": [],
      "stateMutability": "nonpayable",
      "type": "function"
    },
    {
      "inputs": [
        {
          "internalType": "string",
          "name": "_scaleInfo",
          "type": "string"
        }
      ],
      "name": "setScaleInfo",
      "outputs": [],
      "stateMutability": "nonpayable",
      "type": "function"
    },
    {
      "inputs": [
        {
          "internalType": "string",
          "name": "_certifiedProperties",
          "type": "string"
        }
      ],
      "name": "setCertifiedInfo",
      "outputs": [],
      "stateMutability": "nonpayable",
      "type": "function"
    },
    {
      "inputs": [
        {
          "internalType": "string",
          "name": "_manufactureInfo",
          "type": "string"
        }
      ],
      "name": "setManufactureInfo",
      "outputs": [],
      "stateMutability": "nonpayable",
      "type": "function"
    },
    {
      "inputs": [
        {
          "internalType": "enum EmeraldStates.State",
          "name": "_state",
          "type": "uint8"
        }
      ],
      "name": "setEmeraldState",
      "outputs": [],
      "stateMutability": "nonpayable",
      "type": "function"
    },
    {
      "inputs": [
        {
          "internalType": "address payable",
          "name": "_newOwnerID",
          "type": "address"
        }
      ],
      "name": "setOwnerID",
      "outputs": [],
      "stateMutability": "nonpayable",
      "type": "function"
    },
    {
      "inputs": [
        {
          "internalType": "address payable",
          "name": "_minerID",
          "type": "address"
        }
      ],
      "name": "setMinerID",
      "outputs": [],
      "stateMutability": "nonpayable",
      "type": "function"
    },
    {
      "inputs": [
        {
          "internalType": "address payable",
          "name": "_laboratoryID",
          "type": "address"
        }
      ],
      "name": "authorizeLab",
      "outputs": [],
      "stateMutability": "nonpayable",
      "type": "function"
    },
    {
      "inputs": [
        {
          "internalType": "address payable",
          "name": "_custodianID",
          "type": "address"
        }
      ],
      "name": "authorizeCustodian",
      "outputs": [],
      "stateMutability": "nonpayable",
      "type": "function"
    },
    {
      "inputs": [
        {
          "internalType": "address payable",
          "name": "_manufacturerID",
          "type": "address"
        }
      ],
      "name": "setManufacturerID",
      "outputs": [],
      "stateMutability": "nonpayable",
      "type": "function"
    },
    {
      "inputs": [
        {
          "internalType": "address payable",
          "name": "_customerID",
          "type": "address"
        }
      ],
      "name": "setCustomerID",
      "outputs": [],
      "stateMutability": "nonpayable",
      "type": "function"
    },
    {
      "inputs": [],
      "name": "getSku",
      "outputs": [
        {
          "internalType": "uint256",
          "name": "",
          "type": "uint256"
        }
      ],
      "stateMutability": "view",
      "type": "function"
    },
    {
      "inputs": [],
      "name": "getUpc",
      "outputs": [
        {
          "internalType": "uint256",
          "name": "",
          "type": "uint256"
        }
      ],
      "stateMutability": "view",
      "type": "function"
    },
    {
      "inputs": [],
      "name": "getProductID",
      "outputs": [
        {
          "internalType": "uint256",
          "name": "",
          "type": "uint256"
        }
      ],
      "stateMutability": "view",
      "type": "function"
    },
    {
      "inputs": [],
      "name": "getOwnerID",
      "outputs": [
        {
          "internalType": "address payable",
          "name": "",
          "type": "address"
        }
      ],
      "stateMutability": "view",
      "type": "function"
    },
    {
      "inputs": [],
      "name": "getOriginMinerID",
      "outputs": [
        {
          "internalType": "address payable",
          "name": "",
          "type": "address"
        }
      ],
      "stateMutability": "view",
      "type": "function"
    },
    {
      "inputs": [],
      "name": "getMarketPrice",
      "outputs": [
        {
          "internalType": "uint256",
          "name": "",
          "type": "uint256"
        }
      ],
      "stateMutability": "view",
      "type": "function"
    },
    {
      "inputs": [
        {
          "internalType": "uint256",
          "name": "_marketPrice",
          "type": "uint256"
        }
      ],
      "name": "setMarketPrice",
      "outputs": [],
      "stateMutability": "nonpayable",
      "type": "function"
    },
    {
      "inputs": [],
      "name": "getCustomerID",
      "outputs": [
        {
          "internalType": "address payable",
          "name": "",
          "type": "address"
        }
      ],
      "stateMutability": "view",
      "type": "function"
    },
    {
      "inputs": [],
      "name": "getCustodianID",
      "outputs": [
        {
          "internalType": "address payable",
          "name": "",
          "type": "address"
        }
      ],
      "stateMutability": "view",
      "type": "function"
    },
    {
      "inputs": [],
      "name": "getLaboratoryID",
      "outputs": [
        {
          "internalType": "address payable",
          "name": "",
          "type": "address"
        }
      ],
      "stateMutability": "view",
      "type": "function"
    },
    {
      "inputs": [],
      "name": "getManufacturerID",
      "outputs": [
        {
          "internalType": "address payable",
          "name": "",
          "type": "address"
        }
      ],
      "stateMutability": "view",
      "type": "function"
    },
    {
      "inputs": [],
      "name": "getEmeraldState",
      "outputs": [
        {
          "internalType": "enum EmeraldStates.State",
          "name": "",
          "type": "uint8"
        }
      ],
      "stateMutability": "view",
      "type": "function"
    },
    {
      "inputs": [],
      "name": "getMineName",
      "outputs": [
        {
          "internalType": "string",
          "name": "",
          "type": "string"
        }
      ],
      "stateMutability": "view",
      "type": "function"
    },
    {
      "inputs": [],
      "name": "getMineInformation",
      "outputs": [
        {
          "internalType": "string",
          "name": "",
          "type": "string"
        }
      ],
      "stateMutability": "view",
      "type": "function"
    },
    {
      "inputs": [],
      "name": "getMineLatitude",
      "outputs": [
        {
          "internalType": "string",
          "name": "",
          "type": "string"
        }
      ],
      "stateMutability": "view",
      "type": "function"
    },
    {
      "inputs": [],
      "name": "getMineLongitude",
      "outputs": [
        {
          "internalType": "string",
          "name": "",
          "type": "string"
        }
      ],
      "stateMutability": "view",
      "type": "function"
    },
    {
      "inputs": [],
      "name": "getBasicInfo",
      "outputs": [
        {
          "internalType": "bytes",
          "name": "",
          "type": "bytes"
        }
      ],
      "stateMutability": "view",
      "type": "function"
    },
    {
      "inputs": [],
      "name": "getDetailedInfo",
      "outputs": [
        {
          "internalType": "bytes",
          "name": "",
          "type": "bytes"
        }
      ],
      "stateMutability": "view",
      "type": "function"
    }
  ],
  "bytecode": "0x608060405234801561001057600080fd5b50610c9f806100206000396000f3fe608060405234801561001057600080fd5b50600436106101cf5760003560e01c80639d79188711610104578063ca0a9b31116100a2578063e4729f2011610071578063e4729f2014610407578063ee8c834b1461040f578063f2b34d2c14610422578063f960278d1461045257600080fd5b8063ca0a9b31146103ab578063d47d02d8146103b3578063e0e6d756146103c4578063e2c737d7146103f457600080fd5b8063b0a742b0116100de578063b0a742b014610365578063b380b20214610376578063b53fbe6b14610389578063c33955681461039a57600080fd5b80639d7918871461031c5780639f999da31461032d578063acbe50cd1461033557600080fd5b8063525cefae11610171578063660e16c31161014b578063660e16c3146102f1578063686690e6146102f957806368c2014b14610301578063748d02ea1461031457600080fd5b8063525cefae146102b257806353d74836146102c45780635499b035146102e957600080fd5b80632041d8cc116101ad5780632041d8cc14610254578063372d5e451461025c578063392389d91461028c578063460f7ed31461029f57600080fd5b806313674e5b146101d457806317cd611b146102065780631b1a22d314610224575b600080fd5b6102046101e23660046107b8565b601180546001600160a01b0319166001600160a01b0392909216919091179055565b005b61020e610465565b60405161021b9190610827565b60405180910390f35b6102046102323660046107b8565b600f80546001600160a01b0319166001600160a01b0392909216919091179055565b61020e6104f7565b61020461026a3660046107b8565b600280546001600160a01b0319166001600160a01b0392909216919091179055565b61020461029a3660046108dd565b610506565b6102046102ad3660046109bf565b6105e2565b6008545b60405190815260200161021b565b6011546001600160a01b03165b6040516001600160a01b03909116815260200161021b565b6001546102b6565b600d546102b6565b6000546102b6565b61020461030f3660046109bf565b6105f9565b61020e61060c565b600f546001600160a01b03166102d1565b61020e61061b565b6102046103433660046107b8565b600380546001600160a01b0319166001600160a01b0392909216919091179055565b6002546001600160a01b03166102d1565b6102046103843660046109fc565b600d55565b600e546001600160a01b03166102d1565b6010546001600160a01b03166102d1565b61020e61066c565b6003546001600160a01b03166102d1565b6102046103d23660046107b8565b601080546001600160a01b0319166001600160a01b0392909216919091179055565b610204610402366004610a15565b6106be565b61020e6106e5565b60095460ff1660405161021b9190610a6e565b6102046104303660046107b8565b600e80546001600160a01b0319166001600160a01b0392909216919091179055565b6102046104603660046109bf565b6106f4565b60606006805461047490610a82565b80601f01602080910402602001604051908101604052809291908181526020018280546104a090610a82565b80156104ed5780601f106104c2576101008083540402835291602001916104ed565b820191906000526020600020905b8154815290600101906020018083116104d057829003601f168201915b5050505050905090565b60606004805461047490610a82565b60008890556001879055600280546001600160a01b038089166001600160a01b03199283161790925560038054928816929091169190911790558351610553906004906020870190610703565b508251610567906005906020860190610703565b50815161057b906006906020850190610703565b50805161058f906007906020840190610703565b5061059a8789610abd565b60085550506009805460ff1916905550506000600d555050600e80546001600160a01b0319908116909155600f80548216905560108054821690556011805490911690555050565b80516105f590600b906020840190610703565b5050565b80516105f590600c906020840190610703565b60606005805461047490610a82565b60005460015460025460035460405160609461065894909390926001600160a01b0391821692911690600490600590600690600790602001610b83565b604051602081830303815290604052905090565b600054600154600854600d54600954600e54600f5460105460115460405160609961065899909890979096909560ff909116946001600160a01b03918216949082169390821692911690602001610c08565b6009805482919060ff191660018360128111156106dd576106dd610a36565b021790555050565b60606007805461047490610a82565b80516105f590600a9060208401905b82805461070f90610a82565b90600052602060002090601f0160209004810192826107315760008555610777565b82601f1061074a57805160ff1916838001178555610777565b82800160010185558215610777579182015b8281111561077757825182559160200191906001019061075c565b50610783929150610787565b5090565b5b808211156107835760008155600101610788565b80356001600160a01b03811681146107b357600080fd5b919050565b6000602082840312156107ca57600080fd5b6107d38261079c565b9392505050565b6000815180845260005b81811015610800576020818501810151868301820152016107e4565b81811115610812576000602083870101525b50601f01601f19169290920160200192915050565b6020815260006107d360208301846107da565b634e487b7160e01b600052604160045260246000fd5b600082601f83011261086157600080fd5b813567ffffffffffffffff8082111561087c5761087c61083a565b604051601f8301601f19908116603f011681019082821181831017156108a4576108a461083a565b816040528381528660208588010111156108bd57600080fd5b836020870160208301376000602085830101528094505050505092915050565b600080600080600080600080610100898b0312156108fa57600080fd5b883597506020890135965061091160408a0161079c565b955061091f60608a0161079c565b9450608089013567ffffffffffffffff8082111561093c57600080fd5b6109488c838d01610850565b955060a08b013591508082111561095e57600080fd5b61096a8c838d01610850565b945060c08b013591508082111561098057600080fd5b61098c8c838d01610850565b935060e08b01359150808211156109a257600080fd5b506109af8b828c01610850565b9150509295985092959890939650565b6000602082840312156109d157600080fd5b813567ffffffffffffffff8111156109e857600080fd5b6109f484828501610850565b949350505050565b600060208284031215610a0e57600080fd5b5035919050565b600060208284031215610a2757600080fd5b8135601381106107d357600080fd5b634e487b7160e01b600052602160045260246000fd5b60138110610a6a57634e487b7160e01b600052602160045260246000fd5b9052565b60208101610a7c8284610a4c565b92915050565b600181811c90821680610a9657607f821691505b60208210811415610ab757634e487b7160e01b600052602260045260246000fd5b50919050565b60008219821115610ade57634e487b7160e01b600052601160045260246000fd5b500190565b8054600090600181811c9080831680610afd57607f831692505b6020808410821415610b1f57634e487b7160e01b600052602260045260246000fd5b83885260208801828015610b3a5760018114610b4b57610b76565b60ff19871682528282019750610b76565b60008981526020902060005b87811015610b7057815484820152908601908401610b57565b83019850505b5050505050505092915050565b888152602081018890526001600160a01b0387811660408301528616606082015261010060808201819052600090610bbd83820188610ae3565b905082810360a0840152610bd18187610ae3565b905082810360c0840152610be58186610ae3565b905082810360e0840152610bf98185610ae3565b9b9a5050505050505050505050565b6000610120820190508a8252896020830152886040830152876060830152610c336080830188610a4c565b6001600160a01b0395861660a083015293851660c082015291841660e0830152909216610100909201919091529594505050505056fea2646970667358221220a2dce65bd3332ff95f3dcf6902dae2fa93b4b7a9d32c3ba73bfebb41633d7a3264736f6c634300080a0033",
  "immutableReferences": {},
  "source": "// SPDX-License-Identifier: MIT\r\npragma solidity ^0.8.10;\r\n\r\n\r\nimport \"./EmeraldStates.sol\";\r\n\r\ncontract Emerald {\r\n    uint256 sku;\r\n    uint256 upc;\r\n    address payable ownerID;\r\n    address payable originMinerID;\r\n    string originMineName;\r\n    string originMineInformation;\r\n    string originMineLatitude;\r\n    string originMineLongitude;\r\n    uint256 productID;\r\n    EmeraldStates.State emeraldState;\r\n    string scaleInfo;\r\n    string certifiedProperties;\r\n    string manufactureInfo;\r\n    uint256 marketPrice;\r\n    address payable laboratoryID;\r\n    address payable custodianID;\r\n    address payable manufacturerID;\r\n    address payable customerID;\r\n\r\n    constructor() {}\r\n\r\n    function setExtractionInfo(\r\n        uint256 _sku,\r\n        uint256 _upc,\r\n        address payable _ownerID,\r\n        address payable _originMinerID,\r\n        string memory _originMineName,\r\n        string memory _originMineInformation,\r\n        string memory _originMineLatitude,\r\n        string memory _originMineLongitude\r\n    ) public {\r\n        sku = _sku;\r\n        upc = _upc;\r\n        ownerID = _ownerID;\r\n        originMinerID = _originMinerID;\r\n        originMineName = _originMineName;\r\n        originMineInformation = _originMineInformation;\r\n        originMineLatitude = _originMineLatitude;\r\n        originMineLongitude = _originMineLongitude;\r\n        productID =_sku + _upc;\r\n        emeraldState = EmeraldStates.State.Mined;\r\n        marketPrice = 0;\r\n        laboratoryID = payable(address(0));\r\n        custodianID = payable(address(0));\r\n        manufacturerID = payable(address(0));\r\n        customerID = payable(address(0));\r\n    }\r\n\r\n    function setScaleInfo(string memory _scaleInfo) public {\r\n        scaleInfo = _scaleInfo;\r\n        \r\n    }\r\n\r\n    function setCertifiedInfo(string memory _certifiedProperties) public {\r\n        certifiedProperties = _certifiedProperties;\r\n    }\r\n\r\n    function setManufactureInfo(string memory _manufactureInfo) public {\r\n        manufactureInfo = _manufactureInfo;\r\n    }\r\n\r\n    function setEmeraldState(EmeraldStates.State _state) public {\r\n        emeraldState = _state;\r\n    }\r\n\r\n    function setOwnerID(address payable _newOwnerID) public {\r\n        ownerID = _newOwnerID;\r\n    }\r\n\r\n    function setMinerID(address payable _minerID) public {\r\n        originMinerID = _minerID;\r\n    }\r\n    function authorizeLab(address payable _laboratoryID) public {\r\n        laboratoryID = _laboratoryID;\r\n    }\r\n\r\n    function authorizeCustodian(address  payable _custodianID) public {\r\n        custodianID = _custodianID;\r\n    }\r\n\r\n    function setManufacturerID(address payable _manufacturerID) public {\r\n        manufacturerID = _manufacturerID;\r\n    }\r\n\r\n    function setCustomerID(address payable _customerID) public {\r\n        customerID = _customerID;\r\n    }\r\n\r\n    function getSku() public view returns (uint256) {\r\n        return sku;\r\n    }\r\n\r\n    function getUpc() public view returns (uint256) {\r\n        return upc;\r\n    }\r\n\r\n    function getProductID() public view returns (uint256) {\r\n        return productID;\r\n    }\r\n\r\n    function getOwnerID() public view returns (address payable) {\r\n        return ownerID;\r\n    }\r\n\r\n    function getOriginMinerID() public view returns (address payable) {\r\n        return originMinerID;\r\n    }\r\n\r\n    function getMarketPrice() public view returns (uint256) {\r\n        return marketPrice;\r\n    }\r\n\r\n    function setMarketPrice(uint256 _marketPrice) public {\r\n        marketPrice = _marketPrice;\r\n    }\r\n\r\n    function getCustomerID() public view returns (address payable) {\r\n        return customerID;\r\n    }\r\n\r\n    function getCustodianID() public view returns (address payable) {\r\n        return custodianID;\r\n    }\r\n\r\n    function getLaboratoryID() public view returns (address payable) {\r\n        return laboratoryID;\r\n    }\r\n\r\n    function getManufacturerID() public view returns (address payable) {\r\n        return manufacturerID;\r\n    }\r\n\r\n    function getEmeraldState() public view returns (EmeraldStates.State) {\r\n        return emeraldState;\r\n    }\r\n\r\n    function getMineName() public view returns (string memory) {\r\n        return originMineName;\r\n    }\r\n\r\n    function getMineInformation() public view returns (string memory) {\r\n        return originMineInformation;\r\n    }\r\n\r\n    function getMineLatitude() public view returns (string memory) {\r\n        return originMineLatitude;\r\n    }\r\n\r\n    function getMineLongitude() public view returns (string memory) {\r\n        return originMineLongitude;\r\n    }\r\n\r\n    function getBasicInfo() public view returns (bytes memory) {\r\n        return\r\n            abi.encode(\r\n                sku,\r\n                upc,\r\n                ownerID,\r\n                originMinerID,\r\n                originMineName,\r\n                originMineInformation,\r\n                originMineLatitude,\r\n                originMineLongitude\r\n            );\r\n    }\r\n\r\n    function getDetailedInfo() public view returns (bytes memory) {\r\n        return\r\n            abi.encode(\r\n                sku,\r\n                upc,\r\n                productID,\r\n                marketPrice,\r\n                emeraldState,\r\n                laboratoryID,\r\n                custodianID,\r\n                manufacturerID,\r\n                customerID\r\n            );\r\n    }\r\n}\r\n",
  "sourcePath": "D:\\INE1\\S2\\SecurityProject2\\emeraldTracker\\src\\contracts\\emeraldbase\\Emerald.sol",
  "compiler": {
    "name": "solc",
    "version": "0.8.10+commit.fc410830.Emscripten.clang"
  },
  "schemaVersion": "3.4.16",
  "updatedAt": "2024-06-03T09:35:03.541Z",
  "devdoc": {
    "kind": "dev",
    "methods": {},
    "version": 1
  },
  "userdoc": {
    "kind": "user",
    "methods": {},
    "version": 1
  }
}