{
  "contractName": "Emerald",
  "abi": [
    {
      "inputs": [],
      "stateMutability": "nonpayable",
      "type": "constructor"
    },
    {
      "inputs": [
        {
          "internalType": "uint256",
          "name": "_sku",
          "type": "uint256"
        },
        {
          "internalType": "uint256",
          "name": "_upc",
          "type": "uint256"
        },
        {
          "internalType": "address payable",
          "name": "_originMinerID",
          "type": "address"
        },
        {
          "internalType": "string",
          "name": "_originMineName",
          "type": "string"
        },
        {
          "internalType": "string",
          "name": "_originMineInformation",
          "type": "string"
        },
        {
          "internalType": "string",
          "name": "_originMineLatitude",
          "type": "string"
        },
        {
          "internalType": "string",
          "name": "_originMineLongitude",
          "type": "string"
        }
      ],
      "name": "setExtractionInfo",
      "outputs": [],
      "stateMutability": "nonpayable",
      "type": "function"
    },
    {
      "inputs": [
        {
          "internalType": "string",
          "name": "_scaleInfo",
          "type": "string"
        }
      ],
      "name": "setScaleInfo",
      "outputs": [],
      "stateMutability": "nonpayable",
      "type": "function"
    },
    {
      "inputs": [
        {
          "internalType": "string",
          "name": "_certifiedProperties",
          "type": "string"
        }
      ],
      "name": "setCertifiedInfo",
      "outputs": [],
      "stateMutability": "nonpayable",
      "type": "function"
    },
    {
      "inputs": [
        {
          "internalType": "string",
          "name": "_manufactureInfo",
          "type": "string"
        }
      ],
      "name": "setManufactureInfo",
      "outputs": [],
      "stateMutability": "nonpayable",
      "type": "function"
    },
    {
      "inputs": [
        {
          "internalType": "enum EmeraldStates.State",
          "name": "_state",
          "type": "uint8"
        }
      ],
      "name": "setEmeraldState",
      "outputs": [],
      "stateMutability": "nonpayable",
      "type": "function"
    },
    {
      "inputs": [
        {
          "internalType": "address payable",
          "name": "_newOwnerID",
          "type": "address"
        }
      ],
      "name": "setOwnerID",
      "outputs": [],
      "stateMutability": "nonpayable",
      "type": "function"
    },
    {
      "inputs": [
        {
          "internalType": "address payable",
          "name": "_laboratoryID",
          "type": "address"
        }
      ],
      "name": "authorizeLab",
      "outputs": [],
      "stateMutability": "nonpayable",
      "type": "function"
    },
    {
      "inputs": [
        {
          "internalType": "address payable",
          "name": "_custodianID",
          "type": "address"
        }
      ],
      "name": "authorizeCustodian",
      "outputs": [],
      "stateMutability": "nonpayable",
      "type": "function"
    },
    {
      "inputs": [
        {
          "internalType": "address payable",
          "name": "_manufacturerID",
          "type": "address"
        }
      ],
      "name": "setManufacturerID",
      "outputs": [],
      "stateMutability": "nonpayable",
      "type": "function"
    },
    {
      "inputs": [
        {
          "internalType": "address payable",
          "name": "_customerID",
          "type": "address"
        }
      ],
      "name": "setCustomerID",
      "outputs": [],
      "stateMutability": "nonpayable",
      "type": "function"
    },
    {
      "inputs": [],
      "name": "getSku",
      "outputs": [
        {
          "internalType": "uint256",
          "name": "",
          "type": "uint256"
        }
      ],
      "stateMutability": "view",
      "type": "function"
    },
    {
      "inputs": [],
      "name": "getUpc",
      "outputs": [
        {
          "internalType": "uint256",
          "name": "",
          "type": "uint256"
        }
      ],
      "stateMutability": "view",
      "type": "function"
    },
    {
      "inputs": [],
      "name": "getProductID",
      "outputs": [
        {
          "internalType": "uint256",
          "name": "",
          "type": "uint256"
        }
      ],
      "stateMutability": "view",
      "type": "function"
    },
    {
      "inputs": [],
      "name": "getOwnerID",
      "outputs": [
        {
          "internalType": "address",
          "name": "",
          "type": "address"
        }
      ],
      "stateMutability": "view",
      "type": "function"
    },
    {
      "inputs": [],
      "name": "getOriginMinerID",
      "outputs": [
        {
          "internalType": "address payable",
          "name": "",
          "type": "address"
        }
      ],
      "stateMutability": "view",
      "type": "function"
    },
    {
      "inputs": [],
      "name": "getMarketPrice",
      "outputs": [
        {
          "internalType": "uint256",
          "name": "",
          "type": "uint256"
        }
      ],
      "stateMutability": "view",
      "type": "function"
    },
    {
      "inputs": [
        {
          "internalType": "uint256",
          "name": "_marketPrice",
          "type": "uint256"
        }
      ],
      "name": "setMarketPrice",
      "outputs": [],
      "stateMutability": "nonpayable",
      "type": "function"
    },
    {
      "inputs": [],
      "name": "getCustomerID",
      "outputs": [
        {
          "internalType": "address payable",
          "name": "",
          "type": "address"
        }
      ],
      "stateMutability": "view",
      "type": "function"
    },
    {
      "inputs": [],
      "name": "getCustodianID",
      "outputs": [
        {
          "internalType": "address payable",
          "name": "",
          "type": "address"
        }
      ],
      "stateMutability": "view",
      "type": "function"
    },
    {
      "inputs": [],
      "name": "getLaboratoryID",
      "outputs": [
        {
          "internalType": "address payable",
          "name": "",
          "type": "address"
        }
      ],
      "stateMutability": "view",
      "type": "function"
    },
    {
      "inputs": [],
      "name": "getManufacturerID",
      "outputs": [
        {
          "internalType": "address payable",
          "name": "",
          "type": "address"
        }
      ],
      "stateMutability": "view",
      "type": "function"
    },
    {
      "inputs": [],
      "name": "getEmeraldState",
      "outputs": [
        {
          "internalType": "enum EmeraldStates.State",
          "name": "",
          "type": "uint8"
        }
      ],
      "stateMutability": "view",
      "type": "function"
    },
    {
      "inputs": [],
      "name": "getMineName",
      "outputs": [
        {
          "internalType": "string",
          "name": "",
          "type": "string"
        }
      ],
      "stateMutability": "view",
      "type": "function"
    },
    {
      "inputs": [],
      "name": "getMineInformation",
      "outputs": [
        {
          "internalType": "string",
          "name": "",
          "type": "string"
        }
      ],
      "stateMutability": "view",
      "type": "function"
    },
    {
      "inputs": [],
      "name": "getMineLatitude",
      "outputs": [
        {
          "internalType": "string",
          "name": "",
          "type": "string"
        }
      ],
      "stateMutability": "view",
      "type": "function"
    },
    {
      "inputs": [],
      "name": "getMineLongitude",
      "outputs": [
        {
          "internalType": "string",
          "name": "",
          "type": "string"
        }
      ],
      "stateMutability": "view",
      "type": "function"
    },
    {
      "inputs": [],
      "name": "getBasicInfo",
      "outputs": [
        {
          "internalType": "bytes",
          "name": "",
          "type": "bytes"
        }
      ],
      "stateMutability": "view",
      "type": "function"
    },
    {
      "inputs": [],
      "name": "getDetailedInfo",
      "outputs": [
        {
          "internalType": "bytes",
          "name": "",
          "type": "bytes"
        }
      ],
      "stateMutability": "view",
      "type": "function"
    }
  ],
  "bytecode": "0x608060405234801561001057600080fd5b50610c27806100206000396000f3fe608060405234801561001057600080fd5b50600436106101c45760003560e01c80639f999da3116100f9578063d47d02d811610097578063e4729f2011610071578063e4729f20146103cc578063ee8c834b146103d4578063f2b34d2c146103e7578063f960278d1461041757600080fd5b8063d47d02d814610378578063e0e6d75614610389578063e2c737d7146103b957600080fd5b8063b380b202116100d3578063b380b2021461033b578063b53fbe6b1461034e578063c33955681461035f578063ca0a9b311461037057600080fd5b80639f999da31461030f578063a50eeba914610317578063b0a742b01461032a57600080fd5b806353d7483611610166578063686690e611610140578063686690e6146102db57806368c2014b146102e3578063748d02ea146102f65780639d791887146102fe57600080fd5b806353d74836146102a65780635499b035146102cb578063660e16c3146102d357600080fd5b80632041d8cc116101a25780632041d8cc14610249578063372d5e4514610251578063460f7ed314610281578063525cefae1461029457600080fd5b806313674e5b146101c957806317cd611b146101fb5780631b1a22d314610219575b600080fd5b6101f96101d7366004610761565b601180546001600160a01b0319166001600160a01b0392909216919091179055565b005b61020361042a565b60405161021091906107d0565b60405180910390f35b6101f9610227366004610761565b600f80546001600160a01b0319166001600160a01b0392909216919091179055565b6102036104bc565b6101f961025f366004610761565b600380546001600160a01b0319166001600160a01b0392909216919091179055565b6101f961028f366004610886565b6104cb565b6008545b604051908152602001610210565b6011546001600160a01b03165b6040516001600160a01b039091168152602001610210565b600154610298565b600d54610298565b600054610298565b6101f96102f1366004610886565b6104e2565b6102036104f5565b600f546001600160a01b03166102b3565b610203610504565b6101f96103253660046108c3565b61054f565b6002546001600160a01b03166102b3565b6101f9610349366004610994565b600d55565b600e546001600160a01b03166102b3565b6010546001600160a01b03166102b3565b610203610615565b6003546001600160a01b03166102b3565b6101f9610397366004610761565b601080546001600160a01b0319166001600160a01b0392909216919091179055565b6101f96103c73660046109ad565b610667565b61020361068e565b60095460ff166040516102109190610a06565b6101f96103f5366004610761565b600e80546001600160a01b0319166001600160a01b0392909216919091179055565b6101f9610425366004610886565b61069d565b60606006805461043990610a1a565b80601f016020809104026020016040519081016040528092919081815260200182805461046590610a1a565b80156104b25780601f10610487576101008083540402835291602001916104b2565b820191906000526020600020905b81548152906001019060200180831161049557829003601f168201915b5050505050905090565b60606004805461043990610a1a565b80516104de90600b9060208401906106ac565b5050565b80516104de90600c9060208401906106ac565b60606005805461043990610a1a565b60005460015460035460405160609361053b93909290916001600160a01b0390911690600490600590600690600790602001610af5565b604051602081830303815290604052905090565b60008790556001869055600380546001600160a01b0319166001600160a01b03871617905583516105879060049060208701906106ac565b50825161059b9060059060208601906106ac565b5081516105af9060069060208501906106ac565b5080516105c39060079060208401906106ac565b506105ce8688610b6a565b60085550506009805460ff1916905550506000600d555050600e80546001600160a01b0319908116909155600f805482169055601080548216905560118054909116905550565b600054600154600854600d54600954600e54600f5460105460115460405160609961053b99909890979096909560ff909116946001600160a01b03918216949082169390821692911690602001610b90565b6009805482919060ff19166001836012811115610686576106866109ce565b021790555050565b60606007805461043990610a1a565b80516104de90600a9060208401905b8280546106b890610a1a565b90600052602060002090601f0160209004810192826106da5760008555610720565b82601f106106f357805160ff1916838001178555610720565b82800160010185558215610720579182015b82811115610720578251825591602001919060010190610705565b5061072c929150610730565b5090565b5b8082111561072c5760008155600101610731565b80356001600160a01b038116811461075c57600080fd5b919050565b60006020828403121561077357600080fd5b61077c82610745565b9392505050565b6000815180845260005b818110156107a95760208185018101518683018201520161078d565b818111156107bb576000602083870101525b50601f01601f19169290920160200192915050565b60208152600061077c6020830184610783565b634e487b7160e01b600052604160045260246000fd5b600082601f83011261080a57600080fd5b813567ffffffffffffffff80821115610825576108256107e3565b604051601f8301601f19908116603f0116810190828211818310171561084d5761084d6107e3565b8160405283815286602085880101111561086657600080fd5b836020870160208301376000602085830101528094505050505092915050565b60006020828403121561089857600080fd5b813567ffffffffffffffff8111156108af57600080fd5b6108bb848285016107f9565b949350505050565b600080600080600080600060e0888a0312156108de57600080fd5b87359650602088013595506108f560408901610745565b9450606088013567ffffffffffffffff8082111561091257600080fd5b61091e8b838c016107f9565b955060808a013591508082111561093457600080fd5b6109408b838c016107f9565b945060a08a013591508082111561095657600080fd5b6109628b838c016107f9565b935060c08a013591508082111561097857600080fd5b506109858a828b016107f9565b91505092959891949750929550565b6000602082840312156109a657600080fd5b5035919050565b6000602082840312156109bf57600080fd5b81356013811061077c57600080fd5b634e487b7160e01b600052602160045260246000fd5b60138110610a0257634e487b7160e01b600052602160045260246000fd5b9052565b60208101610a1482846109e4565b92915050565b600181811c90821680610a2e57607f821691505b60208210811415610a4f57634e487b7160e01b600052602260045260246000fd5b50919050565b8054600090600181811c9080831680610a6f57607f831692505b6020808410821415610a9157634e487b7160e01b600052602260045260246000fd5b83885260208801828015610aac5760018114610abd57610ae8565b60ff19871682528282019750610ae8565b60008981526020902060005b87811015610ae257815484820152908601908401610ac9565b83019850505b5050505050505092915050565b87815286602082015260018060a01b038616604082015260e060608201526000610b2260e0830187610a55565b8281036080840152610b348187610a55565b905082810360a0840152610b488186610a55565b905082810360c0840152610b5c8185610a55565b9a9950505050505050505050565b60008219821115610b8b57634e487b7160e01b600052601160045260246000fd5b500190565b6000610120820190508a8252896020830152886040830152876060830152610bbb60808301886109e4565b6001600160a01b0395861660a083015293851660c082015291841660e0830152909216610100909201919091529594505050505056fea264697066735822122062a01610407c71898515f9da66427f8c3f80ceb94982ab518b3c45ebf2bd5c4464736f6c634300080a0033",
  "immutableReferences": {},
  "source": "// SPDX-License-Identifier: MIT\r\npragma solidity ^0.8.10;\r\n\r\nimport \"./EmeraldProperties.sol\";\r\nimport \"./EmeraldStates.sol\";\r\n\r\ncontract Emerald {\r\n    uint256 sku;\r\n    uint256 upc;\r\n    address payable ownerID;\r\n    address payable originMinerID;\r\n    string originMineName;\r\n    string originMineInformation;\r\n    string originMineLatitude;\r\n    string originMineLongitude;\r\n    uint256 productID;\r\n    EmeraldStates.State emeraldState;\r\n    string scaleInfo;\r\n    string certifiedProperties;\r\n    string manufactureInfo;\r\n    uint256 marketPrice;\r\n    address payable laboratoryID;\r\n    address payable custodianID;\r\n    address payable manufacturerID;\r\n    address payable customerID;\r\n\r\n    constructor() {}\r\n\r\n    function setExtractionInfo(\r\n        uint256 _sku,\r\n        uint256 _upc,\r\n        address payable _originMinerID,\r\n        string memory _originMineName,\r\n        string memory _originMineInformation,\r\n        string memory _originMineLatitude,\r\n        string memory _originMineLongitude\r\n    ) public {\r\n        sku = _sku;\r\n        upc = _upc;\r\n        originMinerID = _originMinerID;\r\n        originMineName = _originMineName;\r\n        originMineInformation = _originMineInformation;\r\n        originMineLatitude = _originMineLatitude;\r\n        originMineLongitude = _originMineLongitude;\r\n        productID =_sku + _upc;\r\n        emeraldState = EmeraldStates.State.Mined;\r\n        marketPrice = 0;\r\n        laboratoryID = payable(address(0));\r\n        custodianID = payable(address(0));\r\n        manufacturerID = payable(address(0));\r\n        customerID = payable(address(0));\r\n    }\r\n\r\n    function setScaleInfo(string memory _scaleInfo) public {\r\n        scaleInfo = _scaleInfo;\r\n    }\r\n\r\n    function setCertifiedInfo(string memory _certifiedProperties) public {\r\n        certifiedProperties = _certifiedProperties;\r\n    }\r\n\r\n    function setManufactureInfo(string memory _manufactureInfo) public {\r\n        manufactureInfo = _manufactureInfo;\r\n    }\r\n\r\n    function setEmeraldState(EmeraldStates.State _state) public {\r\n        emeraldState = _state;\r\n    }\r\n\r\n    function setOwnerID(address payable _newOwnerID) public {\r\n        originMinerID = _newOwnerID;\r\n    }\r\n\r\n    function authorizeLab(address payable _laboratoryID) public {\r\n        laboratoryID = _laboratoryID;\r\n    }\r\n\r\n    function authorizeCustodian(address  payable _custodianID) public {\r\n        custodianID = _custodianID;\r\n    }\r\n\r\n    function setManufacturerID(address payable _manufacturerID) public {\r\n        manufacturerID = _manufacturerID;\r\n    }\r\n\r\n    function setCustomerID(address payable _customerID) public {\r\n        customerID = _customerID;\r\n    }\r\n\r\n    function getSku() public view returns (uint256) {\r\n        return sku;\r\n    }\r\n\r\n    function getUpc() public view returns (uint256) {\r\n        return upc;\r\n    }\r\n\r\n    function getProductID() public view returns (uint256) {\r\n        return productID;\r\n    }\r\n\r\n    function getOwnerID() public view returns (address) {\r\n        return ownerID;\r\n    }\r\n\r\n    function getOriginMinerID() public view returns (address payable) {\r\n        return originMinerID;\r\n    }\r\n\r\n    function getMarketPrice() public view returns (uint256) {\r\n        return marketPrice;\r\n    }\r\n\r\n    function setMarketPrice(uint256 _marketPrice) public {\r\n        marketPrice = _marketPrice;\r\n    }\r\n\r\n    function getCustomerID() public view returns (address payable) {\r\n        return customerID;\r\n    }\r\n\r\n    function getCustodianID() public view returns (address payable) {\r\n        return custodianID;\r\n    }\r\n\r\n    function getLaboratoryID() public view returns (address payable) {\r\n        return laboratoryID;\r\n    }\r\n\r\n    function getManufacturerID() public view returns (address payable) {\r\n        return manufacturerID;\r\n    }\r\n\r\n    function getEmeraldState() public view returns (EmeraldStates.State) {\r\n        return emeraldState;\r\n    }\r\n\r\n    function getMineName() public view returns (string memory) {\r\n        return originMineName;\r\n    }\r\n\r\n    function getMineInformation() public view returns (string memory) {\r\n        return originMineInformation;\r\n    }\r\n\r\n    function getMineLatitude() public view returns (string memory) {\r\n        return originMineLatitude;\r\n    }\r\n\r\n    function getMineLongitude() public view returns (string memory) {\r\n        return originMineLongitude;\r\n    }\r\n\r\n    function getBasicInfo() public view returns (bytes memory) {\r\n        return\r\n            abi.encode(\r\n                sku,\r\n                upc,\r\n                originMinerID,\r\n                originMineName,\r\n                originMineInformation,\r\n                originMineLatitude,\r\n                originMineLongitude\r\n            );\r\n    }\r\n\r\n    function getDetailedInfo() public view returns (bytes memory) {\r\n        return\r\n            abi.encode(\r\n                sku,\r\n                upc,\r\n                productID,\r\n                marketPrice,\r\n                emeraldState,\r\n                laboratoryID,\r\n                custodianID,\r\n                manufacturerID,\r\n                customerID\r\n            );\r\n    }\r\n}\r\n",
  "sourcePath": "D:\\INE1\\S2\\SecurityProject2\\goldtracker\\src\\contracts\\emeraldbase\\Emerald.sol",
  "compiler": {
    "name": "solc",
    "version": "0.8.10+commit.fc410830.Emscripten.clang"
  },
  "schemaVersion": "3.4.16",
  "updatedAt": "2024-05-27T16:05:07.572Z",
  "devdoc": {
    "kind": "dev",
    "methods": {},
    "version": 1
  },
  "userdoc": {
    "kind": "user",
    "methods": {},
    "version": 1
  }
}