{
  "contractName": "EmeraldProperties",
  "abi": [
    {
      "inputs": [],
      "stateMutability": "nonpayable",
      "type": "constructor"
    },
    {
      "inputs": [],
      "name": "clarityGrade",
      "outputs": [
        {
          "internalType": "string",
          "name": "",
          "type": "string"
        }
      ],
      "stateMutability": "view",
      "type": "function",
      "constant": true
    },
    {
      "inputs": [],
      "name": "color",
      "outputs": [
        {
          "internalType": "string",
          "name": "",
          "type": "string"
        }
      ],
      "stateMutability": "view",
      "type": "function",
      "constant": true
    },
    {
      "inputs": [],
      "name": "cutType",
      "outputs": [
        {
          "internalType": "string",
          "name": "",
          "type": "string"
        }
      ],
      "stateMutability": "view",
      "type": "function",
      "constant": true
    },
    {
      "inputs": [],
      "name": "shape",
      "outputs": [
        {
          "internalType": "string",
          "name": "",
          "type": "string"
        }
      ],
      "stateMutability": "view",
      "type": "function",
      "constant": true
    },
    {
      "inputs": [],
      "name": "size",
      "outputs": [
        {
          "internalType": "string",
          "name": "",
          "type": "string"
        }
      ],
      "stateMutability": "view",
      "type": "function",
      "constant": true
    },
    {
      "inputs": [],
      "name": "weight",
      "outputs": [
        {
          "internalType": "uint256",
          "name": "",
          "type": "uint256"
        }
      ],
      "stateMutability": "view",
      "type": "function",
      "constant": true
    },
    {
      "inputs": [
        {
          "internalType": "string",
          "name": "_color",
          "type": "string"
        }
      ],
      "name": "setColor",
      "outputs": [],
      "stateMutability": "nonpayable",
      "type": "function"
    },
    {
      "inputs": [
        {
          "internalType": "string",
          "name": "_size",
          "type": "string"
        }
      ],
      "name": "setSize",
      "outputs": [],
      "stateMutability": "nonpayable",
      "type": "function"
    },
    {
      "inputs": [
        {
          "internalType": "string",
          "name": "_cutType",
          "type": "string"
        }
      ],
      "name": "setCutType",
      "outputs": [],
      "stateMutability": "nonpayable",
      "type": "function"
    },
    {
      "inputs": [
        {
          "internalType": "string",
          "name": "_shape",
          "type": "string"
        }
      ],
      "name": "setShape",
      "outputs": [],
      "stateMutability": "nonpayable",
      "type": "function"
    },
    {
      "inputs": [
        {
          "internalType": "string",
          "name": "_clarityGrade",
          "type": "string"
        }
      ],
      "name": "setClarityGrade",
      "outputs": [],
      "stateMutability": "nonpayable",
      "type": "function"
    },
    {
      "inputs": [
        {
          "internalType": "uint256",
          "name": "_weight",
          "type": "uint256"
        }
      ],
      "name": "setWeight",
      "outputs": [],
      "stateMutability": "nonpayable",
      "type": "function"
    }
  ],
  "bytecode": "0x608060405234801561001057600080fd5b50610531806100206000396000f3fe608060405234801561001057600080fd5b50600436106100b45760003560e01c8063978edb7a11610071578063978edb7a146101175780639988fa691461012a578063a1aab33f1461013d578063cf08fed514610154578063fc1711f21461015c578063fc703df91461016f57600080fd5b80630f7514a2146100b957806323d6cce3146100d75780633c5ad4a6146100ec57806344bae04c146100ff5780638b4722df14610107578063949d225d1461010f575b600080fd5b6100c1610182565b6040516100ce9190610284565b60405180910390f35b6100ea6100e53660046102e8565b610210565b005b6100ea6100fa3660046102e8565b610220565b6100c161022c565b6100c1610239565b6100c1610246565b6100ea6101253660046102e8565b610253565b6100ea6101383660046102e8565b61025f565b61014660055481565b6040519081526020016100ce565b6100c161026b565b6100ea61016a366004610399565b600555565b6100ea61017d3660046102e8565b610278565b6001805461018f906103b2565b80601f01602080910402602001604051908101604052809291908181526020018280546101bb906103b2565b80156102085780601f106101dd57610100808354040283529160200191610208565b820191906000526020600020905b8154815290600101906020018083116101eb57829003601f168201915b505050505081565b600461021c828261043b565b5050565b600161021c828261043b565b6004805461018f906103b2565b6000805461018f906103b2565b6002805461018f906103b2565b600261021c828261043b565b600361021c828261043b565b6003805461018f906103b2565b600061021c828261043b565b600060208083528351808285015260005b818110156102b157858101830151858201604001528201610295565b506000604082860101526040601f19601f8301168501019250505092915050565b634e487b7160e01b600052604160045260246000fd5b6000602082840312156102fa57600080fd5b813567ffffffffffffffff8082111561031257600080fd5b818401915084601f83011261032657600080fd5b813581811115610338576103386102d2565b604051601f8201601f19908116603f01168101908382118183101715610360576103606102d2565b8160405282815287602084870101111561037957600080fd5b826020860160208301376000928101602001929092525095945050505050565b6000602082840312156103ab57600080fd5b5035919050565b600181811c908216806103c657607f821691505b6020821081036103e657634e487b7160e01b600052602260045260246000fd5b50919050565b601f82111561043657600081815260208120601f850160051c810160208610156104135750805b601f850160051c820191505b818110156104325782815560010161041f565b5050505b505050565b815167ffffffffffffffff811115610455576104556102d2565b6104698161046384546103b2565b846103ec565b602080601f83116001811461049e57600084156104865750858301515b600019600386901b1c1916600185901b178555610432565b600085815260208120601f198616915b828110156104cd578886015182559484019460019091019084016104ae565b50858210156104eb5787850151600019600388901b60f8161c191681555b5050505050600190811b0190555056fea2646970667358221220e52b1daf8acee59e8a6e7ee133f5f58e8f0d88385cbf38bfb797e5665e95276f64736f6c63430008130033",
  "immutableReferences": {},
  "source": "// SPDX-License-Identifier: MIT\npragma solidity ^0.8.10;\n\ncontract EmeraldProperties {\n\n    string public cutType; // Emerald cut type\n    string public shape; // Emerald shape\n    string public size; // Length, width, and depth in mm\n    string public color; // Emerald color [Hue, Tone, Saturation]\n    string public clarityGrade; // Emerald clarity grade\n    uint256 public weight; // Emerald weight in grams\n \n    constructor() {}\n\n    function setColor(string memory _color) public {\n        color = _color;\n    }\n\n    function setSize(string memory _size) public {\n        size = _size;\n    }        \n    \n    function setCutType(string memory _cutType) public {\n        cutType = _cutType;\n    }\n\n    function setShape(string memory _shape) public {\n        shape = _shape;\n    }\n\n    function setClarityGrade(string memory _clarityGrade) public {\n        clarityGrade = _clarityGrade;\n    }\n\n    function setWeight(uint256 _weight) public {\n        weight = _weight;\n    }\n}\n",
  "sourcePath": "/Users/mac/Desktop/GoldTracker/src/contracts/emeraldbase/EmeraldProperties.sol",
  "compiler": {
    "name": "solc",
    "version": "0.8.19+commit.7dd6d404.Emscripten.clang"
  },
  "schemaVersion": "3.4.16",
  "updatedAt": "2024-05-28T12:55:02.312Z",
  "networkType": "ethereum",
  "devdoc": {
    "kind": "dev",
    "methods": {},
    "version": 1
  },
  "userdoc": {
    "kind": "user",
    "methods": {},
    "version": 1
  }
}