{
  "contractName": "LaboratoryRole",
  "abi": [
    {
      "inputs": [],
      "stateMutability": "nonpayable",
      "type": "constructor"
    },
    {
      "anonymous": false,
      "inputs": [
        {
          "indexed": true,
          "internalType": "bytes32",
          "name": "role",
          "type": "bytes32"
        },
        {
          "indexed": true,
          "internalType": "bytes32",
          "name": "previousAdminRole",
          "type": "bytes32"
        },
        {
          "indexed": true,
          "internalType": "bytes32",
          "name": "newAdminRole",
          "type": "bytes32"
        }
      ],
      "name": "RoleAdminChanged",
      "type": "event"
    },
    {
      "anonymous": false,
      "inputs": [
        {
          "indexed": true,
          "internalType": "bytes32",
          "name": "role",
          "type": "bytes32"
        },
        {
          "indexed": true,
          "internalType": "address",
          "name": "account",
          "type": "address"
        },
        {
          "indexed": true,
          "internalType": "address",
          "name": "sender",
          "type": "address"
        }
      ],
      "name": "RoleGranted",
      "type": "event"
    },
    {
      "anonymous": false,
      "inputs": [
        {
          "indexed": true,
          "internalType": "bytes32",
          "name": "role",
          "type": "bytes32"
        },
        {
          "indexed": true,
          "internalType": "address",
          "name": "account",
          "type": "address"
        },
        {
          "indexed": true,
          "internalType": "address",
          "name": "sender",
          "type": "address"
        }
      ],
      "name": "RoleRevoked",
      "type": "event"
    },
    {
      "inputs": [],
      "name": "DEFAULT_ADMIN_ROLE",
      "outputs": [
        {
          "internalType": "bytes32",
          "name": "",
          "type": "bytes32"
        }
      ],
      "stateMutability": "view",
      "type": "function"
    },
    {
      "inputs": [],
      "name": "LABORATORY_ROLE",
      "outputs": [
        {
          "internalType": "bytes32",
          "name": "",
          "type": "bytes32"
        }
      ],
      "stateMutability": "view",
      "type": "function"
    },
    {
      "inputs": [
        {
          "internalType": "bytes32",
          "name": "role",
          "type": "bytes32"
        }
      ],
      "name": "getRoleAdmin",
      "outputs": [
        {
          "internalType": "bytes32",
          "name": "",
          "type": "bytes32"
        }
      ],
      "stateMutability": "view",
      "type": "function"
    },
    {
      "inputs": [
        {
          "internalType": "bytes32",
          "name": "role",
          "type": "bytes32"
        },
        {
          "internalType": "address",
          "name": "account",
          "type": "address"
        }
      ],
      "name": "grantRole",
      "outputs": [],
      "stateMutability": "nonpayable",
      "type": "function"
    },
    {
      "inputs": [
        {
          "internalType": "bytes32",
          "name": "role",
          "type": "bytes32"
        },
        {
          "internalType": "address",
          "name": "account",
          "type": "address"
        }
      ],
      "name": "hasRole",
      "outputs": [
        {
          "internalType": "bool",
          "name": "",
          "type": "bool"
        }
      ],
      "stateMutability": "view",
      "type": "function"
    },
    {
      "inputs": [
        {
          "internalType": "bytes32",
          "name": "role",
          "type": "bytes32"
        },
        {
          "internalType": "address",
          "name": "account",
          "type": "address"
        }
      ],
      "name": "renounceRole",
      "outputs": [],
      "stateMutability": "nonpayable",
      "type": "function"
    },
    {
      "inputs": [
        {
          "internalType": "bytes32",
          "name": "role",
          "type": "bytes32"
        },
        {
          "internalType": "address",
          "name": "account",
          "type": "address"
        }
      ],
      "name": "revokeRole",
      "outputs": [],
      "stateMutability": "nonpayable",
      "type": "function"
    },
    {
      "inputs": [
        {
          "internalType": "bytes4",
          "name": "interfaceId",
          "type": "bytes4"
        }
      ],
      "name": "supportsInterface",
      "outputs": [
        {
          "internalType": "bool",
          "name": "",
          "type": "bool"
        }
      ],
      "stateMutability": "view",
      "type": "function"
    },
    {
      "inputs": [
        {
          "internalType": "address",
          "name": "account",
          "type": "address"
        }
      ],
      "name": "isLaboratory",
      "outputs": [
        {
          "internalType": "bool",
          "name": "",
          "type": "bool"
        }
      ],
      "stateMutability": "view",
      "type": "function"
    },
    {
      "inputs": [
        {
          "internalType": "address",
          "name": "account",
          "type": "address"
        }
      ],
      "name": "addLaboratory",
      "outputs": [],
      "stateMutability": "nonpayable",
      "type": "function"
    },
    {
      "inputs": [],
      "name": "renounceLaboratory",
      "outputs": [],
      "stateMutability": "nonpayable",
      "type": "function"
    }
  ],
  "bytecode": "0x60806040523480156200001157600080fd5b506200001f60003362000030565b6200002a33620000d1565b62000525565b6000828152602081815260408083206001600160a01b038516845290915290205460ff16620000cd576000828152602081815260408083206001600160a01b03851684529091529020805460ff191660011790556200008c3390565b6001600160a01b0316816001600160a01b0316837f2f8788117e7eff1d82e926ec794901d17c78024a50270940304540a733656f0d60405160405180910390a45b5050565b620000fd7fc9f41f19cd323609a8840e20c19f0688fff7f2c7796dc69350af80f75835f8158262000100565b50565b6000828152602081905260409020600101546200011d816200012e565b62000129838362000030565b505050565b620000fd81336000828152602081815260408083206001600160a01b038516845290915290205460ff16620000cd576200017381620001cd60201b620003581760201c565b620001898360206200036a620001eb821b17811c565b6040516020016200019c929190620003de565b60408051601f198184030181529082905262461bcd60e51b8252620001c49160040162000457565b60405180910390fd5b6060620001e56001600160a01b0383166014620001eb565b92915050565b60606000620001fc836002620004a2565b62000209906002620004c4565b6001600160401b03811115620002235762000223620004df565b6040519080825280601f01601f1916602001820160405280156200024e576020820181803683370190505b509050600360fc1b816000815181106200026c576200026c620004f5565b60200101906001600160f81b031916908160001a905350600f60fb1b816001815181106200029e576200029e620004f5565b60200101906001600160f81b031916908160001a9053506000620002c4846002620004a2565b620002d1906001620004c4565b90505b600181111562000353576f181899199a1a9b1b9c1cb0b131b232b360811b85600f1660108110620003095762000309620004f5565b1a60f81b828281518110620003225762000322620004f5565b60200101906001600160f81b031916908160001a90535060049490941c936200034b816200050b565b9050620002d4565b508315620003a45760405162461bcd60e51b815260206004820181905260248201527f537472696e67733a20686578206c656e67746820696e73756666696369656e746044820152606401620001c4565b9392505050565b60005b83811015620003c8578181015183820152602001620003ae565b83811115620003d8576000848401525b50505050565b7f416363657373436f6e74726f6c3a206163636f756e742000000000000000000081526000835162000418816017850160208801620003ab565b7001034b99036b4b9b9b4b733903937b6329607d1b60179184019182015283516200044b816028840160208801620003ab565b01602801949350505050565b602081526000825180602084015262000478816040850160208701620003ab565b601f01601f19169190910160400192915050565b634e487b7160e01b600052601160045260246000fd5b6000816000190483118215151615620004bf57620004bf6200048c565b500290565b60008219821115620004da57620004da6200048c565b500190565b634e487b7160e01b600052604160045260246000fd5b634e487b7160e01b600052603260045260246000fd5b6000816200051d576200051d6200048c565b506000190190565b6108ed80620005356000396000f3fe608060405234801561001057600080fd5b50600436106100a95760003560e01c8063404203b911610071578063404203b9146101425780637fe212431461015557806391d148541461016a578063a217fddf1461017d578063b4dc323c14610185578063d547741f1461018d57600080fd5b806301ffc9a7146100ae578063248a9ca3146100d657806327706584146101075780632f2ff15d1461011a57806336568abe1461012f575b600080fd5b6100c16100bc366004610689565b6101a0565b60405190151581526020015b60405180910390f35b6100f96100e43660046106b3565b60009081526020819052604090206001015490565b6040519081526020016100cd565b6100c16101153660046106e8565b6101d7565b61012d610128366004610703565b6101f1565b005b61012d61013d366004610703565b61021b565b61012d6101503660046106e8565b61029e565b6100f960008051602061089883398151915281565b6100c1610178366004610703565b6102ff565b6100f9600081565b61012d610328565b61012d61019b366004610703565b610333565b60006001600160e01b03198216637965db0b60e01b14806101d157506301ffc9a760e01b6001600160e01b03198316145b92915050565b60006101d1600080516020610898833981519152836102ff565b60008281526020819052604090206001015461020c8161050d565b6102168383610517565b505050565b6001600160a01b03811633146102905760405162461bcd60e51b815260206004820152602f60248201527f416363657373436f6e74726f6c3a2063616e206f6e6c792072656e6f756e636560448201526e103937b632b9903337b91039b2b63360891b60648201526084015b60405180910390fd5b61029a828261059b565b5050565b6102a7336101d7565b6102f35760405162461bcd60e51b815260206004820152601b60248201527f43616c6c6572206973206e6f742061206c61626f7261746f72792e00000000006044820152606401610287565b6102fc81610600565b50565b6000918252602082815260408084206001600160a01b0393909316845291905290205460ff1690565b61033133610618565b565b60008281526020819052604090206001015461034e8161050d565b610216838361059b565b60606101d16001600160a01b03831660145b60606000610379836002610745565b610384906002610764565b67ffffffffffffffff81111561039c5761039c61077c565b6040519080825280601f01601f1916602001820160405280156103c6576020820181803683370190505b509050600360fc1b816000815181106103e1576103e1610792565b60200101906001600160f81b031916908160001a905350600f60fb1b8160018151811061041057610410610792565b60200101906001600160f81b031916908160001a9053506000610434846002610745565b61043f906001610764565b90505b60018111156104b7576f181899199a1a9b1b9c1cb0b131b232b360811b85600f166010811061047357610473610792565b1a60f81b82828151811061048957610489610792565b60200101906001600160f81b031916908160001a90535060049490941c936104b0816107a8565b9050610442565b5083156105065760405162461bcd60e51b815260206004820181905260248201527f537472696e67733a20686578206c656e67746820696e73756666696369656e746044820152606401610287565b9392505050565b6102fc8133610630565b61052182826102ff565b61029a576000828152602081815260408083206001600160a01b03851684529091529020805460ff191660011790556105573390565b6001600160a01b0316816001600160a01b0316837f2f8788117e7eff1d82e926ec794901d17c78024a50270940304540a733656f0d60405160405180910390a45050565b6105a582826102ff565b1561029a576000828152602081815260408083206001600160a01b0385168085529252808320805460ff1916905551339285917ff6391f5c32d9c69d2a47ea670b442974b53935d1edc7fd64eb21e047a839171b9190a45050565b6102fc600080516020610898833981519152826101f1565b6102fc60008051602061089883398151915282610333565b61063a82826102ff565b61029a5761064781610358565b61065283602061036a565b6040516020016106639291906107ef565b60408051601f198184030181529082905262461bcd60e51b825261028791600401610864565b60006020828403121561069b57600080fd5b81356001600160e01b03198116811461050657600080fd5b6000602082840312156106c557600080fd5b5035919050565b80356001600160a01b03811681146106e357600080fd5b919050565b6000602082840312156106fa57600080fd5b610506826106cc565b6000806040838503121561071657600080fd5b82359150610726602084016106cc565b90509250929050565b634e487b7160e01b600052601160045260246000fd5b600081600019048311821515161561075f5761075f61072f565b500290565b600082198211156107775761077761072f565b500190565b634e487b7160e01b600052604160045260246000fd5b634e487b7160e01b600052603260045260246000fd5b6000816107b7576107b761072f565b506000190190565b60005b838110156107da5781810151838201526020016107c2565b838111156107e9576000848401525b50505050565b7f416363657373436f6e74726f6c3a206163636f756e74200000000000000000008152600083516108278160178501602088016107bf565b7001034b99036b4b9b9b4b733903937b6329607d1b60179184019182015283516108588160288401602088016107bf565b01602801949350505050565b60208152600082518060208401526108838160408501602087016107bf565b601f01601f1916919091016040019291505056fec9f41f19cd323609a8840e20c19f0688fff7f2c7796dc69350af80f75835f815a2646970667358221220af43f3e77c9d6691ff81f0cf696c7d35a44f22b1f717de646cdf41aac199511664736f6c634300080a0033",
  "immutableReferences": {},
  "source": "// SPDX-License-Identifier: MIT\r\npragma solidity ^0.8.10;\r\n\r\n// Import the library 'AccessControl' from OpenZeppelin\r\nimport \"@openzeppelin/contracts/access/AccessControl.sol\";\r\n\r\n// Define a contract 'LaboratoryRole' to manage this role - add, remove, check\r\ncontract LaboratoryRole is AccessControl {\r\n\r\n  // Define a constant for the laboratory role\r\n  bytes32 public constant LABORATORY_ROLE = keccak256(\"LABORATORY_ROLE\");\r\n\r\n  // In the constructor, make the address that deploys this contract the 1st laboratory\r\n  constructor() {\r\n    _grantRole(DEFAULT_ADMIN_ROLE, msg.sender);\r\n    _addLaboratory(msg.sender); \r\n  }\r\n\r\n  // Define a modifier that checks if the caller has the laboratory role\r\n  modifier onlyLaboratory() {\r\n    require(isLaboratory(msg.sender), \"Caller is not a laboratory.\");    \r\n    _;\r\n  }\r\n\r\n  // Define a function to check if an address has the laboratory role\r\n  function isLaboratory(address account) public view returns (bool) {\r\n    return hasRole(LABORATORY_ROLE, account);\r\n  }\r\n\r\n  // Define a function to add the laboratory role to an address\r\n  function addLaboratory(address account) public onlyLaboratory {\r\n    _addLaboratory(account);\r\n  }\r\n\r\n  // Define a function to renounce the laboratory role\r\n  function renounceLaboratory() public {\r\n    _removeLaboratory(msg.sender);\r\n  }\r\n\r\n  // Define an internal function to add the laboratory role\r\n  function _addLaboratory(address account) internal {\r\n    grantRole(LABORATORY_ROLE, account);\r\n  }\r\n\r\n  // Define an internal function to remove the laboratory role\r\n  function _removeLaboratory(address account) internal {\r\n    revokeRole(LABORATORY_ROLE, account);\r\n  }\r\n}\r\n",
  "sourcePath": "D:\\INE1\\S2\\SecurityProject2\\goldtracker\\src\\contracts\\emeraldaccesscontrol\\LaboratoryRole.sol",
  "compiler": {
    "name": "solc",
    "version": "0.8.10+commit.fc410830.Emscripten.clang"
  },
  "schemaVersion": "3.4.16",
  "updatedAt": "2024-05-28T14:14:19.084Z",
  "devdoc": {
    "kind": "dev",
    "methods": {
      "getRoleAdmin(bytes32)": {
        "details": "Returns the admin role that controls `role`. See {grantRole} and {revokeRole}. To change a role's admin, use {_setRoleAdmin}."
      },
      "grantRole(bytes32,address)": {
        "details": "Grants `role` to `account`. If `account` had not been already granted `role`, emits a {RoleGranted} event. Requirements: - the caller must have ``role``'s admin role. May emit a {RoleGranted} event."
      },
      "hasRole(bytes32,address)": {
        "details": "Returns `true` if `account` has been granted `role`."
      },
      "renounceRole(bytes32,address)": {
        "details": "Revokes `role` from the calling account. Roles are often managed via {grantRole} and {revokeRole}: this function's purpose is to provide a mechanism for accounts to lose their privileges if they are compromised (such as when a trusted device is misplaced). If the calling account had been revoked `role`, emits a {RoleRevoked} event. Requirements: - the caller must be `account`. May emit a {RoleRevoked} event."
      },
      "revokeRole(bytes32,address)": {
        "details": "Revokes `role` from `account`. If `account` had been granted `role`, emits a {RoleRevoked} event. Requirements: - the caller must have ``role``'s admin role. May emit a {RoleRevoked} event."
      },
      "supportsInterface(bytes4)": {
        "details": "See {IERC165-supportsInterface}."
      }
    },
    "version": 1
  },
  "userdoc": {
    "kind": "user",
    "methods": {},
    "version": 1
  }
}