{
  "contractName": "LaboratoryRole",
  "abi": [
    {
      "inputs": [],
      "stateMutability": "nonpayable",
      "type": "constructor"
    },
    {
      "anonymous": false,
      "inputs": [
        {
          "indexed": true,
          "internalType": "bytes32",
          "name": "role",
          "type": "bytes32"
        },
        {
          "indexed": true,
          "internalType": "bytes32",
          "name": "previousAdminRole",
          "type": "bytes32"
        },
        {
          "indexed": true,
          "internalType": "bytes32",
          "name": "newAdminRole",
          "type": "bytes32"
        }
      ],
      "name": "RoleAdminChanged",
      "type": "event"
    },
    {
      "anonymous": false,
      "inputs": [
        {
          "indexed": true,
          "internalType": "bytes32",
          "name": "role",
          "type": "bytes32"
        },
        {
          "indexed": true,
          "internalType": "address",
          "name": "account",
          "type": "address"
        },
        {
          "indexed": true,
          "internalType": "address",
          "name": "sender",
          "type": "address"
        }
      ],
      "name": "RoleGranted",
      "type": "event"
    },
    {
      "anonymous": false,
      "inputs": [
        {
          "indexed": true,
          "internalType": "bytes32",
          "name": "role",
          "type": "bytes32"
        },
        {
          "indexed": true,
          "internalType": "address",
          "name": "account",
          "type": "address"
        },
        {
          "indexed": true,
          "internalType": "address",
          "name": "sender",
          "type": "address"
        }
      ],
      "name": "RoleRevoked",
      "type": "event"
    },
    {
      "inputs": [],
      "name": "DEFAULT_ADMIN_ROLE",
      "outputs": [
        {
          "internalType": "bytes32",
          "name": "",
          "type": "bytes32"
        }
      ],
      "stateMutability": "view",
      "type": "function",
      "constant": true
    },
    {
      "inputs": [],
      "name": "LABORATORY_ROLE",
      "outputs": [
        {
          "internalType": "bytes32",
          "name": "",
          "type": "bytes32"
        }
      ],
      "stateMutability": "view",
      "type": "function",
      "constant": true
    },
    {
      "inputs": [
        {
          "internalType": "bytes32",
          "name": "role",
          "type": "bytes32"
        }
      ],
      "name": "getRoleAdmin",
      "outputs": [
        {
          "internalType": "bytes32",
          "name": "",
          "type": "bytes32"
        }
      ],
      "stateMutability": "view",
      "type": "function",
      "constant": true
    },
    {
      "inputs": [
        {
          "internalType": "bytes32",
          "name": "role",
          "type": "bytes32"
        },
        {
          "internalType": "address",
          "name": "account",
          "type": "address"
        }
      ],
      "name": "grantRole",
      "outputs": [],
      "stateMutability": "nonpayable",
      "type": "function"
    },
    {
      "inputs": [
        {
          "internalType": "bytes32",
          "name": "role",
          "type": "bytes32"
        },
        {
          "internalType": "address",
          "name": "account",
          "type": "address"
        }
      ],
      "name": "hasRole",
      "outputs": [
        {
          "internalType": "bool",
          "name": "",
          "type": "bool"
        }
      ],
      "stateMutability": "view",
      "type": "function",
      "constant": true
    },
    {
      "inputs": [
        {
          "internalType": "bytes32",
          "name": "role",
          "type": "bytes32"
        },
        {
          "internalType": "address",
          "name": "account",
          "type": "address"
        }
      ],
      "name": "renounceRole",
      "outputs": [],
      "stateMutability": "nonpayable",
      "type": "function"
    },
    {
      "inputs": [
        {
          "internalType": "bytes32",
          "name": "role",
          "type": "bytes32"
        },
        {
          "internalType": "address",
          "name": "account",
          "type": "address"
        }
      ],
      "name": "revokeRole",
      "outputs": [],
      "stateMutability": "nonpayable",
      "type": "function"
    },
    {
      "inputs": [
        {
          "internalType": "bytes4",
          "name": "interfaceId",
          "type": "bytes4"
        }
      ],
      "name": "supportsInterface",
      "outputs": [
        {
          "internalType": "bool",
          "name": "",
          "type": "bool"
        }
      ],
      "stateMutability": "view",
      "type": "function",
      "constant": true
    },
    {
      "inputs": [
        {
          "internalType": "address",
          "name": "account",
          "type": "address"
        }
      ],
      "name": "isLaboratory",
      "outputs": [
        {
          "internalType": "bool",
          "name": "",
          "type": "bool"
        }
      ],
      "stateMutability": "view",
      "type": "function",
      "constant": true
    },
    {
      "inputs": [
        {
          "internalType": "address",
          "name": "account",
          "type": "address"
        }
      ],
      "name": "addLaboratory",
      "outputs": [],
      "stateMutability": "nonpayable",
      "type": "function"
    },
    {
      "inputs": [],
      "name": "renounceLaboratory",
      "outputs": [],
      "stateMutability": "nonpayable",
      "type": "function"
    }
  ],
  "bytecode": "0x60806040523480156200001157600080fd5b506200001f60003362000030565b6200002a33620000d1565b6200050d565b6000828152602081815260408083206001600160a01b038516845290915290205460ff16620000cd576000828152602081815260408083206001600160a01b03851684529091529020805460ff191660011790556200008c3390565b6001600160a01b0316816001600160a01b0316837f2f8788117e7eff1d82e926ec794901d17c78024a50270940304540a733656f0d60405160405180910390a45b5050565b620000fd7fc9f41f19cd323609a8840e20c19f0688fff7f2c7796dc69350af80f75835f8158262000100565b50565b6000828152602081905260409020600101546200011e81336200012f565b6200012a838362000030565b505050565b6000828152602081815260408083206001600160a01b038516845290915290205460ff16620000cd5762000179816001600160a01b03166014620001d360201b6200035a1760201c565b6200018f8360206200035a620001d3821b17811c565b604051602001620001a2929190620003c6565b60408051601f198184030181529082905262461bcd60e51b8252620001ca916004016200043f565b60405180910390fd5b60606000620001e48360026200048a565b620001f1906002620004ac565b6001600160401b038111156200020b576200020b620004c7565b6040519080825280601f01601f19166020018201604052801562000236576020820181803683370190505b509050600360fc1b81600081518110620002545762000254620004dd565b60200101906001600160f81b031916908160001a905350600f60fb1b81600181518110620002865762000286620004dd565b60200101906001600160f81b031916908160001a9053506000620002ac8460026200048a565b620002b9906001620004ac565b90505b60018111156200033b576f181899199a1a9b1b9c1cb0b131b232b360811b85600f1660108110620002f157620002f1620004dd565b1a60f81b8282815181106200030a576200030a620004dd565b60200101906001600160f81b031916908160001a90535060049490941c936200033381620004f3565b9050620002bc565b5083156200038c5760405162461bcd60e51b815260206004820181905260248201527f537472696e67733a20686578206c656e67746820696e73756666696369656e746044820152606401620001ca565b9392505050565b60005b83811015620003b057818101518382015260200162000396565b83811115620003c0576000848401525b50505050565b7f416363657373436f6e74726f6c3a206163636f756e74200000000000000000008152600083516200040081601785016020880162000393565b7001034b99036b4b9b9b4b733903937b6329607d1b60179184019182015283516200043381602884016020880162000393565b01602801949350505050565b60208152600082518060208401526200046081604085016020870162000393565b601f01601f19169190910160400192915050565b634e487b7160e01b600052601160045260246000fd5b6000816000190483118215151615620004a757620004a762000474565b500290565b60008219821115620004c257620004c262000474565b500190565b634e487b7160e01b600052604160045260246000fd5b634e487b7160e01b600052603260045260246000fd5b60008162000505576200050562000474565b506000190190565b6108de806200051d6000396000f3fe608060405234801561001057600080fd5b50600436106100a95760003560e01c8063404203b911610071578063404203b9146101425780637fe212431461015557806391d148541461016a578063a217fddf1461017d578063b4dc323c14610185578063d547741f1461018d57600080fd5b806301ffc9a7146100ae578063248a9ca3146100d657806327706584146101075780632f2ff15d1461011a57806336568abe1461012f575b600080fd5b6100c16100bc36600461067a565b6101a0565b60405190151581526020015b60405180910390f35b6100f96100e43660046106a4565b60009081526020819052604090206001015490565b6040519081526020016100cd565b6100c16101153660046106d9565b6101d7565b61012d6101283660046106f4565b6101f1565b005b61012d61013d3660046106f4565b61021c565b61012d6101503660046106d9565b61029f565b6100f960008051602061088983398151915281565b6100c16101783660046106f4565b610300565b6100f9600081565b61012d610329565b61012d61019b3660046106f4565b610334565b60006001600160e01b03198216637965db0b60e01b14806101d157506301ffc9a760e01b6001600160e01b03198316145b92915050565b60006101d160008051602061088983398151915283610300565b60008281526020819052604090206001015461020d81336104fd565b6102178383610561565b505050565b6001600160a01b03811633146102915760405162461bcd60e51b815260206004820152602f60248201527f416363657373436f6e74726f6c3a2063616e206f6e6c792072656e6f756e636560448201526e103937b632b9903337b91039b2b63360891b60648201526084015b60405180910390fd5b61029b82826105e5565b5050565b6102a8336101d7565b6102f45760405162461bcd60e51b815260206004820152601b60248201527f43616c6c6572206973206e6f742061206c61626f7261746f72792e00000000006044820152606401610288565b6102fd8161064a565b50565b6000918252602082815260408084206001600160a01b0393909316845291905290205460ff1690565b61033233610662565b565b60008281526020819052604090206001015461035081336104fd565b61021783836105e5565b60606000610369836002610736565b610374906002610755565b67ffffffffffffffff81111561038c5761038c61076d565b6040519080825280601f01601f1916602001820160405280156103b6576020820181803683370190505b509050600360fc1b816000815181106103d1576103d1610783565b60200101906001600160f81b031916908160001a905350600f60fb1b8160018151811061040057610400610783565b60200101906001600160f81b031916908160001a9053506000610424846002610736565b61042f906001610755565b90505b60018111156104a7576f181899199a1a9b1b9c1cb0b131b232b360811b85600f166010811061046357610463610783565b1a60f81b82828151811061047957610479610783565b60200101906001600160f81b031916908160001a90535060049490941c936104a081610799565b9050610432565b5083156104f65760405162461bcd60e51b815260206004820181905260248201527f537472696e67733a20686578206c656e67746820696e73756666696369656e746044820152606401610288565b9392505050565b6105078282610300565b61029b5761051f816001600160a01b0316601461035a565b61052a83602061035a565b60405160200161053b9291906107e0565b60408051601f198184030181529082905262461bcd60e51b825261028891600401610855565b61056b8282610300565b61029b576000828152602081815260408083206001600160a01b03851684529091529020805460ff191660011790556105a13390565b6001600160a01b0316816001600160a01b0316837f2f8788117e7eff1d82e926ec794901d17c78024a50270940304540a733656f0d60405160405180910390a45050565b6105ef8282610300565b1561029b576000828152602081815260408083206001600160a01b0385168085529252808320805460ff1916905551339285917ff6391f5c32d9c69d2a47ea670b442974b53935d1edc7fd64eb21e047a839171b9190a45050565b6102fd600080516020610889833981519152826101f1565b6102fd60008051602061088983398151915282610334565b60006020828403121561068c57600080fd5b81356001600160e01b0319811681146104f657600080fd5b6000602082840312156106b657600080fd5b5035919050565b80356001600160a01b03811681146106d457600080fd5b919050565b6000602082840312156106eb57600080fd5b6104f6826106bd565b6000806040838503121561070757600080fd5b82359150610717602084016106bd565b90509250929050565b634e487b7160e01b600052601160045260246000fd5b600081600019048311821515161561075057610750610720565b500290565b6000821982111561076857610768610720565b500190565b634e487b7160e01b600052604160045260246000fd5b634e487b7160e01b600052603260045260246000fd5b6000816107a8576107a8610720565b506000190190565b60005b838110156107cb5781810151838201526020016107b3565b838111156107da576000848401525b50505050565b7f416363657373436f6e74726f6c3a206163636f756e74200000000000000000008152600083516108188160178501602088016107b0565b7001034b99036b4b9b9b4b733903937b6329607d1b60179184019182015283516108498160288401602088016107b0565b01602801949350505050565b60208152600082518060208401526108748160408501602087016107b0565b601f01601f1916919091016040019291505056fec9f41f19cd323609a8840e20c19f0688fff7f2c7796dc69350af80f75835f815a26469706673582212202d4d628849d98639316b1ff57e939460b3f997fb61737bee90e1b3dc07c123a364736f6c634300080a0033",
  "immutableReferences": {},
  "source": "// SPDX-License-Identifier: MIT\npragma solidity ^0.8.10;\n\n// Import the library 'AccessControl' from OpenZeppelin\nimport \"@openzeppelin/contracts/access/AccessControl.sol\";\n\n// Define a contract 'LaboratoryRole' to manage this role - add, remove, check\ncontract LaboratoryRole is AccessControl {\n\n  // Define a constant for the laboratory role\n  bytes32 public constant LABORATORY_ROLE = keccak256(\"LABORATORY_ROLE\");\n\n  // In the constructor, make the address that deploys this contract the 1st laboratory\n  constructor() {\n    _grantRole(DEFAULT_ADMIN_ROLE, msg.sender);\n    _addLaboratory(msg.sender); \n  }\n\n  // Define a modifier that checks if the caller has the laboratory role\n  modifier onlyLaboratory() {\n    require(isLaboratory(msg.sender), \"Caller is not a laboratory.\");    \n    _;\n  }\n\n  // Define a function to check if an address has the laboratory role\n  function isLaboratory(address account) public view returns (bool) {\n    return hasRole(LABORATORY_ROLE, account);\n  }\n\n  // Define a function to add the laboratory role to an address\n  function addLaboratory(address account) public onlyLaboratory {\n    _addLaboratory(account);\n  }\n\n  // Define a function to renounce the laboratory role\n  function renounceLaboratory() public {\n    _removeLaboratory(msg.sender);\n  }\n\n  // Define an internal function to add the laboratory role\n  function _addLaboratory(address account) internal {\n    grantRole(LABORATORY_ROLE, account);\n  }\n\n  // Define an internal function to remove the laboratory role\n  function _removeLaboratory(address account) internal {\n    revokeRole(LABORATORY_ROLE, account);\n  }\n}\n",
  "sourcePath": "/Users/mac/Desktop/GoldTracker/src/contracts/emeraldaccesscontrol/LaboratoryRole.sol",
  "compiler": {
    "name": "solc",
    "version": "0.8.10+commit.fc410830.Emscripten.clang"
  },
  "schemaVersion": "3.4.16",
  "updatedAt": "2024-05-27T15:18:31.154Z",
  "networkType": "ethereum",
  "devdoc": {
    "kind": "dev",
    "methods": {
      "getRoleAdmin(bytes32)": {
        "details": "Returns the admin role that controls `role`. See {grantRole} and {revokeRole}. To change a role's admin, use {_setRoleAdmin}."
      },
      "grantRole(bytes32,address)": {
        "details": "Grants `role` to `account`. If `account` had not been already granted `role`, emits a {RoleGranted} event. Requirements: - the caller must have ``role``'s admin role."
      },
      "hasRole(bytes32,address)": {
        "details": "Returns `true` if `account` has been granted `role`."
      },
      "renounceRole(bytes32,address)": {
        "details": "Revokes `role` from the calling account. Roles are often managed via {grantRole} and {revokeRole}: this function's purpose is to provide a mechanism for accounts to lose their privileges if they are compromised (such as when a trusted device is misplaced). If the calling account had been revoked `role`, emits a {RoleRevoked} event. Requirements: - the caller must be `account`."
      },
      "revokeRole(bytes32,address)": {
        "details": "Revokes `role` from `account`. If `account` had been granted `role`, emits a {RoleRevoked} event. Requirements: - the caller must have ``role``'s admin role."
      },
      "supportsInterface(bytes4)": {
        "details": "See {IERC165-supportsInterface}."
      }
    },
    "version": 1
  },
  "userdoc": {
    "kind": "user",
    "methods": {},
    "version": 1
  }
}