{
  "contractName": "MinerRole",
  "abi": [
    {
      "inputs": [],
      "stateMutability": "nonpayable",
      "type": "constructor"
    },
    {
      "anonymous": false,
      "inputs": [
        {
          "indexed": true,
          "internalType": "bytes32",
          "name": "role",
          "type": "bytes32"
        },
        {
          "indexed": true,
          "internalType": "bytes32",
          "name": "previousAdminRole",
          "type": "bytes32"
        },
        {
          "indexed": true,
          "internalType": "bytes32",
          "name": "newAdminRole",
          "type": "bytes32"
        }
      ],
      "name": "RoleAdminChanged",
      "type": "event"
    },
    {
      "anonymous": false,
      "inputs": [
        {
          "indexed": true,
          "internalType": "bytes32",
          "name": "role",
          "type": "bytes32"
        },
        {
          "indexed": true,
          "internalType": "address",
          "name": "account",
          "type": "address"
        },
        {
          "indexed": true,
          "internalType": "address",
          "name": "sender",
          "type": "address"
        }
      ],
      "name": "RoleGranted",
      "type": "event"
    },
    {
      "anonymous": false,
      "inputs": [
        {
          "indexed": true,
          "internalType": "bytes32",
          "name": "role",
          "type": "bytes32"
        },
        {
          "indexed": true,
          "internalType": "address",
          "name": "account",
          "type": "address"
        },
        {
          "indexed": true,
          "internalType": "address",
          "name": "sender",
          "type": "address"
        }
      ],
      "name": "RoleRevoked",
      "type": "event"
    },
    {
      "inputs": [],
      "name": "DEFAULT_ADMIN_ROLE",
      "outputs": [
        {
          "internalType": "bytes32",
          "name": "",
          "type": "bytes32"
        }
      ],
      "stateMutability": "view",
      "type": "function",
      "constant": true
    },
    {
      "inputs": [],
      "name": "MINER_ROLE",
      "outputs": [
        {
          "internalType": "bytes32",
          "name": "",
          "type": "bytes32"
        }
      ],
      "stateMutability": "view",
      "type": "function",
      "constant": true
    },
    {
      "inputs": [
        {
          "internalType": "bytes32",
          "name": "role",
          "type": "bytes32"
        }
      ],
      "name": "getRoleAdmin",
      "outputs": [
        {
          "internalType": "bytes32",
          "name": "",
          "type": "bytes32"
        }
      ],
      "stateMutability": "view",
      "type": "function",
      "constant": true
    },
    {
      "inputs": [
        {
          "internalType": "bytes32",
          "name": "role",
          "type": "bytes32"
        },
        {
          "internalType": "address",
          "name": "account",
          "type": "address"
        }
      ],
      "name": "grantRole",
      "outputs": [],
      "stateMutability": "nonpayable",
      "type": "function"
    },
    {
      "inputs": [
        {
          "internalType": "bytes32",
          "name": "role",
          "type": "bytes32"
        },
        {
          "internalType": "address",
          "name": "account",
          "type": "address"
        }
      ],
      "name": "hasRole",
      "outputs": [
        {
          "internalType": "bool",
          "name": "",
          "type": "bool"
        }
      ],
      "stateMutability": "view",
      "type": "function",
      "constant": true
    },
    {
      "inputs": [
        {
          "internalType": "bytes32",
          "name": "role",
          "type": "bytes32"
        },
        {
          "internalType": "address",
          "name": "account",
          "type": "address"
        }
      ],
      "name": "renounceRole",
      "outputs": [],
      "stateMutability": "nonpayable",
      "type": "function"
    },
    {
      "inputs": [
        {
          "internalType": "bytes32",
          "name": "role",
          "type": "bytes32"
        },
        {
          "internalType": "address",
          "name": "account",
          "type": "address"
        }
      ],
      "name": "revokeRole",
      "outputs": [],
      "stateMutability": "nonpayable",
      "type": "function"
    },
    {
      "inputs": [
        {
          "internalType": "bytes4",
          "name": "interfaceId",
          "type": "bytes4"
        }
      ],
      "name": "supportsInterface",
      "outputs": [
        {
          "internalType": "bool",
          "name": "",
          "type": "bool"
        }
      ],
      "stateMutability": "view",
      "type": "function",
      "constant": true
    },
    {
      "inputs": [
        {
          "internalType": "address",
          "name": "account",
          "type": "address"
        }
      ],
      "name": "isMiner",
      "outputs": [
        {
          "internalType": "bool",
          "name": "",
          "type": "bool"
        }
      ],
      "stateMutability": "view",
      "type": "function",
      "constant": true
    },
    {
      "inputs": [
        {
          "internalType": "address",
          "name": "account",
          "type": "address"
        }
      ],
      "name": "addMiner",
      "outputs": [],
      "stateMutability": "nonpayable",
      "type": "function"
    },
    {
      "inputs": [],
      "name": "renounceMiner",
      "outputs": [],
      "stateMutability": "nonpayable",
      "type": "function"
    }
  ],
  "bytecode": "0x60806040523480156200001157600080fd5b506200001f60003362000030565b6200002a33620000b9565b620004da565b6200003c8282620000e8565b620000b5576000828152602081815260408083206001600160a01b03851684529091529020805460ff19166001179055620000743390565b6001600160a01b0316816001600160a01b0316837f2f8788117e7eff1d82e926ec794901d17c78024a50270940304540a733656f0d60405160405180910390a45b5050565b620000e57fa952726ef2588ad078edf35b066f7c7406e207cb0003bbaba8cb53eba9553e728262000113565b50565b6000828152602081815260408083206001600160a01b038516845290915290205460ff165b92915050565b60008281526020819052604090206001015462000131813362000142565b6200013d838362000030565b505050565b6200014e8282620000e8565b620000b557620001696001600160a01b0382166014620001ba565b62000176836020620001ba565b60405160200162000189929190620003a0565b60408051601f198184030181529082905262461bcd60e51b8252620001b19160040162000419565b60405180910390fd5b60606000620001cb83600262000464565b620001d89060026200047e565b6001600160401b03811115620001f257620001f262000494565b6040519080825280601f01601f1916602001820160405280156200021d576020820181803683370190505b509050600360fc1b816000815181106200023b576200023b620004aa565b60200101906001600160f81b031916908160001a905350600f60fb1b816001815181106200026d576200026d620004aa565b60200101906001600160f81b031916908160001a90535060006200029384600262000464565b620002a09060016200047e565b90505b600181111562000322576f181899199a1a9b1b9c1cb0b131b232b360811b85600f1660108110620002d857620002d8620004aa565b1a60f81b828281518110620002f157620002f1620004aa565b60200101906001600160f81b031916908160001a90535060049490941c936200031a81620004c0565b9050620002a3565b508315620003735760405162461bcd60e51b815260206004820181905260248201527f537472696e67733a20686578206c656e67746820696e73756666696369656e746044820152606401620001b1565b9392505050565b60005b83811015620003975781810151838201526020016200037d565b50506000910152565b7f416363657373436f6e74726f6c3a206163636f756e7420000000000000000000815260008351620003da8160178501602088016200037a565b7001034b99036b4b9b9b4b733903937b6329607d1b60179184019182015283516200040d8160288401602088016200037a565b01602801949350505050565b60208152600082518060208401526200043a8160408501602087016200037a565b601f01601f19169190910160400192915050565b634e487b7160e01b600052601160045260246000fd5b80820281158282048414176200010d576200010d6200044e565b808201808211156200010d576200010d6200044e565b634e487b7160e01b600052604160045260246000fd5b634e487b7160e01b600052603260045260246000fd5b600081620004d257620004d26200044e565b506000190190565b6108ba80620004ea6000396000f3fe608060405234801561001057600080fd5b50600436106100a95760003560e01c8063701b70ac11610071578063701b70ac1461014457806391d1485414610157578063a217fddf1461016a578063ae46352a14610172578063d547741f1461017a578063f3982e5e1461018d57600080fd5b806301ffc9a7146100ae578063248a9ca3146100d65780632f2ff15d1461010757806336568abe1461011c5780636394f6e61461012f575b600080fd5b6100c16100bc36600461066f565b6101a0565b60405190151581526020015b60405180910390f35b6100f96100e4366004610699565b60009081526020819052604090206001015490565b6040519081526020016100cd565b61011a6101153660046106ce565b6101d7565b005b61011a61012a3660046106ce565b610202565b6100f960008051602061086583398151915281565b6100c16101523660046106fa565b610285565b6100c16101653660046106ce565b61029b565b6100f9600081565b61011a6102c4565b61011a6101883660046106ce565b6102cf565b61011a61019b3660046106fa565b6102f5565b60006001600160e01b03198216637965db0b60e01b14806101d157506301ffc9a760e01b6001600160e01b03198316145b92915050565b6000828152602081905260409020600101546101f3813361034f565b6101fd83836103b3565b505050565b6001600160a01b03811633146102775760405162461bcd60e51b815260206004820152602f60248201527f416363657373436f6e74726f6c3a2063616e206f6e6c792072656e6f756e636560448201526e103937b632b9903337b91039b2b63360891b60648201526084015b60405180910390fd5b6102818282610437565b5050565b60006101d1600080516020610865833981519152835b6000918252602082815260408084206001600160a01b0393909316845291905290205460ff1690565b6102cd3361049c565b565b6000828152602081905260409020600101546102eb813361034f565b6101fd8383610437565b6102fe33610285565b6103435760405162461bcd60e51b815260206004820152601660248201527521b0b63632b91034b9903737ba10309036b4b732b91760511b604482015260640161026e565b61034c816104b4565b50565b610359828261029b565b61028157610371816001600160a01b031660146104cc565b61037c8360206104cc565b60405160200161038d929190610739565b60408051601f198184030181529082905262461bcd60e51b825261026e916004016107ae565b6103bd828261029b565b610281576000828152602081815260408083206001600160a01b03851684529091529020805460ff191660011790556103f33390565b6001600160a01b0316816001600160a01b0316837f2f8788117e7eff1d82e926ec794901d17c78024a50270940304540a733656f0d60405160405180910390a45050565b610441828261029b565b15610281576000828152602081815260408083206001600160a01b0385168085529252808320805460ff1916905551339285917ff6391f5c32d9c69d2a47ea670b442974b53935d1edc7fd64eb21e047a839171b9190a45050565b61034c600080516020610865833981519152826102cf565b61034c600080516020610865833981519152826101d7565b606060006104db8360026107f7565b6104e690600261080e565b67ffffffffffffffff8111156104fe576104fe610821565b6040519080825280601f01601f191660200182016040528015610528576020820181803683370190505b509050600360fc1b8160008151811061054357610543610837565b60200101906001600160f81b031916908160001a905350600f60fb1b8160018151811061057257610572610837565b60200101906001600160f81b031916908160001a90535060006105968460026107f7565b6105a190600161080e565b90505b6001811115610619576f181899199a1a9b1b9c1cb0b131b232b360811b85600f16601081106105d5576105d5610837565b1a60f81b8282815181106105eb576105eb610837565b60200101906001600160f81b031916908160001a90535060049490941c936106128161084d565b90506105a4565b5083156106685760405162461bcd60e51b815260206004820181905260248201527f537472696e67733a20686578206c656e67746820696e73756666696369656e74604482015260640161026e565b9392505050565b60006020828403121561068157600080fd5b81356001600160e01b03198116811461066857600080fd5b6000602082840312156106ab57600080fd5b5035919050565b80356001600160a01b03811681146106c957600080fd5b919050565b600080604083850312156106e157600080fd5b823591506106f1602084016106b2565b90509250929050565b60006020828403121561070c57600080fd5b610668826106b2565b60005b83811015610730578181015183820152602001610718565b50506000910152565b7f416363657373436f6e74726f6c3a206163636f756e7420000000000000000000815260008351610771816017850160208801610715565b7001034b99036b4b9b9b4b733903937b6329607d1b60179184019182015283516107a2816028840160208801610715565b01602801949350505050565b60208152600082518060208401526107cd816040850160208701610715565b601f01601f19169190910160400192915050565b634e487b7160e01b600052601160045260246000fd5b80820281158282048414176101d1576101d16107e1565b808201808211156101d1576101d16107e1565b634e487b7160e01b600052604160045260246000fd5b634e487b7160e01b600052603260045260246000fd5b60008161085c5761085c6107e1565b50600019019056fea952726ef2588ad078edf35b066f7c7406e207cb0003bbaba8cb53eba9553e72a2646970667358221220665d5462b10cf1d0cdb1bd232e437452cebab75bd5a7a37b24c593e23856c5d364736f6c63430008130033",
  "immutableReferences": {},
  "source": "// SPDX-License-Identifier: MIT\npragma solidity ^0.8.10;\n\n// Import the library 'AccessControl' from OpenZeppelin\nimport \"@openzeppelin/contracts/access/AccessControl.sol\";\n\n// Define a contract 'MinerRole' to manage this role - add, remove, check\ncontract MinerRole is AccessControl {\n\n  // Define a constant for the miner role\n  bytes32 public constant MINER_ROLE = keccak256(\"MINER_ROLE\");\n\n  // In the constructor, make the address that deploys this contract the 1st miner\n  constructor() {\n    _grantRole(DEFAULT_ADMIN_ROLE, msg.sender);\n    _addMiner(msg.sender);\n  }\n\n  // Define a modifier that checks if the caller has the miner role\n  modifier onlyMiner() {\n    require(isMiner(msg.sender), \"Caller is not a miner.\");\n    _;\n  }\n\n  // Define a function to check if an address has the miner role\n  function isMiner(address account) public view returns (bool) {\n    return hasRole(MINER_ROLE, account);\n  }\n\n  // Define a function to add the miner role to an address\n  function addMiner(address account) public onlyMiner {\n    _addMiner(account);\n  }\n\n  // Define a function to renounce the miner role\n  function renounceMiner() public {\n    _removeMiner(msg.sender);\n  }\n\n  // Define an internal function to add the miner role\n  function _addMiner(address account) internal {\n    grantRole(MINER_ROLE, account);\n  }\n\n  // Define an internal function to remove the miner role\n  function _removeMiner(address account) internal {\n    revokeRole(MINER_ROLE, account);\n  }\n}\n",
  "sourcePath": "/Users/mac/Desktop/GoldTracker/src/contracts/emeraldaccesscontrol/MinerRole.sol",
  "compiler": {
    "name": "solc",
    "version": "0.8.19+commit.7dd6d404.Emscripten.clang"
  },
  "schemaVersion": "3.4.16",
  "updatedAt": "2024-05-28T12:55:02.291Z",
  "networkType": "ethereum",
  "devdoc": {
    "events": {
      "RoleAdminChanged(bytes32,bytes32,bytes32)": {
        "details": "Emitted when `newAdminRole` is set as ``role``'s admin role, replacing `previousAdminRole` `DEFAULT_ADMIN_ROLE` is the starting admin for all roles, despite {RoleAdminChanged} not being emitted signaling this. _Available since v3.1._"
      },
      "RoleGranted(bytes32,address,address)": {
        "details": "Emitted when `account` is granted `role`. `sender` is the account that originated the contract call, an admin role bearer except when using {AccessControl-_setupRole}."
      },
      "RoleRevoked(bytes32,address,address)": {
        "details": "Emitted when `account` is revoked `role`. `sender` is the account that originated the contract call:   - if using `revokeRole`, it is the admin role bearer   - if using `renounceRole`, it is the role bearer (i.e. `account`)"
      }
    },
    "kind": "dev",
    "methods": {
      "getRoleAdmin(bytes32)": {
        "details": "Returns the admin role that controls `role`. See {grantRole} and {revokeRole}. To change a role's admin, use {_setRoleAdmin}."
      },
      "grantRole(bytes32,address)": {
        "details": "Grants `role` to `account`. If `account` had not been already granted `role`, emits a {RoleGranted} event. Requirements: - the caller must have ``role``'s admin role."
      },
      "hasRole(bytes32,address)": {
        "details": "Returns `true` if `account` has been granted `role`."
      },
      "renounceRole(bytes32,address)": {
        "details": "Revokes `role` from the calling account. Roles are often managed via {grantRole} and {revokeRole}: this function's purpose is to provide a mechanism for accounts to lose their privileges if they are compromised (such as when a trusted device is misplaced). If the calling account had been revoked `role`, emits a {RoleRevoked} event. Requirements: - the caller must be `account`."
      },
      "revokeRole(bytes32,address)": {
        "details": "Revokes `role` from `account`. If `account` had been granted `role`, emits a {RoleRevoked} event. Requirements: - the caller must have ``role``'s admin role."
      },
      "supportsInterface(bytes4)": {
        "details": "See {IERC165-supportsInterface}."
      }
    },
    "version": 1
  },
  "userdoc": {
    "kind": "user",
    "methods": {},
    "version": 1
  }
}