{
  "contractName": "MinerRole",
  "abi": [
    {
      "inputs": [],
      "stateMutability": "nonpayable",
      "type": "constructor"
    },
    {
      "anonymous": false,
      "inputs": [
        {
          "indexed": true,
          "internalType": "bytes32",
          "name": "role",
          "type": "bytes32"
        },
        {
          "indexed": true,
          "internalType": "bytes32",
          "name": "previousAdminRole",
          "type": "bytes32"
        },
        {
          "indexed": true,
          "internalType": "bytes32",
          "name": "newAdminRole",
          "type": "bytes32"
        }
      ],
      "name": "RoleAdminChanged",
      "type": "event"
    },
    {
      "anonymous": false,
      "inputs": [
        {
          "indexed": true,
          "internalType": "bytes32",
          "name": "role",
          "type": "bytes32"
        },
        {
          "indexed": true,
          "internalType": "address",
          "name": "account",
          "type": "address"
        },
        {
          "indexed": true,
          "internalType": "address",
          "name": "sender",
          "type": "address"
        }
      ],
      "name": "RoleGranted",
      "type": "event"
    },
    {
      "anonymous": false,
      "inputs": [
        {
          "indexed": true,
          "internalType": "bytes32",
          "name": "role",
          "type": "bytes32"
        },
        {
          "indexed": true,
          "internalType": "address",
          "name": "account",
          "type": "address"
        },
        {
          "indexed": true,
          "internalType": "address",
          "name": "sender",
          "type": "address"
        }
      ],
      "name": "RoleRevoked",
      "type": "event"
    },
    {
      "inputs": [],
      "name": "DEFAULT_ADMIN_ROLE",
      "outputs": [
        {
          "internalType": "bytes32",
          "name": "",
          "type": "bytes32"
        }
      ],
      "stateMutability": "view",
      "type": "function"
    },
    {
      "inputs": [],
      "name": "MINER_ROLE",
      "outputs": [
        {
          "internalType": "bytes32",
          "name": "",
          "type": "bytes32"
        }
      ],
      "stateMutability": "view",
      "type": "function"
    },
    {
      "inputs": [
        {
          "internalType": "bytes32",
          "name": "role",
          "type": "bytes32"
        }
      ],
      "name": "getRoleAdmin",
      "outputs": [
        {
          "internalType": "bytes32",
          "name": "",
          "type": "bytes32"
        }
      ],
      "stateMutability": "view",
      "type": "function"
    },
    {
      "inputs": [
        {
          "internalType": "bytes32",
          "name": "role",
          "type": "bytes32"
        },
        {
          "internalType": "address",
          "name": "account",
          "type": "address"
        }
      ],
      "name": "grantRole",
      "outputs": [],
      "stateMutability": "nonpayable",
      "type": "function"
    },
    {
      "inputs": [
        {
          "internalType": "bytes32",
          "name": "role",
          "type": "bytes32"
        },
        {
          "internalType": "address",
          "name": "account",
          "type": "address"
        }
      ],
      "name": "hasRole",
      "outputs": [
        {
          "internalType": "bool",
          "name": "",
          "type": "bool"
        }
      ],
      "stateMutability": "view",
      "type": "function"
    },
    {
      "inputs": [
        {
          "internalType": "bytes32",
          "name": "role",
          "type": "bytes32"
        },
        {
          "internalType": "address",
          "name": "account",
          "type": "address"
        }
      ],
      "name": "renounceRole",
      "outputs": [],
      "stateMutability": "nonpayable",
      "type": "function"
    },
    {
      "inputs": [
        {
          "internalType": "bytes32",
          "name": "role",
          "type": "bytes32"
        },
        {
          "internalType": "address",
          "name": "account",
          "type": "address"
        }
      ],
      "name": "revokeRole",
      "outputs": [],
      "stateMutability": "nonpayable",
      "type": "function"
    },
    {
      "inputs": [
        {
          "internalType": "bytes4",
          "name": "interfaceId",
          "type": "bytes4"
        }
      ],
      "name": "supportsInterface",
      "outputs": [
        {
          "internalType": "bool",
          "name": "",
          "type": "bool"
        }
      ],
      "stateMutability": "view",
      "type": "function"
    },
    {
      "inputs": [
        {
          "internalType": "address payable",
          "name": "account",
          "type": "address"
        }
      ],
      "name": "isMiner",
      "outputs": [
        {
          "internalType": "bool",
          "name": "",
          "type": "bool"
        }
      ],
      "stateMutability": "view",
      "type": "function"
    },
    {
      "inputs": [
        {
          "internalType": "address",
          "name": "account",
          "type": "address"
        }
      ],
      "name": "addMiner",
      "outputs": [],
      "stateMutability": "nonpayable",
      "type": "function"
    },
    {
      "inputs": [],
      "name": "renounceMiner",
      "outputs": [],
      "stateMutability": "nonpayable",
      "type": "function"
    }
  ],
  "bytecode": "0x60806040523480156200001157600080fd5b506200001f60003362000030565b6200002a33620000d1565b62000525565b6000828152602081815260408083206001600160a01b038516845290915290205460ff16620000cd576000828152602081815260408083206001600160a01b03851684529091529020805460ff191660011790556200008c3390565b6001600160a01b0316816001600160a01b0316837f2f8788117e7eff1d82e926ec794901d17c78024a50270940304540a733656f0d60405160405180910390a45b5050565b620000fd7fa952726ef2588ad078edf35b066f7c7406e207cb0003bbaba8cb53eba9553e728262000100565b50565b6000828152602081905260409020600101546200011d816200012e565b62000129838362000030565b505050565b620000fd81336000828152602081815260408083206001600160a01b038516845290915290205460ff16620000cd576200017381620001cd60201b6200034d1760201c565b620001898360206200035f620001eb821b17811c565b6040516020016200019c929190620003de565b60408051601f198184030181529082905262461bcd60e51b8252620001c49160040162000457565b60405180910390fd5b6060620001e56001600160a01b0383166014620001eb565b92915050565b60606000620001fc836002620004a2565b62000209906002620004c4565b6001600160401b03811115620002235762000223620004df565b6040519080825280601f01601f1916602001820160405280156200024e576020820181803683370190505b509050600360fc1b816000815181106200026c576200026c620004f5565b60200101906001600160f81b031916908160001a905350600f60fb1b816001815181106200029e576200029e620004f5565b60200101906001600160f81b031916908160001a9053506000620002c4846002620004a2565b620002d1906001620004c4565b90505b600181111562000353576f181899199a1a9b1b9c1cb0b131b232b360811b85600f1660108110620003095762000309620004f5565b1a60f81b828281518110620003225762000322620004f5565b60200101906001600160f81b031916908160001a90535060049490941c936200034b816200050b565b9050620002d4565b508315620003a45760405162461bcd60e51b815260206004820181905260248201527f537472696e67733a20686578206c656e67746820696e73756666696369656e746044820152606401620001c4565b9392505050565b60005b83811015620003c8578181015183820152602001620003ae565b83811115620003d8576000848401525b50505050565b7f416363657373436f6e74726f6c3a206163636f756e742000000000000000000081526000835162000418816017850160208801620003ab565b7001034b99036b4b9b9b4b733903937b6329607d1b60179184019182015283516200044b816028840160208801620003ab565b01602801949350505050565b602081526000825180602084015262000478816040850160208701620003ab565b601f01601f19169190910160400192915050565b634e487b7160e01b600052601160045260246000fd5b6000816000190483118215151615620004bf57620004bf6200048c565b500290565b60008219821115620004da57620004da6200048c565b500190565b634e487b7160e01b600052604160045260246000fd5b634e487b7160e01b600052603260045260246000fd5b6000816200051d576200051d6200048c565b506000190190565b6108e180620005356000396000f3fe608060405234801561001057600080fd5b50600436106100a95760003560e01c8063701b70ac11610071578063701b70ac1461014457806391d1485414610157578063a217fddf1461016a578063ae46352a14610172578063d547741f1461017a578063f3982e5e1461018d57600080fd5b806301ffc9a7146100ae578063248a9ca3146100d65780632f2ff15d1461010757806336568abe1461011c5780636394f6e61461012f575b600080fd5b6100c16100bc36600461067e565b6101a0565b60405190151581526020015b60405180910390f35b6100f96100e43660046106a8565b60009081526020819052604090206001015490565b6040519081526020016100cd565b61011a6101153660046106d6565b6101d7565b005b61011a61012a3660046106d6565b610201565b6100f960008051602061088c83398151915281565b6100c1610152366004610706565b610284565b6100c16101653660046106d6565b61029a565b6100f9600081565b61011a6102c3565b61011a6101883660046106d6565b6102ce565b61011a61019b366004610706565b6102f3565b60006001600160e01b03198216637965db0b60e01b14806101d157506301ffc9a760e01b6001600160e01b03198316145b92915050565b6000828152602081905260409020600101546101f281610502565b6101fc838361050c565b505050565b6001600160a01b03811633146102765760405162461bcd60e51b815260206004820152602f60248201527f416363657373436f6e74726f6c3a2063616e206f6e6c792072656e6f756e636560448201526e103937b632b9903337b91039b2b63360891b60648201526084015b60405180910390fd5b6102808282610590565b5050565b60006101d160008051602061088c833981519152835b6000918252602082815260408084206001600160a01b0393909316845291905290205460ff1690565b6102cc336105f5565b565b6000828152602081905260409020600101546102e981610502565b6101fc8383610590565b6102fc33610284565b6103415760405162461bcd60e51b815260206004820152601660248201527521b0b63632b91034b9903737ba10309036b4b732b91760511b604482015260640161026d565b61034a8161060d565b50565b60606101d16001600160a01b03831660145b6060600061036e836002610739565b610379906002610758565b67ffffffffffffffff81111561039157610391610770565b6040519080825280601f01601f1916602001820160405280156103bb576020820181803683370190505b509050600360fc1b816000815181106103d6576103d6610786565b60200101906001600160f81b031916908160001a905350600f60fb1b8160018151811061040557610405610786565b60200101906001600160f81b031916908160001a9053506000610429846002610739565b610434906001610758565b90505b60018111156104ac576f181899199a1a9b1b9c1cb0b131b232b360811b85600f166010811061046857610468610786565b1a60f81b82828151811061047e5761047e610786565b60200101906001600160f81b031916908160001a90535060049490941c936104a58161079c565b9050610437565b5083156104fb5760405162461bcd60e51b815260206004820181905260248201527f537472696e67733a20686578206c656e67746820696e73756666696369656e74604482015260640161026d565b9392505050565b61034a8133610625565b610516828261029a565b610280576000828152602081815260408083206001600160a01b03851684529091529020805460ff1916600117905561054c3390565b6001600160a01b0316816001600160a01b0316837f2f8788117e7eff1d82e926ec794901d17c78024a50270940304540a733656f0d60405160405180910390a45050565b61059a828261029a565b15610280576000828152602081815260408083206001600160a01b0385168085529252808320805460ff1916905551339285917ff6391f5c32d9c69d2a47ea670b442974b53935d1edc7fd64eb21e047a839171b9190a45050565b61034a60008051602061088c833981519152826102ce565b61034a60008051602061088c833981519152826101d7565b61062f828261029a565b6102805761063c8161034d565b61064783602061035f565b6040516020016106589291906107e3565b60408051601f198184030181529082905262461bcd60e51b825261026d91600401610858565b60006020828403121561069057600080fd5b81356001600160e01b0319811681146104fb57600080fd5b6000602082840312156106ba57600080fd5b5035919050565b6001600160a01b038116811461034a57600080fd5b600080604083850312156106e957600080fd5b8235915060208301356106fb816106c1565b809150509250929050565b60006020828403121561071857600080fd5b81356104fb816106c1565b634e487b7160e01b600052601160045260246000fd5b600081600019048311821515161561075357610753610723565b500290565b6000821982111561076b5761076b610723565b500190565b634e487b7160e01b600052604160045260246000fd5b634e487b7160e01b600052603260045260246000fd5b6000816107ab576107ab610723565b506000190190565b60005b838110156107ce5781810151838201526020016107b6565b838111156107dd576000848401525b50505050565b7f416363657373436f6e74726f6c3a206163636f756e742000000000000000000081526000835161081b8160178501602088016107b3565b7001034b99036b4b9b9b4b733903937b6329607d1b601791840191820152835161084c8160288401602088016107b3565b01602801949350505050565b60208152600082518060208401526108778160408501602087016107b3565b601f01601f1916919091016040019291505056fea952726ef2588ad078edf35b066f7c7406e207cb0003bbaba8cb53eba9553e72a26469706673582212209a2c22051d3e59741a8a548f145a39b5fbef6d5773fa9c6a07b9d87d275179a364736f6c634300080a0033",
  "immutableReferences": {},
  "source": "// SPDX-License-Identifier: MIT\r\npragma solidity ^0.8.10;\r\n\r\n// Import the library 'AccessControl' from OpenZeppelin\r\nimport \"@openzeppelin/contracts/access/AccessControl.sol\";\r\n\r\n// Define a contract 'MinerRole' to manage this role - add, remove, check\r\ncontract MinerRole is AccessControl {\r\n\r\n  // Define a constant for the miner role\r\n  bytes32 public constant MINER_ROLE = keccak256(\"MINER_ROLE\");\r\n\r\n  // In the constructor, make the address that deploys this contract the 1st miner\r\n  constructor() {\r\n    _grantRole(DEFAULT_ADMIN_ROLE, msg.sender);\r\n    _addMiner(msg.sender);\r\n  }\r\n\r\n  // Define a modifier that checks if the caller has the miner role\r\n  modifier onlyMiner() {\r\n    require(isMiner(payable(msg.sender)), \"Caller is not a miner.\");\r\n    _;\r\n  }\r\n\r\n  // Define a function to check if an address has the miner role\r\n  function isMiner(address payable account) public view returns (bool) {\r\n    return hasRole(MINER_ROLE, account);\r\n  }\r\n\r\n  // Define a function to add the miner role to an address\r\n  function addMiner(address account) public onlyMiner {\r\n    _addMiner(account);\r\n  }\r\n\r\n  // Define a function to renounce the miner role\r\n  function renounceMiner() public {\r\n    _removeMiner(msg.sender);\r\n  }\r\n\r\n  // Define an internal function to add the miner role\r\n  function _addMiner(address account) internal {\r\n    grantRole(MINER_ROLE, account);\r\n  }\r\n\r\n  // Define an internal function to remove the miner role\r\n  function _removeMiner(address account) internal {\r\n    revokeRole(MINER_ROLE, account);\r\n  }\r\n}\r\n",
  "sourcePath": "D:\\INE1\\S2\\SecurityProject2\\emeraldTracker\\src\\contracts\\emeraldaccesscontrol\\MinerRole.sol",
  "compiler": {
    "name": "solc",
    "version": "0.8.10+commit.fc410830.Emscripten.clang"
  },
  "schemaVersion": "3.4.16",
  "updatedAt": "2024-06-03T09:35:03.535Z",
  "devdoc": {
    "kind": "dev",
    "methods": {
      "getRoleAdmin(bytes32)": {
        "details": "Returns the admin role that controls `role`. See {grantRole} and {revokeRole}. To change a role's admin, use {_setRoleAdmin}."
      },
      "grantRole(bytes32,address)": {
        "details": "Grants `role` to `account`. If `account` had not been already granted `role`, emits a {RoleGranted} event. Requirements: - the caller must have ``role``'s admin role. May emit a {RoleGranted} event."
      },
      "hasRole(bytes32,address)": {
        "details": "Returns `true` if `account` has been granted `role`."
      },
      "renounceRole(bytes32,address)": {
        "details": "Revokes `role` from the calling account. Roles are often managed via {grantRole} and {revokeRole}: this function's purpose is to provide a mechanism for accounts to lose their privileges if they are compromised (such as when a trusted device is misplaced). If the calling account had been revoked `role`, emits a {RoleRevoked} event. Requirements: - the caller must be `account`. May emit a {RoleRevoked} event."
      },
      "revokeRole(bytes32,address)": {
        "details": "Revokes `role` from `account`. If `account` had been granted `role`, emits a {RoleRevoked} event. Requirements: - the caller must have ``role``'s admin role. May emit a {RoleRevoked} event."
      },
      "supportsInterface(bytes4)": {
        "details": "See {IERC165-supportsInterface}."
      }
    },
    "version": 1
  },
  "userdoc": {
    "kind": "user",
    "methods": {},
    "version": 1
  }
}