{
  "contractName": "SupplyChain",
  "abi": [
    {
      "inputs": [],
      "stateMutability": "nonpayable",
      "type": "constructor"
    },
    {
      "anonymous": false,
      "inputs": [
        {
          "indexed": false,
          "internalType": "uint256",
          "name": "upc",
          "type": "uint256"
        }
      ],
      "name": "Buyed",
      "type": "event"
    },
    {
      "anonymous": false,
      "inputs": [
        {
          "indexed": false,
          "internalType": "uint256",
          "name": "upc",
          "type": "uint256"
        }
      ],
      "name": "Certified",
      "type": "event"
    },
    {
      "anonymous": false,
      "inputs": [
        {
          "indexed": false,
          "internalType": "uint256",
          "name": "upc",
          "type": "uint256"
        }
      ],
      "name": "Delivered",
      "type": "event"
    },
    {
      "anonymous": false,
      "inputs": [
        {
          "indexed": false,
          "internalType": "uint256",
          "name": "upc",
          "type": "uint256"
        }
      ],
      "name": "ForSale",
      "type": "event"
    },
    {
      "anonymous": false,
      "inputs": [
        {
          "indexed": false,
          "internalType": "uint256",
          "name": "upc",
          "type": "uint256"
        }
      ],
      "name": "LabReceived",
      "type": "event"
    },
    {
      "anonymous": false,
      "inputs": [
        {
          "indexed": false,
          "internalType": "uint256",
          "name": "upc",
          "type": "uint256"
        }
      ],
      "name": "Manufactured",
      "type": "event"
    },
    {
      "anonymous": false,
      "inputs": [
        {
          "indexed": false,
          "internalType": "uint256",
          "name": "upc",
          "type": "uint256"
        }
      ],
      "name": "ManufacturerReceived",
      "type": "event"
    },
    {
      "anonymous": false,
      "inputs": [
        {
          "indexed": false,
          "internalType": "uint256",
          "name": "upc",
          "type": "uint256"
        }
      ],
      "name": "Mined",
      "type": "event"
    },
    {
      "anonymous": false,
      "inputs": [
        {
          "indexed": true,
          "internalType": "address",
          "name": "previousOwner",
          "type": "address"
        },
        {
          "indexed": true,
          "internalType": "address",
          "name": "newOwner",
          "type": "address"
        }
      ],
      "name": "OwnershipTransferred",
      "type": "event"
    },
    {
      "anonymous": false,
      "inputs": [
        {
          "indexed": false,
          "internalType": "uint256",
          "name": "upc",
          "type": "uint256"
        }
      ],
      "name": "PackedForLab",
      "type": "event"
    },
    {
      "anonymous": false,
      "inputs": [
        {
          "indexed": false,
          "internalType": "uint256",
          "name": "upc",
          "type": "uint256"
        }
      ],
      "name": "PackedForSale",
      "type": "event"
    },
    {
      "anonymous": false,
      "inputs": [
        {
          "indexed": false,
          "internalType": "uint256",
          "name": "upc",
          "type": "uint256"
        }
      ],
      "name": "Published",
      "type": "event"
    },
    {
      "anonymous": false,
      "inputs": [
        {
          "indexed": true,
          "internalType": "bytes32",
          "name": "role",
          "type": "bytes32"
        },
        {
          "indexed": true,
          "internalType": "bytes32",
          "name": "previousAdminRole",
          "type": "bytes32"
        },
        {
          "indexed": true,
          "internalType": "bytes32",
          "name": "newAdminRole",
          "type": "bytes32"
        }
      ],
      "name": "RoleAdminChanged",
      "type": "event"
    },
    {
      "anonymous": false,
      "inputs": [
        {
          "indexed": true,
          "internalType": "bytes32",
          "name": "role",
          "type": "bytes32"
        },
        {
          "indexed": true,
          "internalType": "address",
          "name": "account",
          "type": "address"
        },
        {
          "indexed": true,
          "internalType": "address",
          "name": "sender",
          "type": "address"
        }
      ],
      "name": "RoleGranted",
      "type": "event"
    },
    {
      "anonymous": false,
      "inputs": [
        {
          "indexed": true,
          "internalType": "bytes32",
          "name": "role",
          "type": "bytes32"
        },
        {
          "indexed": true,
          "internalType": "address",
          "name": "account",
          "type": "address"
        },
        {
          "indexed": true,
          "internalType": "address",
          "name": "sender",
          "type": "address"
        }
      ],
      "name": "RoleRevoked",
      "type": "event"
    },
    {
      "anonymous": false,
      "inputs": [
        {
          "indexed": false,
          "internalType": "uint256",
          "name": "upc",
          "type": "uint256"
        }
      ],
      "name": "Scaled",
      "type": "event"
    },
    {
      "anonymous": false,
      "inputs": [
        {
          "indexed": false,
          "internalType": "uint256",
          "name": "upc",
          "type": "uint256"
        }
      ],
      "name": "ShipToManufacture",
      "type": "event"
    },
    {
      "anonymous": false,
      "inputs": [
        {
          "indexed": false,
          "internalType": "uint256",
          "name": "upc",
          "type": "uint256"
        }
      ],
      "name": "ShipedToLab",
      "type": "event"
    },
    {
      "anonymous": false,
      "inputs": [
        {
          "indexed": false,
          "internalType": "uint256",
          "name": "upc",
          "type": "uint256"
        }
      ],
      "name": "ShippedToCustomer",
      "type": "event"
    },
    {
      "anonymous": false,
      "inputs": [
        {
          "indexed": false,
          "internalType": "uint256",
          "name": "upc",
          "type": "uint256"
        }
      ],
      "name": "ShippedToStore",
      "type": "event"
    },
    {
      "anonymous": false,
      "inputs": [
        {
          "indexed": false,
          "internalType": "uint256",
          "name": "upc",
          "type": "uint256"
        }
      ],
      "name": "Sold",
      "type": "event"
    },
    {
      "anonymous": false,
      "inputs": [
        {
          "indexed": false,
          "internalType": "uint256",
          "name": "upc",
          "type": "uint256"
        }
      ],
      "name": "StorageReceived",
      "type": "event"
    },
    {
      "anonymous": false,
      "inputs": [
        {
          "indexed": false,
          "internalType": "uint256",
          "name": "upc",
          "type": "uint256"
        }
      ],
      "name": "Stored",
      "type": "event"
    },
    {
      "inputs": [],
      "name": "CUSTODIAN_ROLE",
      "outputs": [
        {
          "internalType": "bytes32",
          "name": "",
          "type": "bytes32"
        }
      ],
      "stateMutability": "view",
      "type": "function"
    },
    {
      "inputs": [],
      "name": "CUSTOMER_ROLE",
      "outputs": [
        {
          "internalType": "bytes32",
          "name": "",
          "type": "bytes32"
        }
      ],
      "stateMutability": "view",
      "type": "function"
    },
    {
      "inputs": [],
      "name": "DEFAULT_ADMIN_ROLE",
      "outputs": [
        {
          "internalType": "bytes32",
          "name": "",
          "type": "bytes32"
        }
      ],
      "stateMutability": "view",
      "type": "function"
    },
    {
      "inputs": [],
      "name": "LABORATORY_ROLE",
      "outputs": [
        {
          "internalType": "bytes32",
          "name": "",
          "type": "bytes32"
        }
      ],
      "stateMutability": "view",
      "type": "function"
    },
    {
      "inputs": [],
      "name": "MANUFACTURER_ROLE",
      "outputs": [
        {
          "internalType": "bytes32",
          "name": "",
          "type": "bytes32"
        }
      ],
      "stateMutability": "view",
      "type": "function"
    },
    {
      "inputs": [],
      "name": "MINER_ROLE",
      "outputs": [
        {
          "internalType": "bytes32",
          "name": "",
          "type": "bytes32"
        }
      ],
      "stateMutability": "view",
      "type": "function"
    },
    {
      "inputs": [
        {
          "internalType": "address",
          "name": "account",
          "type": "address"
        }
      ],
      "name": "addCustodian",
      "outputs": [],
      "stateMutability": "nonpayable",
      "type": "function"
    },
    {
      "inputs": [
        {
          "internalType": "address",
          "name": "account",
          "type": "address"
        }
      ],
      "name": "addCustomer",
      "outputs": [],
      "stateMutability": "nonpayable",
      "type": "function"
    },
    {
      "inputs": [
        {
          "internalType": "address",
          "name": "account",
          "type": "address"
        }
      ],
      "name": "addLaboratory",
      "outputs": [],
      "stateMutability": "nonpayable",
      "type": "function"
    },
    {
      "inputs": [
        {
          "internalType": "address",
          "name": "account",
          "type": "address"
        }
      ],
      "name": "addManufacturer",
      "outputs": [],
      "stateMutability": "nonpayable",
      "type": "function"
    },
    {
      "inputs": [
        {
          "internalType": "address",
          "name": "account",
          "type": "address"
        }
      ],
      "name": "addMiner",
      "outputs": [],
      "stateMutability": "nonpayable",
      "type": "function"
    },
    {
      "inputs": [
        {
          "internalType": "bytes32",
          "name": "role",
          "type": "bytes32"
        }
      ],
      "name": "getRoleAdmin",
      "outputs": [
        {
          "internalType": "bytes32",
          "name": "",
          "type": "bytes32"
        }
      ],
      "stateMutability": "view",
      "type": "function"
    },
    {
      "inputs": [
        {
          "internalType": "bytes32",
          "name": "role",
          "type": "bytes32"
        },
        {
          "internalType": "address",
          "name": "account",
          "type": "address"
        }
      ],
      "name": "grantRole",
      "outputs": [],
      "stateMutability": "nonpayable",
      "type": "function"
    },
    {
      "inputs": [
        {
          "internalType": "bytes32",
          "name": "role",
          "type": "bytes32"
        },
        {
          "internalType": "address",
          "name": "account",
          "type": "address"
        }
      ],
      "name": "hasRole",
      "outputs": [
        {
          "internalType": "bool",
          "name": "",
          "type": "bool"
        }
      ],
      "stateMutability": "view",
      "type": "function"
    },
    {
      "inputs": [
        {
          "internalType": "address",
          "name": "account",
          "type": "address"
        }
      ],
      "name": "isCustodian",
      "outputs": [
        {
          "internalType": "bool",
          "name": "",
          "type": "bool"
        }
      ],
      "stateMutability": "view",
      "type": "function"
    },
    {
      "inputs": [
        {
          "internalType": "address",
          "name": "account",
          "type": "address"
        }
      ],
      "name": "isCustomer",
      "outputs": [
        {
          "internalType": "bool",
          "name": "",
          "type": "bool"
        }
      ],
      "stateMutability": "view",
      "type": "function"
    },
    {
      "inputs": [
        {
          "internalType": "address",
          "name": "account",
          "type": "address"
        }
      ],
      "name": "isLaboratory",
      "outputs": [
        {
          "internalType": "bool",
          "name": "",
          "type": "bool"
        }
      ],
      "stateMutability": "view",
      "type": "function"
    },
    {
      "inputs": [
        {
          "internalType": "address",
          "name": "account",
          "type": "address"
        }
      ],
      "name": "isManufacturer",
      "outputs": [
        {
          "internalType": "bool",
          "name": "",
          "type": "bool"
        }
      ],
      "stateMutability": "view",
      "type": "function"
    },
    {
      "inputs": [
        {
          "internalType": "address",
          "name": "account",
          "type": "address"
        }
      ],
      "name": "isMiner",
      "outputs": [
        {
          "internalType": "bool",
          "name": "",
          "type": "bool"
        }
      ],
      "stateMutability": "view",
      "type": "function"
    },
    {
      "inputs": [],
      "name": "owner",
      "outputs": [
        {
          "internalType": "address",
          "name": "",
          "type": "address"
        }
      ],
      "stateMutability": "view",
      "type": "function"
    },
    {
      "inputs": [],
      "name": "renounceCustodian",
      "outputs": [],
      "stateMutability": "nonpayable",
      "type": "function"
    },
    {
      "inputs": [],
      "name": "renounceCustomer",
      "outputs": [],
      "stateMutability": "nonpayable",
      "type": "function"
    },
    {
      "inputs": [],
      "name": "renounceLaboratory",
      "outputs": [],
      "stateMutability": "nonpayable",
      "type": "function"
    },
    {
      "inputs": [],
      "name": "renounceManufacturer",
      "outputs": [],
      "stateMutability": "nonpayable",
      "type": "function"
    },
    {
      "inputs": [],
      "name": "renounceMiner",
      "outputs": [],
      "stateMutability": "nonpayable",
      "type": "function"
    },
    {
      "inputs": [],
      "name": "renounceOwnership",
      "outputs": [],
      "stateMutability": "nonpayable",
      "type": "function"
    },
    {
      "inputs": [
        {
          "internalType": "bytes32",
          "name": "role",
          "type": "bytes32"
        },
        {
          "internalType": "address",
          "name": "account",
          "type": "address"
        }
      ],
      "name": "renounceRole",
      "outputs": [],
      "stateMutability": "nonpayable",
      "type": "function"
    },
    {
      "inputs": [
        {
          "internalType": "bytes32",
          "name": "role",
          "type": "bytes32"
        },
        {
          "internalType": "address",
          "name": "account",
          "type": "address"
        }
      ],
      "name": "revokeRole",
      "outputs": [],
      "stateMutability": "nonpayable",
      "type": "function"
    },
    {
      "inputs": [
        {
          "internalType": "bytes4",
          "name": "interfaceId",
          "type": "bytes4"
        }
      ],
      "name": "supportsInterface",
      "outputs": [
        {
          "internalType": "bool",
          "name": "",
          "type": "bool"
        }
      ],
      "stateMutability": "view",
      "type": "function"
    },
    {
      "inputs": [
        {
          "internalType": "address",
          "name": "newOwner",
          "type": "address"
        }
      ],
      "name": "transferOwnership",
      "outputs": [],
      "stateMutability": "nonpayable",
      "type": "function"
    },
    {
      "inputs": [],
      "name": "kill",
      "outputs": [],
      "stateMutability": "nonpayable",
      "type": "function"
    },
    {
      "inputs": [],
      "name": "withdraw",
      "outputs": [],
      "stateMutability": "nonpayable",
      "type": "function"
    },
    {
      "inputs": [
        {
          "internalType": "uint256",
          "name": "_sku",
          "type": "uint256"
        },
        {
          "internalType": "uint256",
          "name": "_upc",
          "type": "uint256"
        },
        {
          "internalType": "address payable",
          "name": "_originMinerID",
          "type": "address"
        },
        {
          "internalType": "string",
          "name": "_originMineName",
          "type": "string"
        },
        {
          "internalType": "string",
          "name": "_originMineInformation",
          "type": "string"
        },
        {
          "internalType": "string",
          "name": "_originMineLatitude",
          "type": "string"
        },
        {
          "internalType": "string",
          "name": "_originMineLongitude",
          "type": "string"
        }
      ],
      "name": "extractEmerald",
      "outputs": [],
      "stateMutability": "nonpayable",
      "type": "function"
    },
    {
      "inputs": [
        {
          "internalType": "uint256",
          "name": "_upc",
          "type": "uint256"
        },
        {
          "internalType": "string",
          "name": "_scaleInfo",
          "type": "string"
        }
      ],
      "name": "scaleEmerald",
      "outputs": [],
      "stateMutability": "nonpayable",
      "type": "function"
    },
    {
      "inputs": [
        {
          "internalType": "uint256",
          "name": "_upc",
          "type": "uint256"
        },
        {
          "internalType": "address payable",
          "name": "_laboratoryID",
          "type": "address"
        },
        {
          "internalType": "address payable",
          "name": "_custodianID",
          "type": "address"
        }
      ],
      "name": "packScaledEmerald",
      "outputs": [],
      "stateMutability": "nonpayable",
      "type": "function"
    },
    {
      "inputs": [
        {
          "internalType": "uint256",
          "name": "_upc",
          "type": "uint256"
        }
      ],
      "name": "shipToLaboratory",
      "outputs": [],
      "stateMutability": "nonpayable",
      "type": "function"
    },
    {
      "inputs": [
        {
          "internalType": "uint256",
          "name": "_upc",
          "type": "uint256"
        }
      ],
      "name": "laboratoryReceived",
      "outputs": [],
      "stateMutability": "nonpayable",
      "type": "function"
    },
    {
      "inputs": [
        {
          "internalType": "uint256",
          "name": "_upc",
          "type": "uint256"
        },
        {
          "internalType": "string",
          "name": "_certifiedProperties",
          "type": "string"
        }
      ],
      "name": "certifyEmerald",
      "outputs": [],
      "stateMutability": "nonpayable",
      "type": "function"
    },
    {
      "inputs": [
        {
          "internalType": "uint256",
          "name": "_upc",
          "type": "uint256"
        }
      ],
      "name": "shipToSecureStore",
      "outputs": [],
      "stateMutability": "nonpayable",
      "type": "function"
    },
    {
      "inputs": [
        {
          "internalType": "uint256",
          "name": "_upc",
          "type": "uint256"
        }
      ],
      "name": "secureStorageReceived",
      "outputs": [],
      "stateMutability": "nonpayable",
      "type": "function"
    },
    {
      "inputs": [
        {
          "internalType": "uint256",
          "name": "_upc",
          "type": "uint256"
        }
      ],
      "name": "storeEmerald",
      "outputs": [],
      "stateMutability": "nonpayable",
      "type": "function"
    },
    {
      "inputs": [
        {
          "internalType": "uint256",
          "name": "_upc",
          "type": "uint256"
        },
        {
          "internalType": "uint256",
          "name": "_marketPrice",
          "type": "uint256"
        }
      ],
      "name": "registerForSale",
      "outputs": [],
      "stateMutability": "nonpayable",
      "type": "function"
    },
    {
      "inputs": [
        {
          "internalType": "uint256",
          "name": "_upc",
          "type": "uint256"
        }
      ],
      "name": "buyFromMiner",
      "outputs": [],
      "stateMutability": "payable",
      "type": "function"
    },
    {
      "inputs": [
        {
          "internalType": "uint256",
          "name": "_upc",
          "type": "uint256"
        }
      ],
      "name": "shipToManufacturer",
      "outputs": [],
      "stateMutability": "nonpayable",
      "type": "function"
    },
    {
      "inputs": [
        {
          "internalType": "uint256",
          "name": "_upc",
          "type": "uint256"
        }
      ],
      "name": "receiveFromStorage",
      "outputs": [],
      "stateMutability": "nonpayable",
      "type": "function"
    },
    {
      "inputs": [
        {
          "internalType": "uint256",
          "name": "_upc",
          "type": "uint256"
        },
        {
          "internalType": "string",
          "name": "_manofactureInfo",
          "type": "string"
        },
        {
          "internalType": "uint256",
          "name": "_price",
          "type": "uint256"
        }
      ],
      "name": "manufactureEmerald",
      "outputs": [],
      "stateMutability": "nonpayable",
      "type": "function"
    },
    {
      "inputs": [
        {
          "internalType": "uint256",
          "name": "_upc",
          "type": "uint256"
        }
      ],
      "name": "packForSale",
      "outputs": [],
      "stateMutability": "nonpayable",
      "type": "function"
    },
    {
      "inputs": [
        {
          "internalType": "uint256",
          "name": "_upc",
          "type": "uint256"
        }
      ],
      "name": "publish",
      "outputs": [],
      "stateMutability": "nonpayable",
      "type": "function"
    },
    {
      "inputs": [
        {
          "internalType": "uint256",
          "name": "_upc",
          "type": "uint256"
        }
      ],
      "name": "buyFromManufacturer",
      "outputs": [],
      "stateMutability": "payable",
      "type": "function"
    },
    {
      "inputs": [
        {
          "internalType": "uint256",
          "name": "_upc",
          "type": "uint256"
        }
      ],
      "name": "shipToCustomer",
      "outputs": [],
      "stateMutability": "nonpayable",
      "type": "function"
    },
    {
      "inputs": [
        {
          "internalType": "uint256",
          "name": "_upc",
          "type": "uint256"
        }
      ],
      "name": "customerReceived",
      "outputs": [],
      "stateMutability": "nonpayable",
      "type": "function"
    },
    {
      "inputs": [
        {
          "internalType": "uint256",
          "name": "_upc",
          "type": "uint256"
        }
      ],
      "name": "fetchItemBufferOne",
      "outputs": [
        {
          "internalType": "bytes",
          "name": "",
          "type": "bytes"
        }
      ],
      "stateMutability": "view",
      "type": "function"
    },
    {
      "inputs": [
        {
          "internalType": "uint256",
          "name": "_upc",
          "type": "uint256"
        }
      ],
      "name": "fetchItemBufferTwo",
      "outputs": [
        {
          "internalType": "bytes",
          "name": "",
          "type": "bytes"
        }
      ],
      "stateMutability": "view",
      "type": "function"
    }
  ],
  "bytecode": "0x60806040523480156200001157600080fd5b506200001d33620000b2565b6200002a60003362000102565b62000035336200018b565b6200004260003362000102565b6200004d33620001ba565b6200005a60003362000102565b6200006533620001e6565b6200007260003362000102565b6200007d3362000212565b6200008a60003362000102565b62000095336200023e565b60016003819055600255620000ac60003362000102565b6200068d565b600080546001600160a01b038381166001600160a01b0319831681178455604051919092169283917f8be0079c531659141344cd1fd0a4f28419497f9722a3daafe3b4186f6b6457e09190a35050565b60008281526001602090815260408083206001600160a01b038516845290915290205460ff16620001875760008281526001602081815260408084206001600160a01b0386168086529252808420805460ff19169093179092559051339285917f2f8788117e7eff1d82e926ec794901d17c78024a50270940304540a733656f0d9190a45b5050565b620001b77fa952726ef2588ad078edf35b066f7c7406e207cb0003bbaba8cb53eba9553e728262000265565b50565b620001b77fc9f41f19cd323609a8840e20c19f0688fff7f2c7796dc69350af80f75835f8158262000265565b620001b77fe28434228950b641dbbc0178de89daa359a87c6ee0d8399aeace52a98fe902b98262000265565b620001b77feefb95e842a3287179d933b4460be539a1d5af11aa8b325bb45c5c8dc92de4ed8262000265565b620001b77f288a15c4a15d470e4cd9cad2f113b91206b520c26dbd3dd74627f0c057baa19c825b60008281526001602081905260409091200154620002838162000294565b6200028f838362000102565b505050565b620001b7813360008281526001602090815260408083206001600160a01b038516845290915290205460ff166200018757620002db816200033560201b62003b891760201c565b620002f183602062003b9b62000353821b17811c565b6040516020016200030492919062000546565b60408051601f198184030181529082905262461bcd60e51b82526200032c91600401620005bf565b60405180910390fd5b60606200034d6001600160a01b038316601462000353565b92915050565b60606000620003648360026200060a565b620003719060026200062c565b6001600160401b038111156200038b576200038b62000647565b6040519080825280601f01601f191660200182016040528015620003b6576020820181803683370190505b509050600360fc1b81600081518110620003d457620003d46200065d565b60200101906001600160f81b031916908160001a905350600f60fb1b816001815181106200040657620004066200065d565b60200101906001600160f81b031916908160001a90535060006200042c8460026200060a565b620004399060016200062c565b90505b6001811115620004bb576f181899199a1a9b1b9c1cb0b131b232b360811b85600f16601081106200047157620004716200065d565b1a60f81b8282815181106200048a576200048a6200065d565b60200101906001600160f81b031916908160001a90535060049490941c93620004b38162000673565b90506200043c565b5083156200050c5760405162461bcd60e51b815260206004820181905260248201527f537472696e67733a20686578206c656e67746820696e73756666696369656e7460448201526064016200032c565b9392505050565b60005b838110156200053057818101518382015260200162000516565b8381111562000540576000848401525b50505050565b7f416363657373436f6e74726f6c3a206163636f756e74200000000000000000008152600083516200058081601785016020880162000513565b7001034b99036b4b9b9b4b733903937b6329607d1b6017918401918201528351620005b381602884016020880162000513565b01602801949350505050565b6020815260008251806020840152620005e081604085016020870162000513565b601f01601f19169190910160400192915050565b634e487b7160e01b600052601160045260246000fd5b6000816000190483118215151615620006275762000627620005f4565b500290565b60008219821115620006425762000642620005f4565b500190565b634e487b7160e01b600052604160045260246000fd5b634e487b7160e01b600052603260045260246000fd5b600081620006855762000685620005f4565b506000190190565b6154b6806200069d6000396000f3fe60806040526004361061031a5760003560e01c806377c45913116101ab578063acfa50e3116100f7578063cc4ef11911610095578063f2edcc201161006f578063f2edcc2014610917578063f2fde38b14610937578063f3982e5e14610957578063fe5789dd1461097757600080fd5b8063cc4ef119146108c2578063d547741f146108e2578063de07f34e1461090257600080fd5b8063ae6bae4d116100d1578063ae6bae4d1461084b578063b4dc323c1461086b578063c1fac3d114610880578063c79445d0146108a057600080fd5b8063acfa50e3146107f6578063ad973d7414610816578063ae46352a1461083657600080fd5b80638da5cb5b116101645780639a11d1831161013e5780639a11d1831461078c578063a217fddf146107ac578063ac1f27c8146107c1578063ac98e6db146107e157600080fd5b80638da5cb5b1461072257806391d148541461074a578063965288b01461076a57600080fd5b806377c45913146106605780637b7313bb146106805780637fe21243146106a057806382ef5ee5146106c257806385d95b81146106e25780638ba2b4651461070257600080fd5b80633ccfd60b1161026a5780635f8a5afa1161022357806366225ff9116101fd57806366225ff9146105de578063701b70ac1461060b578063715018a61461062b57806375cd684a1461064057600080fd5b80635f8a5afa1461057c578063613883b11461059c5780636394f6e6146105bc57600080fd5b80633ccfd60b146104ea578063404203b9146104ff578063416451061461051f57806341c0e1b5146105325780635ae3da24146105475780635d4bc6381461056757600080fd5b806327706584116102d75780632f2ff15d116102b15780632f2ff15d1461046a57806334418cdc1461048a57806335c80c8c146104aa57806336568abe146104ca57600080fd5b8063277065841461040a57806328fd5e831461042a5780632a9f9b301461044a57600080fd5b806301ffc9a71461031f578063050711831461035457806317d4a491146103765780631ce5b81c14610396578063204d7923146103a9578063248a9ca3146103d9575b600080fd5b34801561032b57600080fd5b5061033f61033a36600461401a565b610997565b60405190151581526020015b60405180910390f35b34801561036057600080fd5b5061037461036f366004614044565b6109ce565b005b34801561038257600080fd5b5061033f610391366004614072565b610b7b565b6103746103a4366004614044565b610b95565b3480156103b557600080fd5b506103cb60008051602061544183398151915281565b60405190815260200161034b565b3480156103e557600080fd5b506103cb6103f4366004614044565b6000908152600160208190526040909120015490565b34801561041657600080fd5b5061033f610425366004614072565b61109e565b34801561043657600080fd5b5061033f610445366004614072565b6110b8565b34801561045657600080fd5b50610374610465366004614154565b6110d2565b34801561047657600080fd5b5061037461048536600461419b565b611396565b34801561049657600080fd5b506103746104a5366004614044565b6113c1565b3480156104b657600080fd5b5061033f6104c5366004614072565b611613565b3480156104d657600080fd5b506103746104e536600461419b565b61162d565b3480156104f657600080fd5b506103746116ab565b34801561050b57600080fd5b5061037461051a366004614072565b6116f0565b61037461052d366004614044565b61171e565b34801561053e57600080fd5b50610374611b64565b34801561055357600080fd5b506103746105623660046141cb565b611b6e565b34801561057357600080fd5b50610374611dfb565b34801561058857600080fd5b50610374610597366004614072565b611e04565b3480156105a857600080fd5b506103746105b736600461422b565b611e32565b3480156105c857600080fd5b506103cb60008051602061546183398151915281565b3480156105ea57600080fd5b506105fe6105f9366004614044565b611fcc565b60405161034b9190614358565b34801561061757600080fd5b5061033f610626366004614072565b612049565b34801561063757600080fd5b50610374612063565b34801561064c57600080fd5b5061037461065b366004614044565b612075565b34801561066c57600080fd5b506105fe61067b366004614044565b61221e565b34801561068c57600080fd5b5061037461069b366004614044565b612273565b3480156106ac57600080fd5b506103cb60008051602061542183398151915281565b3480156106ce57600080fd5b506103746106dd36600461436b565b6124bd565b3480156106ee57600080fd5b506103746106fd366004614072565b612764565b34801561070e57600080fd5b5061037461071d366004614154565b612792565b34801561072e57600080fd5b506000546040516001600160a01b03909116815260200161034b565b34801561075657600080fd5b5061033f61076536600461419b565b61299d565b34801561077657600080fd5b506103cb6000805160206153e183398151915281565b34801561079857600080fd5b506103746107a7366004614044565b6129c8565b3480156107b857600080fd5b506103cb600081565b3480156107cd57600080fd5b506103746107dc366004614044565b612c0f565b3480156107ed57600080fd5b50610374612e54565b34801561080257600080fd5b5061037461081136600461438d565b612e5d565b34801561082257600080fd5b50610374610831366004614072565b613185565b34801561084257600080fd5b506103746131b3565b34801561085757600080fd5b50610374610866366004614044565b6131bc565b34801561087757600080fd5b50610374613407565b34801561088c57600080fd5b5061037461089b366004614044565b613410565b3480156108ac57600080fd5b506103cb60008051602061540183398151915281565b3480156108ce57600080fd5b506103746108dd366004614044565b6135bf565b3480156108ee57600080fd5b506103746108fd36600461419b565b61376a565b34801561090e57600080fd5b50610374613790565b34801561092357600080fd5b50610374610932366004614044565b613799565b34801561094357600080fd5b50610374610952366004614072565b613948565b34801561096357600080fd5b50610374610972366004614072565b6139be565b34801561098357600080fd5b50610374610992366004614044565b6139ec565b60006001600160e01b03198216637965db0b60e01b14806109c857506301ffc9a760e01b6001600160e01b03198316145b92915050565b80601060008281526004602081815260409283902054835163ee8c834b60e01b815293516001600160a01b039091169363ee8c834b938181019392918290030181865afa158015610a23573d6000803e3d6000fd5b505050506040513d601f19601f82011682018060405250810190610a4791906143e5565b6012811115610a5857610a586143cf565b14610aaa5760405162461bcd60e51b815260206004820152601d60248201527f456d6572616c64206973206e6f7420696e20427579656420737461746500000060448201526064015b60405180910390fd5b610ab333610b7b565b610acf5760405162461bcd60e51b8152600401610aa190614406565b60008281526004602081905260409182902054915163e2c737d760e01b81526001600160a01b039092169163e2c737d791610b0d916011910161443d565b600060405180830381600087803b158015610b2757600080fd5b505af1158015610b3b573d6000803e3d6000fd5b505050507ea193261577ee619e49c2b31a1ea8cff95fb137044fb6ae297eda97430b8b7c82604051610b6f91815260200190565b60405180910390a15050565b60006109c86000805160206153e18339815191528361299d565b80600960008281526004602081815260409283902054835163ee8c834b60e01b815293516001600160a01b039091169363ee8c834b938181019392918290030181865afa158015610bea573d6000803e3d6000fd5b505050506040513d601f19601f82011682018060405250810190610c0e91906143e5565b6012811115610c1f57610c1f6143cf565b14610c6c5760405162461bcd60e51b815260206004820152601f60248201527f456d6572616c64206973206e6f7420696e20466f7253616c65207374617465006044820152606401610aa1565b60008281526004602081815260409283902054835163660e16c360e01b815293516001600160a01b039091169363660e16c3938181019392918290030181865afa158015610cbe573d6000803e3d6000fd5b505050506040513d601f19601f82011682018060405250810190610ce29190614465565b80341015610d275760405162461bcd60e51b8152602060048201526012602482015271496e73756666696369656e742066756e647360701b6044820152606401610aa1565b82610d3133610b7b565b610d4d5760405162461bcd60e51b8152600401610aa190614406565b6000848152600460208181526040808420548151631a8fa05b60e31b815291516001600160a01b039091169363d47d02d89383820193909291908290030181865afa158015610da0573d6000803e3d6000fd5b505050506040513d601f19601f82011682018060405250810190610dc4919061447e565b60008681526004602081815260409283902054835163660e16c360e01b815293516001600160a01b03958616959091169363660e16c3938181019392918290030181865afa158015610e1a573d6000803e3d6000fd5b505050506040513d601f19601f82011682018060405250810190610e3e9190614465565b604051600081818185875af1925050503d8060008114610e7a576040519150601f19603f3d011682016040523d82523d6000602084013e610e7f565b606091505b5050905080610ec25760405162461bcd60e51b815260206004820152600f60248201526e151c985b9cd9995c8819985a5b1959608a1b6044820152606401610aa1565b6000858152600460208190526040918290205491516370736bab60e11b815233918101919091526001600160a01b039091169063e0e6d75690602401600060405180830381600087803b158015610f1857600080fd5b505af1158015610f2c573d6000803e3d6000fd5b50505060008681526004602081905260409182902054915163e2c737d760e01b81526001600160a01b03909216925063e2c737d791610f6e91600a910161443d565b600060405180830381600087803b158015610f8857600080fd5b505af1158015610f9c573d6000803e3d6000fd5b505050507f92f64ca637d023f354075a4be751b169c1a8a9ccb6d33cdd0cb352054399572785604051610fd191815260200190565b60405180910390a150600081815260046020818152604080842054815163660e16c360e01b815291516001600160a01b039091169363660e16c39383820193909291908290030181865afa15801561102d573d6000803e3d6000fd5b505050506040513d601f19601f820116820180604052508101906110519190614465565b9050600061105f82346144b1565b9050801561109657604051339082156108fc029083906000818181858888f19350505050158015611094573d6000803e3d6000fd5b505b505050505050565b60006109c86000805160206154218339815191528361299d565b60006109c86000805160206154418339815191528361299d565b81600460008281526004602081815260409283902054835163ee8c834b60e01b815293516001600160a01b039091169363ee8c834b938181019392918290030181865afa158015611127573d6000803e3d6000fd5b505050506040513d601f19601f8201168201806040525081019061114b91906143e5565b601281111561115c5761115c6143cf565b146111b55760405162461bcd60e51b815260206004820152602360248201527f456d6572616c64206973206e6f7420696e204c6162526563656976656420737460448201526261746560e81b6064820152608401610aa1565b60008381526004602081815260409283902054835163b53fbe6b60e01b815293516001600160a01b039091169363b53fbe6b938181019392918290030181865afa158015611207573d6000803e3d6000fd5b505050506040513d601f19601f8201168201806040525081019061122b919061447e565b336001600160a01b038216146112535760405162461bcd60e51b8152600401610aa1906144c8565b61125c3361109e565b6112785760405162461bcd60e51b8152600401610aa1906144ff565b60008481526004602081905260409182902054915163460f7ed360e01b81526001600160a01b039092169163460f7ed3916112b591879101614358565b600060405180830381600087803b1580156112cf57600080fd5b505af11580156112e3573d6000803e3d6000fd5b50505060008581526004602081905260409182902054915163e2c737d760e01b81526001600160a01b03909216925063e2c737d791611325916005910161443d565b600060405180830381600087803b15801561133f57600080fd5b505af1158015611353573d6000803e3d6000fd5b505050507f4e8c48948db98a1fea8df39d874e32084414a172079b74467a267b66050069b58460405161138891815260200190565b60405180910390a150505050565b600082815260016020819052604090912001546113b281613d3e565b6113bc8383613d48565b505050565b80600360008281526004602081815260409283902054835163ee8c834b60e01b815293516001600160a01b039091169363ee8c834b938181019392918290030181865afa158015611416573d6000803e3d6000fd5b505050506040513d601f19601f8201168201806040525081019061143a91906143e5565b601281111561144b5761144b6143cf565b146114a45760405162461bcd60e51b815260206004820152602360248201527f456d6572616c64206973206e6f7420696e20536869706564546f4c616220737460448201526261746560e81b6064820152608401610aa1565b60008281526004602081815260409283902054835163b53fbe6b60e01b815293516001600160a01b039091169363b53fbe6b938181019392918290030181865afa1580156114f6573d6000803e3d6000fd5b505050506040513d601f19601f8201168201806040525081019061151a919061447e565b336001600160a01b038216146115425760405162461bcd60e51b8152600401610aa1906144c8565b61154b3361109e565b6115675760405162461bcd60e51b8152600401610aa1906144ff565b60008381526004602081905260409182902054915163e2c737d760e01b81526001600160a01b039092169163e2c737d7916115a391810161443d565b600060405180830381600087803b1580156115bd57600080fd5b505af11580156115d1573d6000803e3d6000fd5b505050507f86d4ba21bdad444b59beb1ce9c3ef6957c1e9d7183a2126a1edbdb2bbf29e9728360405161160691815260200190565b60405180910390a1505050565b60006109c86000805160206154018339815191528361299d565b6001600160a01b038116331461169d5760405162461bcd60e51b815260206004820152602f60248201527f416363657373436f6e74726f6c3a2063616e206f6e6c792072656e6f756e636560448201526e103937b632b9903337b91039b2b63360891b6064820152608401610aa1565b6116a78282613db3565b5050565b6116b3613e1a565b600080546040516001600160a01b03909116914780156108fc02929091818181858888f193505050501580156116ed573d6000803e3d6000fd5b50565b6116f93361109e565b6117155760405162461bcd60e51b8152600401610aa1906144ff565b6116ed81613e74565b80600f60008281526004602081815260409283902054835163ee8c834b60e01b815293516001600160a01b039091169363ee8c834b938181019392918290030181865afa158015611773573d6000803e3d6000fd5b505050506040513d601f19601f8201168201806040525081019061179791906143e5565b60128111156117a8576117a86143cf565b146117ff5760405162461bcd60e51b815260206004820152602160248201527f456d6572616c64206973206e6f7420696e205075626c697368656420737461746044820152606560f81b6064820152608401610aa1565b60008281526004602081815260409283902054835163660e16c360e01b815293516001600160a01b039091169363660e16c3938181019392918290030181865afa158015611851573d6000803e3d6000fd5b505050506040513d601f19601f820116820180604052508101906118759190614465565b803410156118ba5760405162461bcd60e51b8152602060048201526012602482015271496e73756666696369656e742066756e647360701b6044820152606401610aa1565b826118c4336110b8565b6118e05760405162461bcd60e51b8152600401610aa190614536565b60008481526004602081815260408084205481516318672aad60e31b815291516001600160a01b039091169363c33955689383820193909291908290030181865afa158015611933573d6000803e3d6000fd5b505050506040513d601f19601f82011682018060405250810190611957919061447e565b60008681526004602081815260409283902054835163660e16c360e01b815293516001600160a01b03958616959091169363660e16c3938181019392918290030181865afa1580156119ad573d6000803e3d6000fd5b505050506040513d601f19601f820116820180604052508101906119d19190614465565b604051600081818185875af1925050503d8060008114611a0d576040519150601f19603f3d011682016040523d82523d6000602084013e611a12565b606091505b5050905080611a555760405162461bcd60e51b815260206004820152600f60248201526e151c985b9cd9995c8819985a5b1959608a1b6044820152606401610aa1565b6000858152600460208190526040918290205491516313674e5b60e01b815233918101919091526001600160a01b03909116906313674e5b90602401600060405180830381600087803b158015611aab57600080fd5b505af1158015611abf573d6000803e3d6000fd5b50505060008681526004602081905260409182902054915163e2c737d760e01b81526001600160a01b03909216925063e2c737d791611b01916010910161443d565b600060405180830381600087803b158015611b1b57600080fd5b505af1158015611b2f573d6000803e3d6000fd5b505050507f4ef53258f94ddbc1ea550eda541d9d69e07d5fed0adf283093c58b494816276d85604051610fd191815260200190565b611b6c613e1a565b565b82600c60008281526004602081815260409283902054835163ee8c834b60e01b815293516001600160a01b039091169363ee8c834b938181019392918290030181865afa158015611bc3573d6000803e3d6000fd5b505050506040513d601f19601f82011682018060405250810190611be791906143e5565b6012811115611bf857611bf86143cf565b14611c5a5760405162461bcd60e51b815260206004820152602c60248201527f456d6572616c64206973206e6f7420696e204d616e756661637475726572526560448201526b63656976656420737461746560a01b6064820152608401610aa1565b611c6333610b7b565b611c7f5760405162461bcd60e51b8152600401610aa190614406565b6000848152600460208190526040918290205491516368c2014b60e01b81526001600160a01b03909216916368c2014b91611cbc91879101614358565b600060405180830381600087803b158015611cd657600080fd5b505af1158015611cea573d6000803e3d6000fd5b5050506000858152600460208190526040918290205491516359c0590160e11b81529081018590526001600160a01b03909116915063b380b20290602401600060405180830381600087803b158015611d4257600080fd5b505af1158015611d56573d6000803e3d6000fd5b50505060008581526004602081905260409182902054915163e2c737d760e01b81526001600160a01b03909216925063e2c737d791611d9891600d910161443d565b600060405180830381600087803b158015611db257600080fd5b505af1158015611dc6573d6000803e3d6000fd5b505050507fd29d8a68ca7c8c74be5579719d445aabfe230ed6e6a83aff475a663500eb76098460405161138891815260200190565b611b6c33613e8c565b611e0d33610b7b565b611e295760405162461bcd60e51b8152600401610aa190614406565b6116ed81613ea4565b611e3b33612049565b611e575760405162461bcd60e51b8152600401610aa19061456d565b6000604051611e659061400d565b604051809103906000f080158015611e81573d6000803e3d6000fd5b5060405163a50eeba960e01b81529091506001600160a01b0382169063a50eeba990611ebd908b908b908b908b908b908b908b9060040161459d565b600060405180830381600087803b158015611ed757600080fd5b505af1158015611eeb573d6000803e3d6000fd5b505060405163e2c737d760e01b81526001600160a01b038416925063e2c737d79150611f1c9060009060040161443d565b600060405180830381600087803b158015611f3657600080fd5b505af1158015611f4a573d6000803e3d6000fd5b505050600088815260046020526040812080546001600160a01b0319166001600160a01b0385161790556003805460019350909190611f8a908490614612565b90915550506040518781527f4229d50c63dbdc5551dd68e0a9879b01ac250cb31feaeba7588533462e6c7aaa9060200160405180910390a15050505050505050565b600081815260046020819052604080832054815163ca0a9b3160e01b815291516060946001600160a01b039092169363ca0a9b3193808201939291908290030181865afa158015612021573d6000803e3d6000fd5b505050506040513d6000823e601f3d908101601f191682016040526109c8919081019061462a565b60006109c86000805160206154618339815191528361299d565b61206b613e1a565b611b6c6000613ebc565b80600d60008281526004602081815260409283902054835163ee8c834b60e01b815293516001600160a01b039091169363ee8c834b938181019392918290030181865afa1580156120ca573d6000803e3d6000fd5b505050506040513d601f19601f820116820180604052508101906120ee91906143e5565b60128111156120ff576120ff6143cf565b146121585760405162461bcd60e51b8152602060048201526024808201527f456d6572616c64206973206e6f7420696e204d616e75666163747572656420736044820152637461746560e01b6064820152608401610aa1565b61216133610b7b565b61217d5760405162461bcd60e51b8152600401610aa190614406565b60008281526004602081905260409182902054915163e2c737d760e01b81526001600160a01b039092169163e2c737d7916121bb91600e910161443d565b600060405180830381600087803b1580156121d557600080fd5b505af11580156121e9573d6000803e3d6000fd5b505050507f37f2ca69e5ed18a5eefad38cfa64627ccc4f8fc353ff95164b86ff05b4adecf182604051610b6f91815260200190565b6000818152600460208190526040808320548151639f999da360e01b815291516060946001600160a01b0390921693639f999da393808201939291908290030181865afa158015612021573d6000803e3d6000fd5b80600660008281526004602081815260409283902054835163ee8c834b60e01b815293516001600160a01b039091169363ee8c834b938181019392918290030181865afa1580156122c8573d6000803e3d6000fd5b505050506040513d601f19601f820116820180604052508101906122ec91906143e5565b60128111156122fd576122fd6143cf565b146123595760405162461bcd60e51b815260206004820152602660248201527f456d6572616c64206973206e6f7420696e2053686970706564546f53746f726560448201526520737461746560d01b6064820152608401610aa1565b600082815260046020818152604092839020548351639d79188760e01b815293516001600160a01b0390911693639d791887938181019392918290030181865afa1580156123ab573d6000803e3d6000fd5b505050506040513d601f19601f820116820180604052508101906123cf919061447e565b336001600160a01b038216146123f75760405162461bcd60e51b8152600401610aa1906144c8565b61240033611613565b61241c5760405162461bcd60e51b8152600401610aa1906146a1565b60008381526004602081905260409182902054915163e2c737d760e01b81526001600160a01b039092169163e2c737d79161245a916007910161443d565b600060405180830381600087803b15801561247457600080fd5b505af1158015612488573d6000803e3d6000fd5b505050507fe0248fb10e8bac3feae3067ac136da09c137555ae8ea98ebc00f877ec8eceec88360405161160691815260200190565b81600860008281526004602081815260409283902054835163ee8c834b60e01b815293516001600160a01b039091169363ee8c834b938181019392918290030181865afa158015612512573d6000803e3d6000fd5b505050506040513d601f19601f8201168201806040525081019061253691906143e5565b6012811115612547576125476143cf565b146125945760405162461bcd60e51b815260206004820152601e60248201527f456d6572616c64206973206e6f7420696e2053746f72656420737461746500006044820152606401610aa1565b600083815260046020818152604092839020548351631a8fa05b60e31b815293516001600160a01b039091169363d47d02d8938181019392918290030181865afa1580156125e6573d6000803e3d6000fd5b505050506040513d601f19601f8201168201806040525081019061260a919061447e565b336001600160a01b038216146126325760405162461bcd60e51b8152600401610aa1906144c8565b61263b33612049565b6126575760405162461bcd60e51b8152600401610aa19061456d565b6000848152600460208190526040918290205491516359c0590160e11b81529081018590526001600160a01b039091169063b380b20290602401600060405180830381600087803b1580156126ab57600080fd5b505af11580156126bf573d6000803e3d6000fd5b50505060008581526004602081905260409182902054915163e2c737d760e01b81526001600160a01b03909216925063e2c737d791612701916009910161443d565b600060405180830381600087803b15801561271b57600080fd5b505af115801561272f573d6000803e3d6000fd5b505050507fa96ae0fc3224ebd79eebfe54bd130cc9cb94416cddd1f2386115e00b725324688460405161138891815260200190565b61276d33611613565b6127895760405162461bcd60e51b8152600401610aa1906146a1565b6116ed81613f0c565b816000808281526004602081815260409283902054835163ee8c834b60e01b815293516001600160a01b039091169363ee8c834b938181019392918290030181865afa1580156127e6573d6000803e3d6000fd5b505050506040513d601f19601f8201168201806040525081019061280a91906143e5565b601281111561281b5761281b6143cf565b146128685760405162461bcd60e51b815260206004820152601d60248201527f456d6572616c64206973206e6f7420696e204d696e65642073746174650000006044820152606401610aa1565b61287133612049565b61288d5760405162461bcd60e51b8152600401610aa19061456d565b60008381526004602081905260409182902054915163f960278d60e01b81526001600160a01b039092169163f960278d916128ca91869101614358565b600060405180830381600087803b1580156128e457600080fd5b505af11580156128f8573d6000803e3d6000fd5b50505060008481526004602081905260409182902054915163e2c737d760e01b81526001600160a01b03909216925063e2c737d79161293a916001910161443d565b600060405180830381600087803b15801561295457600080fd5b505af1158015612968573d6000803e3d6000fd5b505050507f7ff0145529d4114f4463081dc51c0f541adae9b04f3f72598fa8c979d50a64ea8360405161160691815260200190565b60009182526001602090815260408084206001600160a01b0393909316845291905290205460ff1690565b80600260008281526004602081815260409283902054835163ee8c834b60e01b815293516001600160a01b039091169363ee8c834b938181019392918290030181865afa158015612a1d573d6000803e3d6000fd5b505050506040513d601f19601f82011682018060405250810190612a4191906143e5565b6012811115612a5257612a526143cf565b14612aab5760405162461bcd60e51b8152602060048201526024808201527f456d6572616c64206973206e6f7420696e205061636b6564466f724c616220736044820152637461746560e01b6064820152608401610aa1565b600082815260046020818152604092839020548351631a8fa05b60e31b815293516001600160a01b039091169363d47d02d8938181019392918290030181865afa158015612afd573d6000803e3d6000fd5b505050506040513d601f19601f82011682018060405250810190612b21919061447e565b336001600160a01b03821614612b495760405162461bcd60e51b8152600401610aa1906144c8565b612b5233612049565b612b6e5760405162461bcd60e51b8152600401610aa19061456d565b60008381526004602081905260409182902054915163e2c737d760e01b81526001600160a01b039092169163e2c737d791612bac916003910161443d565b600060405180830381600087803b158015612bc657600080fd5b505af1158015612bda573d6000803e3d6000fd5b505050507f7b14d24fbd5b84854b9cff7c14059e2e6cef50d183cd227564b5c122bd7f01148360405161160691815260200190565b80600560008281526004602081815260409283902054835163ee8c834b60e01b815293516001600160a01b039091169363ee8c834b938181019392918290030181865afa158015612c64573d6000803e3d6000fd5b505050506040513d601f19601f82011682018060405250810190612c8891906143e5565b6012811115612c9957612c996143cf565b14612cf05760405162461bcd60e51b815260206004820152602160248201527f456d6572616c64206973206e6f7420696e2043657274696669656420737461746044820152606560f81b6064820152608401610aa1565b60008281526004602081815260409283902054835163b53fbe6b60e01b815293516001600160a01b039091169363b53fbe6b938181019392918290030181865afa158015612d42573d6000803e3d6000fd5b505050506040513d601f19601f82011682018060405250810190612d66919061447e565b336001600160a01b03821614612d8e5760405162461bcd60e51b8152600401610aa1906144c8565b612d973361109e565b612db35760405162461bcd60e51b8152600401610aa1906144ff565b60008381526004602081905260409182902054915163e2c737d760e01b81526001600160a01b039092169163e2c737d791612df1916006910161443d565b600060405180830381600087803b158015612e0b57600080fd5b505af1158015612e1f573d6000803e3d6000fd5b505050507f729452ead7b4677dc5dfd83eb1ef913235bb47c841006a0bfe0e471361d9b25a8360405161160691815260200190565b611b6c33613f24565b82600160008281526004602081815260409283902054835163ee8c834b60e01b815293516001600160a01b039091169363ee8c834b938181019392918290030181865afa158015612eb2573d6000803e3d6000fd5b505050506040513d601f19601f82011682018060405250810190612ed691906143e5565b6012811115612ee757612ee76143cf565b14612f345760405162461bcd60e51b815260206004820152601e60248201527f456d6572616c64206973206e6f7420696e205363616c656420737461746500006044820152606401610aa1565b600084815260046020818152604092839020548351631a8fa05b60e31b815293516001600160a01b039091169363d47d02d8938181019392918290030181865afa158015612f86573d6000803e3d6000fd5b505050506040513d601f19601f82011682018060405250810190612faa919061447e565b336001600160a01b03821614612fd25760405162461bcd60e51b8152600401610aa1906144c8565b612fdb33612049565b612ff75760405162461bcd60e51b8152600401610aa19061456d565b600085815260046020819052604091829020549151633cacd34b60e21b81526001600160a01b038781169282019290925291169063f2b34d2c90602401600060405180830381600087803b15801561304e57600080fd5b505af1158015613062573d6000803e3d6000fd5b505050600086815260046020819052604091829020549151631b1a22d360e01b81526001600160a01b038781169282019290925291169150631b1a22d390602401600060405180830381600087803b1580156130bd57600080fd5b505af11580156130d1573d6000803e3d6000fd5b50505060008681526004602081905260409182902054915163e2c737d760e01b81526001600160a01b03909216925063e2c737d791613113916002910161443d565b600060405180830381600087803b15801561312d57600080fd5b505af1158015613141573d6000803e3d6000fd5b505050507fa2064f0effc5e80d5e28029364cf9747d971c009f89b41ef00f9cabc7f99f19d8560405161317691815260200190565b60405180910390a15050505050565b61318e336110b8565b6131aa5760405162461bcd60e51b8152600401610aa190614536565b6116ed81613f3c565b611b6c33613f54565b80600760008281526004602081815260409283902054835163ee8c834b60e01b815293516001600160a01b039091169363ee8c834b938181019392918290030181865afa158015613211573d6000803e3d6000fd5b505050506040513d601f19601f8201168201806040525081019061323591906143e5565b6012811115613246576132466143cf565b146132a35760405162461bcd60e51b815260206004820152602760248201527f456d6572616c64206973206e6f7420696e2053746f72616765526563656976656044820152666420737461746560c81b6064820152608401610aa1565b600082815260046020818152604092839020548351639d79188760e01b815293516001600160a01b0390911693639d791887938181019392918290030181865afa1580156132f5573d6000803e3d6000fd5b505050506040513d601f19601f82011682018060405250810190613319919061447e565b336001600160a01b038216146133415760405162461bcd60e51b8152600401610aa1906144c8565b61334a33611613565b6133665760405162461bcd60e51b8152600401610aa1906146a1565b60008381526004602081905260409182902054915163e2c737d760e01b81526001600160a01b039092169163e2c737d7916133a4916008910161443d565b600060405180830381600087803b1580156133be57600080fd5b505af11580156133d2573d6000803e3d6000fd5b505050507fc6d8c0af6d21f291e7c359603aa97e0ed500f04db6e983b9fce75a91c6b8da6b8360405161160691815260200190565b611b6c33613f6c565b80601160008281526004602081815260409283902054835163ee8c834b60e01b815293516001600160a01b039091169363ee8c834b938181019392918290030181865afa158015613465573d6000803e3d6000fd5b505050506040513d601f19601f8201168201806040525081019061348991906143e5565b601281111561349a5761349a6143cf565b146134f95760405162461bcd60e51b815260206004820152602960248201527f456d6572616c64206973206e6f7420696e2053686970706564546f437573746f6044820152686d657220737461746560b81b6064820152608401610aa1565b613502336110b8565b61351e5760405162461bcd60e51b8152600401610aa190614536565b60008281526004602081905260409182902054915163e2c737d760e01b81526001600160a01b039092169163e2c737d79161355c916012910161443d565b600060405180830381600087803b15801561357657600080fd5b505af115801561358a573d6000803e3d6000fd5b505050507ffcc296b8bdd64e3f1d1faadef50cb2d6550f645316330fe57cb1dd7e0612ead082604051610b6f91815260200190565b80600e60008281526004602081815260409283902054835163ee8c834b60e01b815293516001600160a01b039091169363ee8c834b938181019392918290030181865afa158015613614573d6000803e3d6000fd5b505050506040513d601f19601f8201168201806040525081019061363891906143e5565b6012811115613649576136496143cf565b146136a45760405162461bcd60e51b815260206004820152602560248201527f456d6572616c64206973206e6f7420696e205061636b6564466f7253616c6520604482015264737461746560d81b6064820152608401610aa1565b6136ad33610b7b565b6136c95760405162461bcd60e51b8152600401610aa190614406565b60008281526004602081905260409182902054915163e2c737d760e01b81526001600160a01b039092169163e2c737d79161370791600f910161443d565b600060405180830381600087803b15801561372157600080fd5b505af1158015613735573d6000803e3d6000fd5b505050507f376bc3664e237a897179c3c1ddc5b8ef6318ad79c1b7819a305b0e23263f868d82604051610b6f91815260200190565b6000828152600160208190526040909120015461378681613d3e565b6113bc8383613db3565b611b6c33613f84565b80600b60008281526004602081815260409283902054835163ee8c834b60e01b815293516001600160a01b039091169363ee8c834b938181019392918290030181865afa1580156137ee573d6000803e3d6000fd5b505050506040513d601f19601f8201168201806040525081019061381291906143e5565b6012811115613823576138236143cf565b146138825760405162461bcd60e51b815260206004820152602960248201527f456d6572616c64206973206e6f7420696e2053686970546f4d616e756661637460448201526875726520737461746560b81b6064820152608401610aa1565b61388b33610b7b565b6138a75760405162461bcd60e51b8152600401610aa190614406565b60008281526004602081905260409182902054915163e2c737d760e01b81526001600160a01b039092169163e2c737d7916138e591600c910161443d565b600060405180830381600087803b1580156138ff57600080fd5b505af1158015613913573d6000803e3d6000fd5b505050507f87bea2641566ed387ce22c7eeb7149bf5cca2aeef1183c7bed5ac77424d6bce682604051610b6f91815260200190565b613950613e1a565b6001600160a01b0381166139b55760405162461bcd60e51b815260206004820152602660248201527f4f776e61626c653a206e6577206f776e657220697320746865207a65726f206160448201526564647265737360d01b6064820152608401610aa1565b6116ed81613ebc565b6139c733612049565b6139e35760405162461bcd60e51b8152600401610aa19061456d565b6116ed81613f9c565b80600a60008281526004602081815260409283902054835163ee8c834b60e01b815293516001600160a01b039091169363ee8c834b938181019392918290030181865afa158015613a41573d6000803e3d6000fd5b505050506040513d601f19601f82011682018060405250810190613a6591906143e5565b6012811115613a7657613a766143cf565b14613ac35760405162461bcd60e51b815260206004820152601c60248201527f456d6572616c64206973206e6f7420696e20536f6c64207374617465000000006044820152606401610aa1565b613acc33611613565b613ae85760405162461bcd60e51b8152600401610aa1906146a1565b60008281526004602081905260409182902054915163e2c737d760e01b81526001600160a01b039092169163e2c737d791613b2691600b910161443d565b600060405180830381600087803b158015613b4057600080fd5b505af1158015613b54573d6000803e3d6000fd5b505050507f747d6658cf85694c84b5e18d38c89b08e414c1ed0f5bf76379135634ce8e489c82604051610b6f91815260200190565b60606109c86001600160a01b03831660145b60606000613baa8360026146d8565b613bb5906002614612565b67ffffffffffffffff811115613bcd57613bcd61408f565b6040519080825280601f01601f191660200182016040528015613bf7576020820181803683370190505b509050600360fc1b81600081518110613c1257613c126146f7565b60200101906001600160f81b031916908160001a905350600f60fb1b81600181518110613c4157613c416146f7565b60200101906001600160f81b031916908160001a9053506000613c658460026146d8565b613c70906001614612565b90505b6001811115613ce8576f181899199a1a9b1b9c1cb0b131b232b360811b85600f1660108110613ca457613ca46146f7565b1a60f81b828281518110613cba57613cba6146f7565b60200101906001600160f81b031916908160001a90535060049490941c93613ce18161470d565b9050613c73565b508315613d375760405162461bcd60e51b815260206004820181905260248201527f537472696e67733a20686578206c656e67746820696e73756666696369656e746044820152606401610aa1565b9392505050565b6116ed8133613fb4565b613d52828261299d565b6116a75760008281526001602081815260408084206001600160a01b0386168086529252808420805460ff19169093179092559051339285917f2f8788117e7eff1d82e926ec794901d17c78024a50270940304540a733656f0d9190a45050565b613dbd828261299d565b156116a75760008281526001602090815260408083206001600160a01b0385168085529252808320805460ff1916905551339285917ff6391f5c32d9c69d2a47ea670b442974b53935d1edc7fd64eb21e047a839171b9190a45050565b6000546001600160a01b03163314611b6c5760405162461bcd60e51b815260206004820181905260248201527f4f776e61626c653a2063616c6c6572206973206e6f7420746865206f776e65726044820152606401610aa1565b6116ed60008051602061542183398151915282611396565b6116ed6000805160206154018339815191528261376a565b6116ed6000805160206153e183398151915282611396565b600080546001600160a01b038381166001600160a01b0319831681178455604051919092169283917f8be0079c531659141344cd1fd0a4f28419497f9722a3daafe3b4186f6b6457e09190a35050565b6116ed60008051602061540183398151915282611396565b6116ed6000805160206154418339815191528261376a565b6116ed60008051602061544183398151915282611396565b6116ed6000805160206154618339815191528261376a565b6116ed6000805160206154218339815191528261376a565b6116ed6000805160206153e18339815191528261376a565b6116ed60008051602061546183398151915282611396565b613fbe828261299d565b6116a757613fcb81613b89565b613fd6836020613b9b565b604051602001613fe7929190614724565b60408051601f198184030181529082905262461bcd60e51b8252610aa191600401614358565b610c478061479a83390190565b60006020828403121561402c57600080fd5b81356001600160e01b031981168114613d3757600080fd5b60006020828403121561405657600080fd5b5035919050565b6001600160a01b03811681146116ed57600080fd5b60006020828403121561408457600080fd5b8135613d378161405d565b634e487b7160e01b600052604160045260246000fd5b604051601f8201601f1916810167ffffffffffffffff811182821017156140ce576140ce61408f565b604052919050565b600067ffffffffffffffff8211156140f0576140f061408f565b50601f01601f191660200190565b600082601f83011261410f57600080fd5b813561412261411d826140d6565b6140a5565b81815284602083860101111561413757600080fd5b816020850160208301376000918101602001919091529392505050565b6000806040838503121561416757600080fd5b82359150602083013567ffffffffffffffff81111561418557600080fd5b614191858286016140fe565b9150509250929050565b600080604083850312156141ae57600080fd5b8235915060208301356141c08161405d565b809150509250929050565b6000806000606084860312156141e057600080fd5b83359250602084013567ffffffffffffffff8111156141fe57600080fd5b61420a868287016140fe565b925050604084013590509250925092565b80356142268161405d565b919050565b600080600080600080600060e0888a03121561424657600080fd5b873596506020880135955061425d6040890161421b565b9450606088013567ffffffffffffffff8082111561427a57600080fd5b6142868b838c016140fe565b955060808a013591508082111561429c57600080fd5b6142a88b838c016140fe565b945060a08a01359150808211156142be57600080fd5b6142ca8b838c016140fe565b935060c08a01359150808211156142e057600080fd5b506142ed8a828b016140fe565b91505092959891949750929550565b60005b838110156143175781810151838201526020016142ff565b83811115614326576000848401525b50505050565b600081518084526143448160208601602086016142fc565b601f01601f19169290920160200192915050565b602081526000613d37602083018461432c565b6000806040838503121561437e57600080fd5b50508035926020909101359150565b6000806000606084860312156143a257600080fd5b8335925060208401356143b48161405d565b915060408401356143c48161405d565b809150509250925092565b634e487b7160e01b600052602160045260246000fd5b6000602082840312156143f757600080fd5b815160138110613d3757600080fd5b6020808252601d908201527f43616c6c6572206973206e6f742061206d616e7566616374757265722e000000604082015260600190565b602081016013831061445f57634e487b7160e01b600052602160045260246000fd5b91905290565b60006020828403121561447757600080fd5b5051919050565b60006020828403121561449057600080fd5b8151613d378161405d565b634e487b7160e01b600052601160045260246000fd5b6000828210156144c3576144c361449b565b500390565b60208082526018908201527f43616c6c6572206973206e6f7420617574686f72697a65640000000000000000604082015260600190565b6020808252601b908201527f43616c6c6572206973206e6f742061206c61626f7261746f72792e0000000000604082015260600190565b60208082526019908201527f43616c6c6572206973206e6f74206120637573746f6d65722e00000000000000604082015260600190565b60208082526016908201527521b0b63632b91034b9903737ba10309036b4b732b91760511b604082015260600190565b87815286602082015260018060a01b038616604082015260e0606082015260006145ca60e083018761432c565b82810360808401526145dc818761432c565b905082810360a08401526145f0818661432c565b905082810360c0840152614604818561432c565b9a9950505050505050505050565b600082198211156146255761462561449b565b500190565b60006020828403121561463c57600080fd5b815167ffffffffffffffff81111561465357600080fd5b8201601f8101841361466457600080fd5b805161467261411d826140d6565b81815285602083850101111561468757600080fd5b6146988260208301602086016142fc565b95945050505050565b6020808252601a908201527f43616c6c6572206973206e6f74206120637573746f6469616e2e000000000000604082015260600190565b60008160001904831182151516156146f2576146f261449b565b500290565b634e487b7160e01b600052603260045260246000fd5b60008161471c5761471c61449b565b506000190190565b7f416363657373436f6e74726f6c3a206163636f756e742000000000000000000081526000835161475c8160178501602088016142fc565b7001034b99036b4b9b9b4b733903937b6329607d1b601791840191820152835161478d8160288401602088016142fc565b0160280194935050505056fe608060405234801561001057600080fd5b50610c27806100206000396000f3fe608060405234801561001057600080fd5b50600436106101c45760003560e01c80639f999da3116100f9578063d47d02d811610097578063e4729f2011610071578063e4729f20146103cc578063ee8c834b146103d4578063f2b34d2c146103e7578063f960278d1461041757600080fd5b8063d47d02d814610378578063e0e6d75614610389578063e2c737d7146103b957600080fd5b8063b380b202116100d3578063b380b2021461033b578063b53fbe6b1461034e578063c33955681461035f578063ca0a9b311461037057600080fd5b80639f999da31461030f578063a50eeba914610317578063b0a742b01461032a57600080fd5b806353d7483611610166578063686690e611610140578063686690e6146102db57806368c2014b146102e3578063748d02ea146102f65780639d791887146102fe57600080fd5b806353d74836146102a65780635499b035146102cb578063660e16c3146102d357600080fd5b80632041d8cc116101a25780632041d8cc14610249578063372d5e4514610251578063460f7ed314610281578063525cefae1461029457600080fd5b806313674e5b146101c957806317cd611b146101fb5780631b1a22d314610219575b600080fd5b6101f96101d7366004610761565b601180546001600160a01b0319166001600160a01b0392909216919091179055565b005b61020361042a565b60405161021091906107d0565b60405180910390f35b6101f9610227366004610761565b600f80546001600160a01b0319166001600160a01b0392909216919091179055565b6102036104bc565b6101f961025f366004610761565b600380546001600160a01b0319166001600160a01b0392909216919091179055565b6101f961028f366004610886565b6104cb565b6008545b604051908152602001610210565b6011546001600160a01b03165b6040516001600160a01b039091168152602001610210565b600154610298565b600d54610298565b600054610298565b6101f96102f1366004610886565b6104e2565b6102036104f5565b600f546001600160a01b03166102b3565b610203610504565b6101f96103253660046108c3565b61054f565b6002546001600160a01b03166102b3565b6101f9610349366004610994565b600d55565b600e546001600160a01b03166102b3565b6010546001600160a01b03166102b3565b610203610615565b6003546001600160a01b03166102b3565b6101f9610397366004610761565b601080546001600160a01b0319166001600160a01b0392909216919091179055565b6101f96103c73660046109ad565b610667565b61020361068e565b60095460ff166040516102109190610a06565b6101f96103f5366004610761565b600e80546001600160a01b0319166001600160a01b0392909216919091179055565b6101f9610425366004610886565b61069d565b60606006805461043990610a1a565b80601f016020809104026020016040519081016040528092919081815260200182805461046590610a1a565b80156104b25780601f10610487576101008083540402835291602001916104b2565b820191906000526020600020905b81548152906001019060200180831161049557829003601f168201915b5050505050905090565b60606004805461043990610a1a565b80516104de90600b9060208401906106ac565b5050565b80516104de90600c9060208401906106ac565b60606005805461043990610a1a565b60005460015460035460405160609361053b93909290916001600160a01b0390911690600490600590600690600790602001610af5565b604051602081830303815290604052905090565b60008790556001869055600380546001600160a01b0319166001600160a01b03871617905583516105879060049060208701906106ac565b50825161059b9060059060208601906106ac565b5081516105af9060069060208501906106ac565b5080516105c39060079060208401906106ac565b506105ce8688610b6a565b60085550506009805460ff1916905550506000600d555050600e80546001600160a01b0319908116909155600f805482169055601080548216905560118054909116905550565b600054600154600854600d54600954600e54600f5460105460115460405160609961053b99909890979096909560ff909116946001600160a01b03918216949082169390821692911690602001610b90565b6009805482919060ff19166001836012811115610686576106866109ce565b021790555050565b60606007805461043990610a1a565b80516104de90600a9060208401905b8280546106b890610a1a565b90600052602060002090601f0160209004810192826106da5760008555610720565b82601f106106f357805160ff1916838001178555610720565b82800160010185558215610720579182015b82811115610720578251825591602001919060010190610705565b5061072c929150610730565b5090565b5b8082111561072c5760008155600101610731565b80356001600160a01b038116811461075c57600080fd5b919050565b60006020828403121561077357600080fd5b61077c82610745565b9392505050565b6000815180845260005b818110156107a95760208185018101518683018201520161078d565b818111156107bb576000602083870101525b50601f01601f19169290920160200192915050565b60208152600061077c6020830184610783565b634e487b7160e01b600052604160045260246000fd5b600082601f83011261080a57600080fd5b813567ffffffffffffffff80821115610825576108256107e3565b604051601f8301601f19908116603f0116810190828211818310171561084d5761084d6107e3565b8160405283815286602085880101111561086657600080fd5b836020870160208301376000602085830101528094505050505092915050565b60006020828403121561089857600080fd5b813567ffffffffffffffff8111156108af57600080fd5b6108bb848285016107f9565b949350505050565b600080600080600080600060e0888a0312156108de57600080fd5b87359650602088013595506108f560408901610745565b9450606088013567ffffffffffffffff8082111561091257600080fd5b61091e8b838c016107f9565b955060808a013591508082111561093457600080fd5b6109408b838c016107f9565b945060a08a013591508082111561095657600080fd5b6109628b838c016107f9565b935060c08a013591508082111561097857600080fd5b506109858a828b016107f9565b91505092959891949750929550565b6000602082840312156109a657600080fd5b5035919050565b6000602082840312156109bf57600080fd5b81356013811061077c57600080fd5b634e487b7160e01b600052602160045260246000fd5b60138110610a0257634e487b7160e01b600052602160045260246000fd5b9052565b60208101610a1482846109e4565b92915050565b600181811c90821680610a2e57607f821691505b60208210811415610a4f57634e487b7160e01b600052602260045260246000fd5b50919050565b8054600090600181811c9080831680610a6f57607f831692505b6020808410821415610a9157634e487b7160e01b600052602260045260246000fd5b83885260208801828015610aac5760018114610abd57610ae8565b60ff19871682528282019750610ae8565b60008981526020902060005b87811015610ae257815484820152908601908401610ac9565b83019850505b5050505050505092915050565b87815286602082015260018060a01b038616604082015260e060608201526000610b2260e0830187610a55565b8281036080840152610b348187610a55565b905082810360a0840152610b488186610a55565b905082810360c0840152610b5c8185610a55565b9a9950505050505050505050565b60008219821115610b8b57634e487b7160e01b600052601160045260246000fd5b500190565b6000610120820190508a8252896020830152886040830152876060830152610bbb60808301886109e4565b6001600160a01b0395861660a083015293851660c082015291841660e0830152909216610100909201919091529594505050505056fea264697066735822122062a01610407c71898515f9da66427f8c3f80ceb94982ab518b3c45ebf2bd5c4464736f6c634300080a0033eefb95e842a3287179d933b4460be539a1d5af11aa8b325bb45c5c8dc92de4ede28434228950b641dbbc0178de89daa359a87c6ee0d8399aeace52a98fe902b9c9f41f19cd323609a8840e20c19f0688fff7f2c7796dc69350af80f75835f815288a15c4a15d470e4cd9cad2f113b91206b520c26dbd3dd74627f0c057baa19ca952726ef2588ad078edf35b066f7c7406e207cb0003bbaba8cb53eba9553e72a26469706673582212203bf88ec3e67aae1efacc48e0a2fe77069697bb50d3454614db310126ba279a3864736f6c634300080a0033",
  "immutableReferences": {},
  "source": "// SPDX-License-Identifier: MIT\r\npragma solidity ^0.8.10;\r\n\r\nimport \"@openzeppelin/contracts/access/AccessControl.sol\";\r\nimport \"@openzeppelin/contracts/access/Ownable.sol\";\r\nimport \"../emeraldaccesscontrol/MinerRole.sol\";\r\nimport \"../emeraldaccesscontrol/LaboratoryRole.sol\";\r\nimport \"../emeraldaccesscontrol/CustodianRole.sol\";\r\nimport \"../emeraldaccesscontrol/ManufacturerRole.sol\";\r\nimport \"../emeraldaccesscontrol/CustomerRole.sol\";\r\nimport \"./EmeraldStates.sol\";\r\nimport \"./Emerald.sol\";\r\n\r\n// Define a contract 'Supplychain'\r\ncontract  SupplyChain is Ownable, AccessControl, MinerRole, LaboratoryRole, CustodianRole, ManufacturerRole, CustomerRole {\r\n\r\n    // Define a variable called 'upc' for Universal Product Code (UPC)\r\n    uint256 upc;\r\n\r\n    // Define a variable called 'sku' for Stock Keeping Unit (SKU)\r\n    uint256 sku;\r\n\r\n    // Define a public mapping 'emeralds' that maps the UPC to an Emerald.\r\n    mapping (uint256 => Emerald) emeralds;\r\n\r\n    // Define a public mapping 'emeraldHistory' that maps the UPC to an array of TxHash, \r\n    // that track its journey through the supply chain -- to be sent from DApp.\r\n    mapping (uint256 => string[]) emeraldsHistory;\r\n\r\n    EmeraldStates.State constant defaultState = EmeraldStates.State.Mined;\r\n\r\n    // Define 17 events with the same 17 state values and accept 'upc' as input argument\r\n    event Mined(uint256 upc);\r\n    event Scaled(uint256 upc);\r\n    event PackedForLab(uint256 upc);\r\n    event ShipedToLab(uint256 upc);\r\n    event LabReceived(uint256 upc);\r\n    event Certified(uint256 upc);\r\n    event ShippedToStore(uint256 upc);\r\n    event StorageReceived(uint256 upc);\r\n    event Stored(uint256 upc);\r\n    event ForSale(uint256 upc);\r\n    event Sold(uint256 upc);\r\n    event ShipToManufacture(uint256 upc);\r\n    event ManufacturerReceived(uint256 upc);\r\n    event Manufactured(uint256 upc);\r\n    event PackedForSale(uint256 upc);\r\n    event Published(uint256 upc);\r\n    event Buyed(uint256 upc);\r\n    event ShippedToCustomer(uint256 upc);\r\n    event Delivered(uint256 upc);\r\n\r\n    // Define a modifer that verifies the Caller\r\n    modifier verifyCaller(address _address) {\r\n        require(msg.sender == _address, \"Caller is not authorized\");\r\n        _;\r\n    }\r\n\r\n    // Define a modifier that checks if the paid amount is sufficient to cover the price\r\n    modifier paidEnough(uint256 _price) {\r\n        require(msg.value >= _price, \"Insufficient funds\");\r\n        _;\r\n    }\r\n  \r\n    // Define a modifier that checks the price and refunds the remaining balance\r\n    modifier checkValue(uint256 _upc) {\r\n        _;\r\n        uint256 _price = emeralds[_upc].getMarketPrice();\r\n        uint256 amountToReturn = msg.value - _price;\r\n        if (amountToReturn > 0) {\r\n            payable(msg.sender).transfer(amountToReturn);\r\n        }\r\n    }\r\n\r\n    // Checks if a emerald is Mined\r\n    modifier mined(uint256 _upc) {\r\n        require(emeralds[_upc].getEmeraldState() == EmeraldStates.State.Mined, \"Emerald is not in Mined state\");\r\n        _;\r\n    }\r\n\r\n    //Checks if an emerald was scaled\r\n    modifier scaled(uint256 _upc) {\r\n        require(emeralds[_upc].getEmeraldState() == EmeraldStates.State.Scaled, \"Emerald is not in Scaled state\");\r\n        _;\r\n    }\r\n  \r\n    //Checks if an emerald is packed\r\n    modifier packedForLab(uint256 _upc) {\r\n        require(emeralds[_upc].getEmeraldState() == EmeraldStates.State.PackedForLab, \"Emerald is not in PackedForLab state\");\r\n        _;\r\n    }\r\n\r\n    // Checks if an emerald was shipped to the laboratory\r\n    modifier shipedToLab(uint256 _upc) {\r\n        require(emeralds[_upc].getEmeraldState() == EmeraldStates.State.ShipedToLab, \"Emerald is not in ShipedToLab state\");\r\n        _;\r\n    }\r\n\r\n    // Checks if an emerald was received by the Laboratory\r\n    modifier labReceived(uint256 _upc) {\r\n        require(emeralds[_upc].getEmeraldState() == EmeraldStates.State.LabReceived, \"Emerald is not in LabReceived state\");\r\n        _;\r\n    }\r\n  \r\n    // Checks if an emerald was certified by the laboratory\r\n    modifier certified(uint256 _upc) {\r\n        require(emeralds[_upc].getEmeraldState() == EmeraldStates.State.Certified, \"Emerald is not in Certified state\");\r\n        _;\r\n    }\r\n\r\n    // Checks if an emerald was shipped to the storage by the laboratory\r\n    modifier shippedToStore(uint256 _upc) {\r\n        require(emeralds[_upc].getEmeraldState() == EmeraldStates.State.ShippedToStore, \"Emerald is not in ShippedToStore state\");\r\n        _;\r\n    }\r\n\r\n    // Checks if an emerald was received by the custodian service\r\n    modifier storageReceived(uint256 _upc) {\r\n        require(emeralds[_upc].getEmeraldState() == EmeraldStates.State.StorageReceived, \"Emerald is not in StorageReceived state\");\r\n        _;\r\n    }  \r\n\r\n    // Checks if an emerald was stored by the custodian\r\n    modifier stored(uint256 _upc) {\r\n        require(emeralds[_upc].getEmeraldState() == EmeraldStates.State.Stored, \"Emerald is not in Stored state\");\r\n        _;\r\n    }\r\n\r\n    // Checks if a raw emerald is available for sale\r\n    modifier forSale(uint256 _upc) {\r\n        require(emeralds[_upc].getEmeraldState() == EmeraldStates.State.ForSale, \"Emerald is not in ForSale state\");\r\n        _;\r\n    }\r\n\r\n    // Checks if a raw emerald was sold\r\n    modifier sold(uint256 _upc) {\r\n        require(emeralds[_upc].getEmeraldState() == EmeraldStates.State.Sold, \"Emerald is not in Sold state\");\r\n        _;\r\n    }\r\n  \r\n    // Checks if a sold emerald was shipped to the buyer\r\n    modifier shiptoManufacture(uint256 _upc) {\r\n        require(emeralds[_upc].getEmeraldState() == EmeraldStates.State.ShipToManufacture, \"Emerald is not in ShipToManufacture state\");\r\n        _;\r\n    }\r\n\r\n    // Checks if an emerald was received by the manufacturer\r\n    modifier manufacturerReceived(uint256 _upc) {\r\n        require(emeralds[_upc].getEmeraldState() == EmeraldStates.State.ManufacturerReceived, \"Emerald is not in ManufacturerReceived state\");\r\n        _;\r\n    }\r\n\r\n    // Checks if an emerald was processed by the manufacturer\r\n    modifier manufactured(uint256 _upc) {\r\n        require(emeralds[_upc].getEmeraldState() == EmeraldStates.State.Manufactured, \"Emerald is not in Manufactured state\");\r\n        _;\r\n    }\r\n\r\n    // Checks if a cut emerald was packed\r\n    modifier packedForSale(uint256 _upc) {\r\n        require(emeralds[_upc].getEmeraldState() == EmeraldStates.State.PackedForSale, \"Emerald is not in PackedForSale state\");\r\n        _;\r\n    }\r\n  \r\n    // Checks if a processed emerald is ready for sale\r\n    modifier published(uint256 _upc) {\r\n        require(emeralds[_upc].getEmeraldState() == EmeraldStates.State.Published, \"Emerald is not in Published state\");\r\n        _;\r\n    }\r\n\r\n    // Checks if a processed emerald was purchased\r\n    modifier buyed(uint256 _upc) {\r\n        require(emeralds[_upc].getEmeraldState() == EmeraldStates.State.Buyed, \"Emerald is not in Buyed state\");\r\n        _;\r\n    }\r\n\r\n    // Checks if a cut emerald was shipped to the buyer\r\n    modifier shippedToCustomer(uint256 _upc) {\r\n        require(emeralds[_upc].getEmeraldState() == EmeraldStates.State.ShippedToCustomer, \"Emerald is not in ShippedToCustomer state\");\r\n        _;\r\n    }\r\n\r\n    // Checks if a cut emerald was received by the customer\r\n    modifier delivered(uint256 _upc) {\r\n        require(emeralds[_upc].getEmeraldState() == EmeraldStates.State.Delivered, \"Emerald is not in Delivered state\");\r\n        _;\r\n    }\r\n\r\n    // In the constructor set 'owner' to the address that instantiated the contract\r\n    // and set 'sku' to 1\r\n    // and set 'upc' to 1\r\n    constructor() {\r\n        //owner = msg.sender;\r\n        sku = 1;\r\n        upc = 1;\r\n        _grantRole(DEFAULT_ADMIN_ROLE, msg.sender);\r\n    }\r\n\r\n    // Define a function 'kill' if required\r\n    function kill() public onlyOwner {\r\n        //selfdestruct(payable(msg.sender));\r\n    }\r\n\r\n    function withdraw() public onlyOwner {\r\n        payable(owner()).transfer(address(this).balance);\r\n    }\r\n\r\n\r\n    // Define a function 'extractEmerald' that allows a Miner to mark an emerald as 'Mined'\r\n    function extractEmerald(\r\n        uint256 _sku,\r\n        uint256 _upc,\r\n        address payable _originMinerID,\r\n        string memory _originMineName,\r\n        string memory _originMineInformation, \r\n        string memory _originMineLatitude, \r\n        string memory _originMineLongitude  \r\n    )\r\n        public\r\n        onlyMiner\r\n    {\r\n        // Add emerald to emeralds list in the contract\r\n        Emerald emerald = new Emerald();\r\n        emerald.setExtractionInfo(\r\n            _sku,\r\n            _upc,\r\n            _originMinerID,\r\n            _originMineName,\r\n            _originMineInformation, \r\n            _originMineLatitude, \r\n            _originMineLongitude      \r\n        );\r\n\r\n        emerald.setEmeraldState(EmeraldStates.State.Mined);\r\n\r\n        emeralds[_upc] = emerald;\r\n\r\n        // Increment sku\r\n        sku += 1;\r\n\r\n        // Emit the appropriate event\r\n        emit Mined(_upc);\r\n    }\r\n\r\n    // Define a function 'scaleEmerald' that allows Miner to mark an item as 'Scaled'\r\n    function scaleEmerald(uint256 _upc, string memory _scaleInfo) \r\n        public\r\n        // Call modifier to check if upc has passed previous supply chain stage\r\n        mined(_upc)\r\n        // Call modifier to verify caller of this function\r\n        //verifyCaller(emeralds[_upc].getOriginMinerID())\r\n        onlyMiner \r\n    {\r\n        // Update the appropriate fields\r\n        emeralds[_upc].setScaleInfo(_scaleInfo);\r\n        emeralds[_upc].setEmeraldState(EmeraldStates.State.Scaled);\r\n\r\n        // Emit the appropriate event\r\n        emit Scaled(_upc);  \r\n    }\r\n\r\n    // Define a function 'packScaledEmerald' that allows a Miner to mark an item 'PackedForLab'\r\n    function packScaledEmerald(uint256 _upc, address payable _laboratoryID, address payable _custodianID)\r\n        public \r\n        // Call modifier to check if upc has passed previous supply chain stage\r\n        scaled(_upc)\r\n        // Call modifier to verify caller of this function\r\n        verifyCaller(emeralds[_upc].getOriginMinerID())\r\n        onlyMiner \r\n    {\r\n        // Update the appropriate fields\r\n        emeralds[_upc].authorizeLab(_laboratoryID);\r\n        emeralds[_upc].authorizeCustodian(_custodianID);\r\n        \r\n        // Update Emerald state\r\n        emeralds[_upc].setEmeraldState(EmeraldStates.State.PackedForLab);\r\n\r\n        // Emit the appropriate event\r\n        emit PackedForLab(_upc);\r\n    }\r\n\r\n    // Define a function 'shipToLaboratory' that allows a Miner to mark an item 'ShipedToLab'\r\n    function shipToLaboratory(uint256 _upc)\r\n        public \r\n        // Call modifier to check if upc has passed previous supply chain stage\r\n        packedForLab(_upc)\r\n        // Call modifier to verify caller of this function\r\n        verifyCaller(emeralds[_upc].getOriginMinerID())\r\n        onlyMiner \r\n    {\r\n        // Update the appropriate fields\r\n        emeralds[_upc].setEmeraldState(EmeraldStates.State.ShipedToLab);\r\n\r\n        // Emit the appropriate event\r\n        emit ShipedToLab(_upc);\r\n    }\r\n\r\n    // Define a function 'laboratoryReceived' that allows a Miner to mark an item 'LabReceived'\r\n    function laboratoryReceived(uint256 _upc)\r\n        public \r\n        // Call modifier to check if upc has passed previous supply chain stage\r\n        shipedToLab(_upc)\r\n        // Call modifier to verify caller of this function\r\n        verifyCaller(emeralds[_upc].getLaboratoryID())\r\n        onlyLaboratory\r\n    {\r\n        // Update the appropriate fields\r\n        emeralds[_upc].setEmeraldState(EmeraldStates.State.LabReceived);\r\n\r\n        // Emit the appropriate event\r\n        emit LabReceived(_upc);\r\n    }\r\n\r\n    // Define a function 'certifyEmerald' that allows a Miner to mark an item 'Certified'\r\n    function certifyEmerald(uint256 _upc, string memory _certifiedProperties) \r\n        public\r\n        // Call modifier to check if upc has passed previous supply chain stage\r\n        labReceived(_upc)\r\n        // Call modifier to verify caller of this function\r\n        verifyCaller(emeralds[_upc].getLaboratoryID())\r\n        onlyLaboratory \r\n    {\r\n        // Update the appropriate fields\r\n        emeralds[_upc].setCertifiedInfo(_certifiedProperties);\r\n        emeralds[_upc].setEmeraldState(EmeraldStates.State.Certified);\r\n\r\n        // Emit the appropriate event\r\n        emit Certified(_upc);  \r\n    }\r\n\r\n    // Define a function 'shipToSecureStore' that allows a Miner to mark an item 'ShippedToStore'\r\n    function shipToSecureStore(uint256 _upc)\r\n        public \r\n        // Call modifier to check if upc has passed previous supply chain stage\r\n        certified(_upc)\r\n        // Call modifier to verify caller of this function\r\n        verifyCaller(emeralds[_upc].getLaboratoryID())\r\n        onlyLaboratory\r\n    {\r\n        // Update the appropriate fields\r\n        emeralds[_upc].setEmeraldState(EmeraldStates.State.ShippedToStore);\r\n\r\n        // Emit the appropriate event\r\n        emit ShippedToStore(_upc);\r\n    }   \r\n\r\n    // Define a function 'secureStorageReceived' that allows a Miner to mark an item 'StorageReceived'\r\n    function secureStorageReceived(uint256 _upc)\r\n        public \r\n        // Call modifier to check if upc has passed previous supply chain stage\r\n        shippedToStore(_upc)\r\n        // Call modifier to verify caller of this function\r\n        verifyCaller(emeralds[_upc].getCustodianID())\r\n        onlyCustodian\r\n    {\r\n        // Update the appropriate fields\r\n        emeralds[_upc].setEmeraldState(EmeraldStates.State.StorageReceived);\r\n\r\n        // Emit the appropriate event\r\n        emit StorageReceived(_upc);\r\n    }\r\n\r\n    // Define a function 'storeEmerald' that allows a Miner to mark an item 'Stored'\r\n    function storeEmerald(uint256 _upc)\r\n        public \r\n        // Call modifier to check if upc has passed previous supply chain stage\r\n        storageReceived(_upc)\r\n        // Call modifier to verify caller of this function\r\n        verifyCaller(emeralds[_upc].getCustodianID())\r\n        onlyCustodian\r\n    {\r\n        // Update the appropriate fields\r\n        emeralds[_upc].setEmeraldState(EmeraldStates.State.Stored);\r\n\r\n        // Emit the appropriate event\r\n        emit Stored(_upc);\r\n    }\r\n\r\n    // Define a function 'registerForSale' that allows a Miner to mark an item 'ForSale'\r\n    function registerForSale(uint256 _upc, uint256 _marketPrice)\r\n        public\r\n        // Call modifier to check if upc has passed previous supply chain stage\r\n        stored(_upc)\r\n        // Call modifier to verify caller of this function\r\n        verifyCaller(emeralds[_upc].getOriginMinerID())\r\n        onlyMiner\r\n    {\r\n        // Setup market price  \r\n        emeralds[_upc].setMarketPrice(_marketPrice);\r\n        // Update the appropriate fields\r\n        emeralds[_upc].setEmeraldState(EmeraldStates.State.ForSale);\r\n\r\n        // Emit the appropriate event\r\n        emit ForSale(_upc); \r\n    }\r\n\r\n    // Define a function 'buyFromMiner' that allows the Manufacturer to mark an item 'Sold'\r\n    function buyFromMiner(uint256 _upc) \r\n        public \r\n        payable \r\n        // Call modifier to check if upc has passed previous supply chain stage\r\n        forSale(_upc)\r\n        // Call modifer to check if buyer has paid enough\r\n        paidEnough(emeralds[_upc].getMarketPrice())\r\n        // Call modifer to send any excess ether back to buyer\r\n        checkValue(_upc)\r\n        onlyManufacturer\r\n    {\r\n        // Transfer money to Miner\r\n        (bool success, ) = emeralds[_upc].getOriginMinerID().call{value: emeralds[_upc].getMarketPrice()}(\"\");\r\n        require(success, \"Transfer failed\");\r\n\r\n        // Tranfer emerald ownership\r\n        //emeralds[_upc].setOwnerID(msg.sender);\r\n        emeralds[_upc].setManufacturerID(payable(msg.sender));\r\n        // Update emerald state\r\n        emeralds[_upc].setEmeraldState(EmeraldStates.State.Sold);\r\n\r\n        // Emit the appropriate event\r\n        emit Sold(_upc);\r\n    }\r\n\r\n    // Define a function 'shipToManufacturer' that allows a Miner to mark an item 'ShipToManufacture'\r\n    function shipToManufacturer(uint256 _upc) \r\n        public \r\n        // Call modifier to check if upc has passed previous supply chain stage\r\n        sold(_upc)\r\n        // Call modifier to verify caller of this function\r\n        onlyCustodian\r\n    {\r\n        // Update the appropriate fields\r\n        emeralds[_upc].setEmeraldState(EmeraldStates.State.ShipToManufacture);\r\n\r\n        // Emit the appropriate event\r\n        emit ShipToManufacture(_upc);    \r\n    }\r\n\r\n    // Define a function 'receiveFromStorage' that allows the manufacturer mark an item 'ManufacturerReceived'\r\n    function receiveFromStorage(uint256 _upc) \r\n        public \r\n        // Call modifier to check if upc has passed previous supply chain stage\r\n        shiptoManufacture(_upc)\r\n        // Access Control\r\n        onlyManufacturer\r\n    {\r\n        // Update the appropriate fields\r\n        emeralds[_upc].setEmeraldState(EmeraldStates.State.ManufacturerReceived);\r\n\r\n        // Emit the appropriate event\r\n        emit ManufacturerReceived(_upc);\r\n    }\r\n\r\n    // Define a function 'manufactureEmerald' that allows the manufacturer mark an item 'Manufactured'\r\n    function manufactureEmerald(uint256 _upc, string memory _manofactureInfo, uint _price)\r\n        public \r\n        // Call modifier to check if upc has passed previous supply chain stage\r\n        manufacturerReceived(_upc)\r\n        // Access Control\r\n        onlyManufacturer\r\n    {\r\n        // Update the appropriate fields\r\n        emeralds[_upc].setManufactureInfo(_manofactureInfo);\r\n        emeralds[_upc].setMarketPrice(_price);\r\n        emeralds[_upc].setEmeraldState(EmeraldStates.State.Manufactured);\r\n\r\n        // Emit the appropriate event\r\n        emit Manufactured(_upc);\r\n    }\r\n\r\n    // Define a function 'packForSale' that allows the manufacturer to mark an item 'PackedForSale'\r\n    function packForSale(uint256 _upc)\r\n        public \r\n        // Call modifier to check if upc has passed previous supply chain stage\r\n        manufactured(_upc)\r\n        // Access Control\r\n        onlyManufacturer\r\n    {\r\n        // Update the appropriate fields\r\n        emeralds[_upc].setEmeraldState(EmeraldStates.State.PackedForSale);\r\n\r\n        // Emit the appropriate event\r\n        emit PackedForSale(_upc);\r\n    }\r\n\r\n    // Define a function 'publish' that allows the manufacturer to mark an item 'Published'\r\n    function publish(uint _upc)\r\n        public \r\n        // Call modifier to check if upc has passed previous supply chain stage\r\n        packedForSale(_upc)\r\n        // Access Control\r\n        onlyManufacturer\r\n    {\r\n        // Update the appropriate fields\r\n        emeralds[_upc].setEmeraldState(EmeraldStates.State.Published);\r\n\r\n        // Emit the appropriate event\r\n        emit Published(_upc);\r\n    }\r\n\r\n    // Define a function 'buyFromManufacturer' that allows the customer to mark an item 'Buyed'\r\n    function buyFromManufacturer(uint256 _upc) \r\n        public \r\n        payable \r\n        // Call modifier to check if upc has passed previous supply chain stage\r\n        published(_upc)\r\n        // Call modifer to check if buyer has paid enough\r\n        paidEnough(emeralds[_upc].getMarketPrice())\r\n        // Call modifer to send any excess ether back to buyer\r\n        checkValue(_upc)\r\n        onlyCustomer\r\n    {\r\n        // Transfer money to Manufacturer\r\n        (bool success, ) = emeralds[_upc].getManufacturerID().call{value: emeralds[_upc].getMarketPrice()}(\"\");\r\n        require(success, \"Transfer failed\");\r\n\r\n        // Tranfer emerald ownership\r\n        //emeralds[_upc].setOwnerID(msg.sender);\r\n        emeralds[_upc].setCustomerID(payable(msg.sender));\r\n\r\n        // Update emerald state\r\n        emeralds[_upc].setEmeraldState(EmeraldStates.State.Buyed);\r\n\r\n        // Emit the appropriate event\r\n        emit Buyed(_upc);\r\n    }\r\n\r\n    // Define a function 'shipToCustomer' that allows a Manufacturer to mark an item 'ShippedToCustomer'\r\n    function shipToCustomer(uint256 _upc) \r\n        public \r\n        // Call modifier to check if upc has passed previous supply chain stage\r\n        buyed(_upc)\r\n        // Access Control\r\n        onlyManufacturer\r\n    {\r\n        // Update the appropriate fields\r\n        emeralds[_upc].setEmeraldState(EmeraldStates.State.ShippedToCustomer);\r\n\r\n        // Emit the appropriate event\r\n        emit ShippedToCustomer(_upc);\r\n    }\r\n\r\n    // Define a function 'customerReceived' that allows a Manufacturer to mark an item 'Delivered'\r\n    function customerReceived(uint256 _upc) \r\n        public \r\n        // Call modifier to check if upc has passed previous supply chain stage\r\n        shippedToCustomer(_upc)\r\n        // Access Control\r\n        onlyCustomer\r\n    {\r\n        // Update the appropriate fields\r\n        emeralds[_upc].setEmeraldState(EmeraldStates.State.Delivered);\r\n\r\n        // Emit the appropriate event\r\n        emit Delivered(_upc);\r\n    }\r\n\r\n    // Define a function 'fetchItemBufferOne' that fetches the data\r\n  function fetchItemBufferOne(uint256 _upc) public view returns (bytes memory) \r\n  {\r\n    return (emeralds[_upc].getBasicInfo());\r\n  }\r\n\r\n  // Define a function 'fetchItemBufferTwo' that fetches the data\r\n  function fetchItemBufferTwo(uint256 _upc) public view returns (bytes memory) \r\n  {\r\n    return (emeralds[_upc].getDetailedInfo());\r\n  } \r\n}\r\n",
  "sourcePath": "D:\\INE1\\S2\\SecurityProject2\\goldtracker\\src\\contracts\\emeraldbase\\SupplyChain.sol",
  "compiler": {
    "name": "solc",
    "version": "0.8.10+commit.fc410830.Emscripten.clang"
  },
  "schemaVersion": "3.4.16",
  "updatedAt": "2024-05-28T14:14:19.152Z",
  "devdoc": {
    "kind": "dev",
    "methods": {
      "getRoleAdmin(bytes32)": {
        "details": "Returns the admin role that controls `role`. See {grantRole} and {revokeRole}. To change a role's admin, use {_setRoleAdmin}."
      },
      "grantRole(bytes32,address)": {
        "details": "Grants `role` to `account`. If `account` had not been already granted `role`, emits a {RoleGranted} event. Requirements: - the caller must have ``role``'s admin role. May emit a {RoleGranted} event."
      },
      "hasRole(bytes32,address)": {
        "details": "Returns `true` if `account` has been granted `role`."
      },
      "owner()": {
        "details": "Returns the address of the current owner."
      },
      "renounceOwnership()": {
        "details": "Leaves the contract without owner. It will not be possible to call `onlyOwner` functions. Can only be called by the current owner. NOTE: Renouncing ownership will leave the contract without an owner, thereby disabling any functionality that is only available to the owner."
      },
      "renounceRole(bytes32,address)": {
        "details": "Revokes `role` from the calling account. Roles are often managed via {grantRole} and {revokeRole}: this function's purpose is to provide a mechanism for accounts to lose their privileges if they are compromised (such as when a trusted device is misplaced). If the calling account had been revoked `role`, emits a {RoleRevoked} event. Requirements: - the caller must be `account`. May emit a {RoleRevoked} event."
      },
      "revokeRole(bytes32,address)": {
        "details": "Revokes `role` from `account`. If `account` had been granted `role`, emits a {RoleRevoked} event. Requirements: - the caller must have ``role``'s admin role. May emit a {RoleRevoked} event."
      },
      "supportsInterface(bytes4)": {
        "details": "See {IERC165-supportsInterface}."
      },
      "transferOwnership(address)": {
        "details": "Transfers ownership of the contract to a new account (`newOwner`). Can only be called by the current owner."
      }
    },
    "version": 1
  },
  "userdoc": {
    "kind": "user",
    "methods": {},
    "version": 1
  }
}