{
  "contractName": "SupplyChain",
  "abi": [
    {
      "inputs": [],
      "stateMutability": "nonpayable",
      "type": "constructor"
    },
    {
      "anonymous": false,
      "inputs": [
        {
          "indexed": false,
          "internalType": "uint256",
          "name": "upc",
          "type": "uint256"
        }
      ],
      "name": "Buyed",
      "type": "event"
    },
    {
      "anonymous": false,
      "inputs": [
        {
          "indexed": false,
          "internalType": "uint256",
          "name": "upc",
          "type": "uint256"
        }
      ],
      "name": "Certified",
      "type": "event"
    },
    {
      "anonymous": false,
      "inputs": [
        {
          "indexed": false,
          "internalType": "uint256",
          "name": "upc",
          "type": "uint256"
        }
      ],
      "name": "Delivered",
      "type": "event"
    },
    {
      "anonymous": false,
      "inputs": [
        {
          "indexed": false,
          "internalType": "uint256",
          "name": "upc",
          "type": "uint256"
        }
      ],
      "name": "ForSale",
      "type": "event"
    },
    {
      "anonymous": false,
      "inputs": [
        {
          "indexed": false,
          "internalType": "uint256",
          "name": "upc",
          "type": "uint256"
        }
      ],
      "name": "LabReceived",
      "type": "event"
    },
    {
      "anonymous": false,
      "inputs": [
        {
          "indexed": false,
          "internalType": "uint256",
          "name": "upc",
          "type": "uint256"
        }
      ],
      "name": "Manufactured",
      "type": "event"
    },
    {
      "anonymous": false,
      "inputs": [
        {
          "indexed": false,
          "internalType": "uint256",
          "name": "upc",
          "type": "uint256"
        }
      ],
      "name": "ManufacturerReceived",
      "type": "event"
    },
    {
      "anonymous": false,
      "inputs": [
        {
          "indexed": false,
          "internalType": "uint256",
          "name": "upc",
          "type": "uint256"
        }
      ],
      "name": "Mined",
      "type": "event"
    },
    {
      "anonymous": false,
      "inputs": [
        {
          "indexed": true,
          "internalType": "address",
          "name": "previousOwner",
          "type": "address"
        },
        {
          "indexed": true,
          "internalType": "address",
          "name": "newOwner",
          "type": "address"
        }
      ],
      "name": "OwnershipTransferred",
      "type": "event"
    },
    {
      "anonymous": false,
      "inputs": [
        {
          "indexed": false,
          "internalType": "uint256",
          "name": "upc",
          "type": "uint256"
        }
      ],
      "name": "PackedForLab",
      "type": "event"
    },
    {
      "anonymous": false,
      "inputs": [
        {
          "indexed": false,
          "internalType": "uint256",
          "name": "upc",
          "type": "uint256"
        }
      ],
      "name": "PackedForSale",
      "type": "event"
    },
    {
      "anonymous": false,
      "inputs": [
        {
          "indexed": false,
          "internalType": "uint256",
          "name": "upc",
          "type": "uint256"
        }
      ],
      "name": "Published",
      "type": "event"
    },
    {
      "anonymous": false,
      "inputs": [
        {
          "indexed": true,
          "internalType": "bytes32",
          "name": "role",
          "type": "bytes32"
        },
        {
          "indexed": true,
          "internalType": "bytes32",
          "name": "previousAdminRole",
          "type": "bytes32"
        },
        {
          "indexed": true,
          "internalType": "bytes32",
          "name": "newAdminRole",
          "type": "bytes32"
        }
      ],
      "name": "RoleAdminChanged",
      "type": "event"
    },
    {
      "anonymous": false,
      "inputs": [
        {
          "indexed": true,
          "internalType": "bytes32",
          "name": "role",
          "type": "bytes32"
        },
        {
          "indexed": true,
          "internalType": "address",
          "name": "account",
          "type": "address"
        },
        {
          "indexed": true,
          "internalType": "address",
          "name": "sender",
          "type": "address"
        }
      ],
      "name": "RoleGranted",
      "type": "event"
    },
    {
      "anonymous": false,
      "inputs": [
        {
          "indexed": true,
          "internalType": "bytes32",
          "name": "role",
          "type": "bytes32"
        },
        {
          "indexed": true,
          "internalType": "address",
          "name": "account",
          "type": "address"
        },
        {
          "indexed": true,
          "internalType": "address",
          "name": "sender",
          "type": "address"
        }
      ],
      "name": "RoleRevoked",
      "type": "event"
    },
    {
      "anonymous": false,
      "inputs": [
        {
          "indexed": false,
          "internalType": "uint256",
          "name": "upc",
          "type": "uint256"
        }
      ],
      "name": "Scaled",
      "type": "event"
    },
    {
      "anonymous": false,
      "inputs": [
        {
          "indexed": false,
          "internalType": "uint256",
          "name": "upc",
          "type": "uint256"
        }
      ],
      "name": "ShipToManufacture",
      "type": "event"
    },
    {
      "anonymous": false,
      "inputs": [
        {
          "indexed": false,
          "internalType": "uint256",
          "name": "upc",
          "type": "uint256"
        }
      ],
      "name": "ShipedToLab",
      "type": "event"
    },
    {
      "anonymous": false,
      "inputs": [
        {
          "indexed": false,
          "internalType": "uint256",
          "name": "upc",
          "type": "uint256"
        }
      ],
      "name": "ShippedToCustomer",
      "type": "event"
    },
    {
      "anonymous": false,
      "inputs": [
        {
          "indexed": false,
          "internalType": "uint256",
          "name": "upc",
          "type": "uint256"
        }
      ],
      "name": "ShippedToStore",
      "type": "event"
    },
    {
      "anonymous": false,
      "inputs": [
        {
          "indexed": false,
          "internalType": "uint256",
          "name": "upc",
          "type": "uint256"
        }
      ],
      "name": "Sold",
      "type": "event"
    },
    {
      "anonymous": false,
      "inputs": [
        {
          "indexed": false,
          "internalType": "uint256",
          "name": "upc",
          "type": "uint256"
        }
      ],
      "name": "StorageReceived",
      "type": "event"
    },
    {
      "anonymous": false,
      "inputs": [
        {
          "indexed": false,
          "internalType": "uint256",
          "name": "upc",
          "type": "uint256"
        }
      ],
      "name": "Stored",
      "type": "event"
    },
    {
      "inputs": [],
      "name": "CUSTODIAN_ROLE",
      "outputs": [
        {
          "internalType": "bytes32",
          "name": "",
          "type": "bytes32"
        }
      ],
      "stateMutability": "view",
      "type": "function"
    },
    {
      "inputs": [],
      "name": "CUSTOMER_ROLE",
      "outputs": [
        {
          "internalType": "bytes32",
          "name": "",
          "type": "bytes32"
        }
      ],
      "stateMutability": "view",
      "type": "function"
    },
    {
      "inputs": [],
      "name": "DEFAULT_ADMIN_ROLE",
      "outputs": [
        {
          "internalType": "bytes32",
          "name": "",
          "type": "bytes32"
        }
      ],
      "stateMutability": "view",
      "type": "function"
    },
    {
      "inputs": [],
      "name": "LABORATORY_ROLE",
      "outputs": [
        {
          "internalType": "bytes32",
          "name": "",
          "type": "bytes32"
        }
      ],
      "stateMutability": "view",
      "type": "function"
    },
    {
      "inputs": [],
      "name": "MANUFACTURER_ROLE",
      "outputs": [
        {
          "internalType": "bytes32",
          "name": "",
          "type": "bytes32"
        }
      ],
      "stateMutability": "view",
      "type": "function"
    },
    {
      "inputs": [],
      "name": "MINER_ROLE",
      "outputs": [
        {
          "internalType": "bytes32",
          "name": "",
          "type": "bytes32"
        }
      ],
      "stateMutability": "view",
      "type": "function"
    },
    {
      "inputs": [
        {
          "internalType": "address",
          "name": "account",
          "type": "address"
        }
      ],
      "name": "addCustodian",
      "outputs": [],
      "stateMutability": "nonpayable",
      "type": "function"
    },
    {
      "inputs": [
        {
          "internalType": "address",
          "name": "account",
          "type": "address"
        }
      ],
      "name": "addCustomer",
      "outputs": [],
      "stateMutability": "nonpayable",
      "type": "function"
    },
    {
      "inputs": [
        {
          "internalType": "address",
          "name": "account",
          "type": "address"
        }
      ],
      "name": "addLaboratory",
      "outputs": [],
      "stateMutability": "nonpayable",
      "type": "function"
    },
    {
      "inputs": [
        {
          "internalType": "address",
          "name": "account",
          "type": "address"
        }
      ],
      "name": "addManufacturer",
      "outputs": [],
      "stateMutability": "nonpayable",
      "type": "function"
    },
    {
      "inputs": [
        {
          "internalType": "address",
          "name": "account",
          "type": "address"
        }
      ],
      "name": "addMiner",
      "outputs": [],
      "stateMutability": "nonpayable",
      "type": "function"
    },
    {
      "inputs": [
        {
          "internalType": "bytes32",
          "name": "role",
          "type": "bytes32"
        }
      ],
      "name": "getRoleAdmin",
      "outputs": [
        {
          "internalType": "bytes32",
          "name": "",
          "type": "bytes32"
        }
      ],
      "stateMutability": "view",
      "type": "function"
    },
    {
      "inputs": [
        {
          "internalType": "bytes32",
          "name": "role",
          "type": "bytes32"
        },
        {
          "internalType": "address",
          "name": "account",
          "type": "address"
        }
      ],
      "name": "grantRole",
      "outputs": [],
      "stateMutability": "nonpayable",
      "type": "function"
    },
    {
      "inputs": [
        {
          "internalType": "bytes32",
          "name": "role",
          "type": "bytes32"
        },
        {
          "internalType": "address",
          "name": "account",
          "type": "address"
        }
      ],
      "name": "hasRole",
      "outputs": [
        {
          "internalType": "bool",
          "name": "",
          "type": "bool"
        }
      ],
      "stateMutability": "view",
      "type": "function"
    },
    {
      "inputs": [
        {
          "internalType": "address",
          "name": "account",
          "type": "address"
        }
      ],
      "name": "isCustodian",
      "outputs": [
        {
          "internalType": "bool",
          "name": "",
          "type": "bool"
        }
      ],
      "stateMutability": "view",
      "type": "function"
    },
    {
      "inputs": [
        {
          "internalType": "address",
          "name": "account",
          "type": "address"
        }
      ],
      "name": "isCustomer",
      "outputs": [
        {
          "internalType": "bool",
          "name": "",
          "type": "bool"
        }
      ],
      "stateMutability": "view",
      "type": "function"
    },
    {
      "inputs": [
        {
          "internalType": "address",
          "name": "account",
          "type": "address"
        }
      ],
      "name": "isLaboratory",
      "outputs": [
        {
          "internalType": "bool",
          "name": "",
          "type": "bool"
        }
      ],
      "stateMutability": "view",
      "type": "function"
    },
    {
      "inputs": [
        {
          "internalType": "address",
          "name": "account",
          "type": "address"
        }
      ],
      "name": "isManufacturer",
      "outputs": [
        {
          "internalType": "bool",
          "name": "",
          "type": "bool"
        }
      ],
      "stateMutability": "view",
      "type": "function"
    },
    {
      "inputs": [
        {
          "internalType": "address payable",
          "name": "account",
          "type": "address"
        }
      ],
      "name": "isMiner",
      "outputs": [
        {
          "internalType": "bool",
          "name": "",
          "type": "bool"
        }
      ],
      "stateMutability": "view",
      "type": "function"
    },
    {
      "inputs": [],
      "name": "owner",
      "outputs": [
        {
          "internalType": "address",
          "name": "",
          "type": "address"
        }
      ],
      "stateMutability": "view",
      "type": "function"
    },
    {
      "inputs": [],
      "name": "renounceCustodian",
      "outputs": [],
      "stateMutability": "nonpayable",
      "type": "function"
    },
    {
      "inputs": [],
      "name": "renounceCustomer",
      "outputs": [],
      "stateMutability": "nonpayable",
      "type": "function"
    },
    {
      "inputs": [],
      "name": "renounceLaboratory",
      "outputs": [],
      "stateMutability": "nonpayable",
      "type": "function"
    },
    {
      "inputs": [],
      "name": "renounceManufacturer",
      "outputs": [],
      "stateMutability": "nonpayable",
      "type": "function"
    },
    {
      "inputs": [],
      "name": "renounceMiner",
      "outputs": [],
      "stateMutability": "nonpayable",
      "type": "function"
    },
    {
      "inputs": [],
      "name": "renounceOwnership",
      "outputs": [],
      "stateMutability": "nonpayable",
      "type": "function"
    },
    {
      "inputs": [
        {
          "internalType": "bytes32",
          "name": "role",
          "type": "bytes32"
        },
        {
          "internalType": "address",
          "name": "account",
          "type": "address"
        }
      ],
      "name": "renounceRole",
      "outputs": [],
      "stateMutability": "nonpayable",
      "type": "function"
    },
    {
      "inputs": [
        {
          "internalType": "bytes32",
          "name": "role",
          "type": "bytes32"
        },
        {
          "internalType": "address",
          "name": "account",
          "type": "address"
        }
      ],
      "name": "revokeRole",
      "outputs": [],
      "stateMutability": "nonpayable",
      "type": "function"
    },
    {
      "inputs": [
        {
          "internalType": "bytes4",
          "name": "interfaceId",
          "type": "bytes4"
        }
      ],
      "name": "supportsInterface",
      "outputs": [
        {
          "internalType": "bool",
          "name": "",
          "type": "bool"
        }
      ],
      "stateMutability": "view",
      "type": "function"
    },
    {
      "inputs": [
        {
          "internalType": "address",
          "name": "newOwner",
          "type": "address"
        }
      ],
      "name": "transferOwnership",
      "outputs": [],
      "stateMutability": "nonpayable",
      "type": "function"
    },
    {
      "inputs": [],
      "name": "kill",
      "outputs": [],
      "stateMutability": "nonpayable",
      "type": "function"
    },
    {
      "inputs": [
        {
          "internalType": "uint256",
          "name": "_sku",
          "type": "uint256"
        },
        {
          "internalType": "uint256",
          "name": "_upc",
          "type": "uint256"
        },
        {
          "internalType": "address payable",
          "name": "_ownerID",
          "type": "address"
        },
        {
          "internalType": "address payable",
          "name": "_originMinerID",
          "type": "address"
        },
        {
          "internalType": "string",
          "name": "_originMineName",
          "type": "string"
        },
        {
          "internalType": "string",
          "name": "_originMineInformation",
          "type": "string"
        },
        {
          "internalType": "string",
          "name": "_originMineLatitude",
          "type": "string"
        },
        {
          "internalType": "string",
          "name": "_originMineLongitude",
          "type": "string"
        }
      ],
      "name": "extractEmerald",
      "outputs": [],
      "stateMutability": "nonpayable",
      "type": "function"
    },
    {
      "inputs": [
        {
          "internalType": "uint256",
          "name": "_upc",
          "type": "uint256"
        },
        {
          "internalType": "string",
          "name": "_scaleInfo",
          "type": "string"
        }
      ],
      "name": "scaleEmerald",
      "outputs": [],
      "stateMutability": "nonpayable",
      "type": "function"
    },
    {
      "inputs": [
        {
          "internalType": "uint256",
          "name": "_upc",
          "type": "uint256"
        },
        {
          "internalType": "address payable",
          "name": "_laboratoryID",
          "type": "address"
        },
        {
          "internalType": "address payable",
          "name": "_custodianID",
          "type": "address"
        }
      ],
      "name": "packScaledEmerald",
      "outputs": [],
      "stateMutability": "nonpayable",
      "type": "function"
    },
    {
      "inputs": [
        {
          "internalType": "uint256",
          "name": "_upc",
          "type": "uint256"
        }
      ],
      "name": "shipToLaboratory",
      "outputs": [],
      "stateMutability": "nonpayable",
      "type": "function"
    },
    {
      "inputs": [
        {
          "internalType": "uint256",
          "name": "_upc",
          "type": "uint256"
        }
      ],
      "name": "laboratoryReceived",
      "outputs": [],
      "stateMutability": "nonpayable",
      "type": "function"
    },
    {
      "inputs": [
        {
          "internalType": "uint256",
          "name": "_upc",
          "type": "uint256"
        },
        {
          "internalType": "string",
          "name": "_certifiedProperties",
          "type": "string"
        }
      ],
      "name": "certifyEmerald",
      "outputs": [],
      "stateMutability": "nonpayable",
      "type": "function"
    },
    {
      "inputs": [
        {
          "internalType": "uint256",
          "name": "_upc",
          "type": "uint256"
        }
      ],
      "name": "shipToSecureStore",
      "outputs": [],
      "stateMutability": "nonpayable",
      "type": "function"
    },
    {
      "inputs": [
        {
          "internalType": "uint256",
          "name": "_upc",
          "type": "uint256"
        }
      ],
      "name": "secureStorageReceived",
      "outputs": [],
      "stateMutability": "nonpayable",
      "type": "function"
    },
    {
      "inputs": [
        {
          "internalType": "uint256",
          "name": "_upc",
          "type": "uint256"
        }
      ],
      "name": "storeEmerald",
      "outputs": [],
      "stateMutability": "nonpayable",
      "type": "function"
    },
    {
      "inputs": [
        {
          "internalType": "uint256",
          "name": "_upc",
          "type": "uint256"
        },
        {
          "internalType": "uint256",
          "name": "_marketPrice",
          "type": "uint256"
        }
      ],
      "name": "registerForSale",
      "outputs": [],
      "stateMutability": "nonpayable",
      "type": "function"
    },
    {
      "inputs": [
        {
          "internalType": "uint256",
          "name": "_upc",
          "type": "uint256"
        }
      ],
      "name": "buyFromMiner",
      "outputs": [],
      "stateMutability": "payable",
      "type": "function"
    },
    {
      "inputs": [
        {
          "internalType": "uint256",
          "name": "_upc",
          "type": "uint256"
        }
      ],
      "name": "shipToManufacturer",
      "outputs": [],
      "stateMutability": "nonpayable",
      "type": "function"
    },
    {
      "inputs": [
        {
          "internalType": "uint256",
          "name": "_upc",
          "type": "uint256"
        }
      ],
      "name": "receiveFromStorage",
      "outputs": [],
      "stateMutability": "nonpayable",
      "type": "function"
    },
    {
      "inputs": [
        {
          "internalType": "uint256",
          "name": "_upc",
          "type": "uint256"
        },
        {
          "internalType": "string",
          "name": "_manofactureInfo",
          "type": "string"
        },
        {
          "internalType": "uint256",
          "name": "_price",
          "type": "uint256"
        }
      ],
      "name": "manufactureEmerald",
      "outputs": [],
      "stateMutability": "nonpayable",
      "type": "function"
    },
    {
      "inputs": [
        {
          "internalType": "uint256",
          "name": "_upc",
          "type": "uint256"
        }
      ],
      "name": "packForSale",
      "outputs": [],
      "stateMutability": "nonpayable",
      "type": "function"
    },
    {
      "inputs": [
        {
          "internalType": "uint256",
          "name": "_upc",
          "type": "uint256"
        }
      ],
      "name": "publish",
      "outputs": [],
      "stateMutability": "nonpayable",
      "type": "function"
    },
    {
      "inputs": [
        {
          "internalType": "uint256",
          "name": "_upc",
          "type": "uint256"
        }
      ],
      "name": "buyFromManufacturer",
      "outputs": [],
      "stateMutability": "payable",
      "type": "function"
    },
    {
      "inputs": [
        {
          "internalType": "uint256",
          "name": "_upc",
          "type": "uint256"
        }
      ],
      "name": "shipToCustomer",
      "outputs": [],
      "stateMutability": "nonpayable",
      "type": "function"
    },
    {
      "inputs": [
        {
          "internalType": "uint256",
          "name": "_upc",
          "type": "uint256"
        }
      ],
      "name": "customerReceived",
      "outputs": [],
      "stateMutability": "nonpayable",
      "type": "function"
    },
    {
      "inputs": [
        {
          "internalType": "uint256",
          "name": "_upc",
          "type": "uint256"
        }
      ],
      "name": "fetchItemBufferOne",
      "outputs": [
        {
          "internalType": "bytes",
          "name": "",
          "type": "bytes"
        }
      ],
      "stateMutability": "view",
      "type": "function"
    },
    {
      "inputs": [
        {
          "internalType": "uint256",
          "name": "_upc",
          "type": "uint256"
        }
      ],
      "name": "fetchItemBufferTwo",
      "outputs": [
        {
          "internalType": "bytes",
          "name": "",
          "type": "bytes"
        }
      ],
      "stateMutability": "view",
      "type": "function"
    }
  ],
  "bytecode": "0x60806040523480156200001157600080fd5b506200001d33620000c8565b6200002a60003362000118565b6200003533620001a1565b6200004260003362000118565b6200004d33620001d0565b6200005a60003362000118565b6200006533620001fc565b6200007260003362000118565b6200007d3362000228565b6200008a60003362000118565b620000953362000254565b600480546001600160a01b0319163390811790915560016003819055600255620000c29060009062000118565b620006a3565b600080546001600160a01b038381166001600160a01b0319831681178455604051919092169283917f8be0079c531659141344cd1fd0a4f28419497f9722a3daafe3b4186f6b6457e09190a35050565b60008281526001602090815260408083206001600160a01b038516845290915290205460ff166200019d5760008281526001602081815260408084206001600160a01b0386168086529252808420805460ff19169093179092559051339285917f2f8788117e7eff1d82e926ec794901d17c78024a50270940304540a733656f0d9190a45b5050565b620001cd7fa952726ef2588ad078edf35b066f7c7406e207cb0003bbaba8cb53eba9553e72826200027b565b50565b620001cd7fc9f41f19cd323609a8840e20c19f0688fff7f2c7796dc69350af80f75835f815826200027b565b620001cd7fe28434228950b641dbbc0178de89daa359a87c6ee0d8399aeace52a98fe902b9826200027b565b620001cd7feefb95e842a3287179d933b4460be539a1d5af11aa8b325bb45c5c8dc92de4ed826200027b565b620001cd7f288a15c4a15d470e4cd9cad2f113b91206b520c26dbd3dd74627f0c057baa19c825b600082815260016020819052604090912001546200029981620002aa565b620002a5838362000118565b505050565b620001cd813360008281526001602090815260408083206001600160a01b038516845290915290205460ff166200019d57620002f1816200034b60201b62003be31760201c565b6200030783602062003bf562000369821b17811c565b6040516020016200031a9291906200055c565b60408051601f198184030181529082905262461bcd60e51b82526200034291600401620005d5565b60405180910390fd5b6060620003636001600160a01b038316601462000369565b92915050565b606060006200037a83600262000620565b6200038790600262000642565b6001600160401b03811115620003a157620003a16200065d565b6040519080825280601f01601f191660200182016040528015620003cc576020820181803683370190505b509050600360fc1b81600081518110620003ea57620003ea62000673565b60200101906001600160f81b031916908160001a905350600f60fb1b816001815181106200041c576200041c62000673565b60200101906001600160f81b031916908160001a90535060006200044284600262000620565b6200044f90600162000642565b90505b6001811115620004d1576f181899199a1a9b1b9c1cb0b131b232b360811b85600f166010811062000487576200048762000673565b1a60f81b828281518110620004a057620004a062000673565b60200101906001600160f81b031916908160001a90535060049490941c93620004c98162000689565b905062000452565b508315620005225760405162461bcd60e51b815260206004820181905260248201527f537472696e67733a20686578206c656e67746820696e73756666696369656e74604482015260640162000342565b9392505050565b60005b83811015620005465781810151838201526020016200052c565b8381111562000556576000848401525b50505050565b7f416363657373436f6e74726f6c3a206163636f756e74200000000000000000008152600083516200059681601785016020880162000529565b7001034b99036b4b9b9b4b733903937b6329607d1b6017918401918201528351620005c981602884016020880162000529565b01602801949350505050565b6020815260008251806020840152620005f681604085016020870162000529565b601f01601f19169190910160400192915050565b634e487b7160e01b600052601160045260246000fd5b60008160001904831182151516156200063d576200063d6200060a565b500290565b600082198211156200065857620006586200060a565b500190565b634e487b7160e01b600052604160045260246000fd5b634e487b7160e01b600052603260045260246000fd5b6000816200069b576200069b6200060a565b506000190190565b6155a980620006b36000396000f3fe6080604052600436106102ff5760003560e01c80637b7313bb11610190578063ad973d74116100dc578063cc4ef11911610095578063f2edcc201161006f578063f2edcc20146108e7578063f2fde38b14610907578063f3982e5e14610927578063fe5789dd1461094757600080fd5b8063cc4ef11914610892578063d547741f146108b2578063de07f34e146108d257600080fd5b8063ad973d74146107e6578063ae46352a14610806578063ae6bae4d1461081b578063b4dc323c1461083b578063c1fac3d114610850578063c79445d01461087057600080fd5b806391d1485411610149578063a217fddf11610123578063a217fddf1461077c578063ac1f27c814610791578063ac98e6db146107b1578063acfa50e3146107c657600080fd5b806391d148541461071a578063965288b01461073a5780639a11d1831461075c57600080fd5b80637b7313bb146106505780637fe212431461067057806382ef5ee51461069257806385d95b81146106b25780638ba2b465146106d25780638da5cb5b146106f257600080fd5b8063404203b91161024f5780636394f6e611610208578063701b70ac116101e2578063701b70ac146105db578063715018a6146105fb57806375cd684a1461061057806377c459131461063057600080fd5b80636394f6e61461056c57806363c4893c1461058e57806366225ff9146105ae57600080fd5b8063404203b9146104cf57806341645106146104ef57806341c0e1b5146105025780635ae3da24146105175780635d4bc638146105375780635f8a5afa1461054c57600080fd5b806327706584116102bc5780632f2ff15d116102965780632f2ff15d1461044f57806334418cdc1461046f57806335c80c8c1461048f57806336568abe146104af57600080fd5b806327706584146103ef57806328fd5e831461040f5780632a9f9b301461042f57600080fd5b806301ffc9a714610304578063050711831461033957806317d4a4911461035b5780631ce5b81c1461037b578063204d79231461038e578063248a9ca3146103be575b600080fd5b34801561031057600080fd5b5061032461031f366004614074565b610967565b60405190151581526020015b60405180910390f35b34801561034557600080fd5b5061035961035436600461409e565b61099e565b005b34801561036757600080fd5b506103246103763660046140cc565b610b4d565b61035961038936600461409e565b610b67565b34801561039a57600080fd5b506103b060008051602061553483398151915281565b604051908152602001610330565b3480156103ca57600080fd5b506103b06103d936600461409e565b6000908152600160208190526040909120015490565b3480156103fb57600080fd5b5061032461040a3660046140cc565b611070565b34801561041b57600080fd5b5061032461042a3660046140cc565b61108a565b34801561043b57600080fd5b5061035961044a3660046141ae565b6110a4565b34801561045b57600080fd5b5061035961046a3660046141f5565b61136c565b34801561047b57600080fd5b5061035961048a36600461409e565b611397565b34801561049b57600080fd5b506103246104aa3660046140cc565b6115ee565b3480156104bb57600080fd5b506103596104ca3660046141f5565b611608565b3480156104db57600080fd5b506103596104ea3660046140cc565b611686565b6103596104fd36600461409e565b6116b7565b34801561050e57600080fd5b50610359611afe565b34801561052357600080fd5b50610359610532366004614225565b611b09565b34801561054357600080fd5b50610359611d97565b34801561055857600080fd5b506103596105673660046140cc565b611da2565b34801561057857600080fd5b506103b060008051602061555483398151915281565b34801561059a57600080fd5b506103596105a9366004614285565b611dd0565b3480156105ba57600080fd5b506105ce6105c936600461409e565b611f6d565b60405161033091906143c3565b3480156105e757600080fd5b506103246105f63660046140cc565b611fe9565b34801561060757600080fd5b50610359612003565b34801561061c57600080fd5b5061035961062b36600461409e565b612015565b34801561063c57600080fd5b506105ce61064b36600461409e565b6121c0565b34801561065c57600080fd5b5061035961066b36600461409e565b612214565b34801561067c57600080fd5b506103b060008051602061551483398151915281565b34801561069e57600080fd5b506103596106ad3660046143d6565b612462565b3480156106be57600080fd5b506103596106cd3660046140cc565b61270c565b3480156106de57600080fd5b506103596106ed3660046141ae565b61273a565b3480156106fe57600080fd5b506000546040516001600160a01b039091168152602001610330565b34801561072657600080fd5b506103246107353660046141f5565b6129e7565b34801561074657600080fd5b506103b06000805160206154d483398151915281565b34801561076857600080fd5b5061035961077736600461409e565b612a12565b34801561078857600080fd5b506103b0600081565b34801561079d57600080fd5b506103596107ac36600461409e565b612c5d565b3480156107bd57600080fd5b50610359612ea4565b3480156107d257600080fd5b506103596107e13660046143f8565b612ead565b3480156107f257600080fd5b506103596108013660046140cc565b6131d3565b34801561081257600080fd5b50610359613201565b34801561082757600080fd5b5061035961083636600461409e565b61320a565b34801561084757600080fd5b50610359613459565b34801561085c57600080fd5b5061035961086b36600461409e565b613462565b34801561087c57600080fd5b506103b06000805160206154f483398151915281565b34801561089e57600080fd5b506103596108ad36600461409e565b613613565b3480156108be57600080fd5b506103596108cd3660046141f5565b6137c0565b3480156108de57600080fd5b506103596137e6565b3480156108f357600080fd5b5061035961090236600461409e565b6137ef565b34801561091357600080fd5b506103596109223660046140cc565b6139a0565b34801561093357600080fd5b506103596109423660046140cc565b613a16565b34801561095357600080fd5b5061035961096236600461409e565b613a44565b60006001600160e01b03198216637965db0b60e01b148061099857506301ffc9a760e01b6001600160e01b03198316145b92915050565b80601060008281526005602090815260409182902054825163ee8c834b60e01b815292516001600160a01b039091169263ee8c834b9260048083019391928290030181865afa1580156109f5573d6000803e3d6000fd5b505050506040513d601f19601f82011682018060405250810190610a199190614450565b6012811115610a2a57610a2a61443a565b14610a7c5760405162461bcd60e51b815260206004820152601d60248201527f456d6572616c64206973206e6f7420696e20427579656420737461746500000060448201526064015b60405180910390fd5b610a8533610b4d565b610aa15760405162461bcd60e51b8152600401610a7390614471565b6000828152600560205260409081902054905163e2c737d760e01b81526001600160a01b039091169063e2c737d790610adf906011906004016144a8565b600060405180830381600087803b158015610af957600080fd5b505af1158015610b0d573d6000803e3d6000fd5b505050507ea193261577ee619e49c2b31a1ea8cff95fb137044fb6ae297eda97430b8b7c82604051610b4191815260200190565b60405180910390a15050565b60006109986000805160206154d4833981519152836129e7565b80600960008281526005602090815260409182902054825163ee8c834b60e01b815292516001600160a01b039091169263ee8c834b9260048083019391928290030181865afa158015610bbe573d6000803e3d6000fd5b505050506040513d601f19601f82011682018060405250810190610be29190614450565b6012811115610bf357610bf361443a565b14610c405760405162461bcd60e51b815260206004820152601f60248201527f456d6572616c64206973206e6f7420696e20466f7253616c65207374617465006044820152606401610a73565b60008281526005602090815260409182902054825163660e16c360e01b815292516001600160a01b039091169263660e16c39260048083019391928290030181865afa158015610c94573d6000803e3d6000fd5b505050506040513d601f19601f82011682018060405250810190610cb891906144d0565b80341015610cfd5760405162461bcd60e51b8152602060048201526012602482015271496e73756666696369656e742066756e647360701b6044820152606401610a73565b82610d0733610b4d565b610d235760405162461bcd60e51b8152600401610a7390614471565b6000848152600560209081526040808320548151631a8fa05b60e31b815291516001600160a01b039091169263d47d02d892600480820193918290030181865afa158015610d75573d6000803e3d6000fd5b505050506040513d601f19601f82011682018060405250810190610d9991906144e9565b60008681526005602090815260409182902054825163660e16c360e01b815292516001600160a01b03948516949091169263660e16c39260048083019391928290030181865afa158015610df1573d6000803e3d6000fd5b505050506040513d601f19601f82011682018060405250810190610e1591906144d0565b604051600081818185875af1925050503d8060008114610e51576040519150601f19603f3d011682016040523d82523d6000602084013e610e56565b606091505b5050905080610e995760405162461bcd60e51b815260206004820152600f60248201526e151c985b9cd9995c8819985a5b1959608a1b6044820152606401610a73565b600085815260056020526040908190205490516370736bab60e11b81523360048201526001600160a01b039091169063e0e6d75690602401600060405180830381600087803b158015610eeb57600080fd5b505af1158015610eff573d6000803e3d6000fd5b5050506000868152600560205260409081902054905163e2c737d760e01b81526001600160a01b03909116915063e2c737d790610f4190600a906004016144a8565b600060405180830381600087803b158015610f5b57600080fd5b505af1158015610f6f573d6000803e3d6000fd5b505050507f92f64ca637d023f354075a4be751b169c1a8a9ccb6d33cdd0cb352054399572785604051610fa491815260200190565b60405180910390a150600081815260056020908152604080832054815163660e16c360e01b815291516001600160a01b039091169263660e16c392600480820193918290030181865afa158015610fff573d6000803e3d6000fd5b505050506040513d601f19601f8201168201806040525081019061102391906144d0565b90506000611031823461451c565b9050801561106857604051339082156108fc029083906000818181858888f19350505050158015611066573d6000803e3d6000fd5b505b505050505050565b6000610998600080516020615514833981519152836129e7565b6000610998600080516020615534833981519152836129e7565b81600460008281526005602090815260409182902054825163ee8c834b60e01b815292516001600160a01b039091169263ee8c834b9260048083019391928290030181865afa1580156110fb573d6000803e3d6000fd5b505050506040513d601f19601f8201168201806040525081019061111f9190614450565b60128111156111305761113061443a565b146111895760405162461bcd60e51b815260206004820152602360248201527f456d6572616c64206973206e6f7420696e204c6162526563656976656420737460448201526261746560e81b6064820152608401610a73565b60008381526005602090815260409182902054825163b53fbe6b60e01b815292516001600160a01b039091169263b53fbe6b9260048083019391928290030181865afa1580156111dd573d6000803e3d6000fd5b505050506040513d601f19601f8201168201806040525081019061120191906144e9565b336001600160a01b038216146112295760405162461bcd60e51b8152600401610a7390614533565b61123233611070565b61124e5760405162461bcd60e51b8152600401610a739061456a565b6000848152600560205260409081902054905163460f7ed360e01b81526001600160a01b039091169063460f7ed39061128b9086906004016143c3565b600060405180830381600087803b1580156112a557600080fd5b505af11580156112b9573d6000803e3d6000fd5b50505060008581526005602081905260409182902054915163e2c737d760e01b81526001600160a01b03909216925063e2c737d7916112fb91906004016144a8565b600060405180830381600087803b15801561131557600080fd5b505af1158015611329573d6000803e3d6000fd5b505050507f4e8c48948db98a1fea8df39d874e32084414a172079b74467a267b66050069b58460405161135e91815260200190565b60405180910390a150505050565b6000828152600160208190526040909120015461138881613d98565b6113928383613da2565b505050565b80600360008281526005602090815260409182902054825163ee8c834b60e01b815292516001600160a01b039091169263ee8c834b9260048083019391928290030181865afa1580156113ee573d6000803e3d6000fd5b505050506040513d601f19601f820116820180604052508101906114129190614450565b60128111156114235761142361443a565b1461147c5760405162461bcd60e51b815260206004820152602360248201527f456d6572616c64206973206e6f7420696e20536869706564546f4c616220737460448201526261746560e81b6064820152608401610a73565b60008281526005602090815260409182902054825163b53fbe6b60e01b815292516001600160a01b039091169263b53fbe6b9260048083019391928290030181865afa1580156114d0573d6000803e3d6000fd5b505050506040513d601f19601f820116820180604052508101906114f491906144e9565b336001600160a01b0382161461151c5760405162461bcd60e51b8152600401610a7390614533565b61152533611070565b6115415760405162461bcd60e51b8152600401610a739061456a565b6000838152600560205260409081902054905163e2c737d760e01b81526001600160a01b039091169063e2c737d79061157e9060049081016144a8565b600060405180830381600087803b15801561159857600080fd5b505af11580156115ac573d6000803e3d6000fd5b505050507f86d4ba21bdad444b59beb1ce9c3ef6957c1e9d7183a2126a1edbdb2bbf29e972836040516115e191815260200190565b60405180910390a1505050565b60006109986000805160206154f4833981519152836129e7565b6001600160a01b03811633146116785760405162461bcd60e51b815260206004820152602f60248201527f416363657373436f6e74726f6c3a2063616e206f6e6c792072656e6f756e636560448201526e103937b632b9903337b91039b2b63360891b6064820152608401610a73565b6116828282613e0d565b5050565b61168f33611070565b6116ab5760405162461bcd60e51b8152600401610a739061456a565b6116b481613e74565b50565b80600f60008281526005602090815260409182902054825163ee8c834b60e01b815292516001600160a01b039091169263ee8c834b9260048083019391928290030181865afa15801561170e573d6000803e3d6000fd5b505050506040513d601f19601f820116820180604052508101906117329190614450565b60128111156117435761174361443a565b1461179a5760405162461bcd60e51b815260206004820152602160248201527f456d6572616c64206973206e6f7420696e205075626c697368656420737461746044820152606560f81b6064820152608401610a73565b60008281526005602090815260409182902054825163660e16c360e01b815292516001600160a01b039091169263660e16c39260048083019391928290030181865afa1580156117ee573d6000803e3d6000fd5b505050506040513d601f19601f8201168201806040525081019061181291906144d0565b803410156118575760405162461bcd60e51b8152602060048201526012602482015271496e73756666696369656e742066756e647360701b6044820152606401610a73565b826118613361108a565b61187d5760405162461bcd60e51b8152600401610a73906145a1565b60008481526005602090815260408083205481516318672aad60e31b815291516001600160a01b039091169263c339556892600480820193918290030181865afa1580156118cf573d6000803e3d6000fd5b505050506040513d601f19601f820116820180604052508101906118f391906144e9565b60008681526005602090815260409182902054825163660e16c360e01b815292516001600160a01b03948516949091169263660e16c39260048083019391928290030181865afa15801561194b573d6000803e3d6000fd5b505050506040513d601f19601f8201168201806040525081019061196f91906144d0565b604051600081818185875af1925050503d80600081146119ab576040519150601f19603f3d011682016040523d82523d6000602084013e6119b0565b606091505b50509050806119f35760405162461bcd60e51b815260206004820152600f60248201526e151c985b9cd9995c8819985a5b1959608a1b6044820152606401610a73565b600085815260056020526040908190205490516313674e5b60e01b81523360048201526001600160a01b03909116906313674e5b90602401600060405180830381600087803b158015611a4557600080fd5b505af1158015611a59573d6000803e3d6000fd5b5050506000868152600560205260409081902054905163e2c737d760e01b81526001600160a01b03909116915063e2c737d790611a9b906010906004016144a8565b600060405180830381600087803b158015611ab557600080fd5b505af1158015611ac9573d6000803e3d6000fd5b505050507f4ef53258f94ddbc1ea550eda541d9d69e07d5fed0adf283093c58b494816276d85604051610fa491815260200190565b611b06613e8c565b33ff5b82600c60008281526005602090815260409182902054825163ee8c834b60e01b815292516001600160a01b039091169263ee8c834b9260048083019391928290030181865afa158015611b60573d6000803e3d6000fd5b505050506040513d601f19601f82011682018060405250810190611b849190614450565b6012811115611b9557611b9561443a565b14611bf75760405162461bcd60e51b815260206004820152602c60248201527f456d6572616c64206973206e6f7420696e204d616e756661637475726572526560448201526b63656976656420737461746560a01b6064820152608401610a73565b611c0033610b4d565b611c1c5760405162461bcd60e51b8152600401610a7390614471565b600084815260056020526040908190205490516368c2014b60e01b81526001600160a01b03909116906368c2014b90611c599086906004016143c3565b600060405180830381600087803b158015611c7357600080fd5b505af1158015611c87573d6000803e3d6000fd5b505050600085815260056020526040908190205490516359c0590160e11b8152600481018590526001600160a01b03909116915063b380b20290602401600060405180830381600087803b158015611cde57600080fd5b505af1158015611cf2573d6000803e3d6000fd5b5050506000858152600560205260409081902054905163e2c737d760e01b81526001600160a01b03909116915063e2c737d790611d3490600d906004016144a8565b600060405180830381600087803b158015611d4e57600080fd5b505af1158015611d62573d6000803e3d6000fd5b505050507fd29d8a68ca7c8c74be5579719d445aabfe230ed6e6a83aff475a663500eb76098460405161135e91815260200190565b611da033613ee6565b565b611dab33610b4d565b611dc75760405162461bcd60e51b8152600401610a7390614471565b6116b481613efe565b611dd933611fe9565b611df55760405162461bcd60e51b8152600401610a73906145d8565b6000604051611e0390614067565b604051809103906000f080158015611e1f573d6000803e3d6000fd5b5060405163392389d960e01b81529091506001600160a01b0382169063392389d990611e5d908c908c908c908c908c908c908c908c90600401614608565b600060405180830381600087803b158015611e7757600080fd5b505af1158015611e8b573d6000803e3d6000fd5b505060405163e2c737d760e01b81526001600160a01b038416925063e2c737d79150611ebc906000906004016144a8565b600060405180830381600087803b158015611ed657600080fd5b505af1158015611eea573d6000803e3d6000fd5b505050600089815260056020526040812080546001600160a01b0319166001600160a01b0385161790556003805460019350909190611f2a90849061468d565b90915550506040518881527f4229d50c63dbdc5551dd68e0a9879b01ac250cb31feaeba7588533462e6c7aaa9060200160405180910390a1505050505050505050565b60008181526005602052604080822054815163ca0a9b3160e01b815291516060936001600160a01b039092169263ca0a9b319260048083019391928290030181865afa158015611fc1573d6000803e3d6000fd5b505050506040513d6000823e601f3d908101601f1916820160405261099891908101906146a5565b6000610998600080516020615554833981519152836129e7565b61200b613e8c565b611da06000613f16565b80600d60008281526005602090815260409182902054825163ee8c834b60e01b815292516001600160a01b039091169263ee8c834b9260048083019391928290030181865afa15801561206c573d6000803e3d6000fd5b505050506040513d601f19601f820116820180604052508101906120909190614450565b60128111156120a1576120a161443a565b146120fa5760405162461bcd60e51b8152602060048201526024808201527f456d6572616c64206973206e6f7420696e204d616e75666163747572656420736044820152637461746560e01b6064820152608401610a73565b61210333610b4d565b61211f5760405162461bcd60e51b8152600401610a7390614471565b6000828152600560205260409081902054905163e2c737d760e01b81526001600160a01b039091169063e2c737d79061215d90600e906004016144a8565b600060405180830381600087803b15801561217757600080fd5b505af115801561218b573d6000803e3d6000fd5b505050507f37f2ca69e5ed18a5eefad38cfa64627ccc4f8fc353ff95164b86ff05b4adecf182604051610b4191815260200190565b600081815260056020526040808220548151639f999da360e01b815291516060936001600160a01b0390921692639f999da39260048083019391928290030181865afa158015611fc1573d6000803e3d6000fd5b80600660008281526005602090815260409182902054825163ee8c834b60e01b815292516001600160a01b039091169263ee8c834b9260048083019391928290030181865afa15801561226b573d6000803e3d6000fd5b505050506040513d601f19601f8201168201806040525081019061228f9190614450565b60128111156122a0576122a061443a565b146122fc5760405162461bcd60e51b815260206004820152602660248201527f456d6572616c64206973206e6f7420696e2053686970706564546f53746f726560448201526520737461746560d01b6064820152608401610a73565b600082815260056020908152604091829020548251639d79188760e01b815292516001600160a01b0390911692639d7918879260048083019391928290030181865afa158015612350573d6000803e3d6000fd5b505050506040513d601f19601f8201168201806040525081019061237491906144e9565b336001600160a01b0382161461239c5760405162461bcd60e51b8152600401610a7390614533565b6123a5336115ee565b6123c15760405162461bcd60e51b8152600401610a739061471c565b6000838152600560205260409081902054905163e2c737d760e01b81526001600160a01b039091169063e2c737d7906123ff906007906004016144a8565b600060405180830381600087803b15801561241957600080fd5b505af115801561242d573d6000803e3d6000fd5b505050507fe0248fb10e8bac3feae3067ac136da09c137555ae8ea98ebc00f877ec8eceec8836040516115e191815260200190565b81600860008281526005602090815260409182902054825163ee8c834b60e01b815292516001600160a01b039091169263ee8c834b9260048083019391928290030181865afa1580156124b9573d6000803e3d6000fd5b505050506040513d601f19601f820116820180604052508101906124dd9190614450565b60128111156124ee576124ee61443a565b1461253b5760405162461bcd60e51b815260206004820152601e60248201527f456d6572616c64206973206e6f7420696e2053746f72656420737461746500006044820152606401610a73565b600083815260056020908152604091829020548251631a8fa05b60e31b815292516001600160a01b039091169263d47d02d89260048083019391928290030181865afa15801561258f573d6000803e3d6000fd5b505050506040513d601f19601f820116820180604052508101906125b391906144e9565b336001600160a01b038216146125db5760405162461bcd60e51b8152600401610a7390614533565b6125e433611fe9565b6126005760405162461bcd60e51b8152600401610a73906145d8565b600084815260056020526040908190205490516359c0590160e11b8152600481018590526001600160a01b039091169063b380b20290602401600060405180830381600087803b15801561265357600080fd5b505af1158015612667573d6000803e3d6000fd5b5050506000858152600560205260409081902054905163e2c737d760e01b81526001600160a01b03909116915063e2c737d7906126a9906009906004016144a8565b600060405180830381600087803b1580156126c357600080fd5b505af11580156126d7573d6000803e3d6000fd5b505050507fa96ae0fc3224ebd79eebfe54bd130cc9cb94416cddd1f2386115e00b725324688460405161135e91815260200190565b612715336115ee565b6127315760405162461bcd60e51b8152600401610a739061471c565b6116b481613f66565b816000808281526005602090815260409182902054825163ee8c834b60e01b815292516001600160a01b039091169263ee8c834b9260048083019391928290030181865afa158015612790573d6000803e3d6000fd5b505050506040513d601f19601f820116820180604052508101906127b49190614450565b60128111156127c5576127c561443a565b146128125760405162461bcd60e51b815260206004820152601d60248201527f456d6572616c64206973206e6f7420696e204d696e65642073746174650000006044820152606401610a73565b600083815260056020908152604091829020548251631a8fa05b60e31b815292516001600160a01b039091169263d47d02d89260048083019391928290030181865afa158015612866573d6000803e3d6000fd5b505050506040513d601f19601f8201168201806040525081019061288a91906144e9565b336001600160a01b038216146128b25760405162461bcd60e51b8152600401610a7390614533565b6128bb33611fe9565b6128d75760405162461bcd60e51b8152600401610a73906145d8565b6000848152600560205260409081902054905163f960278d60e01b81526001600160a01b039091169063f960278d906129149086906004016143c3565b600060405180830381600087803b15801561292e57600080fd5b505af1158015612942573d6000803e3d6000fd5b5050506000858152600560205260409081902054905163e2c737d760e01b81526001600160a01b03909116915063e2c737d790612984906001906004016144a8565b600060405180830381600087803b15801561299e57600080fd5b505af11580156129b2573d6000803e3d6000fd5b505050507f7ff0145529d4114f4463081dc51c0f541adae9b04f3f72598fa8c979d50a64ea8460405161135e91815260200190565b60009182526001602090815260408084206001600160a01b0393909316845291905290205460ff1690565b80600260008281526005602090815260409182902054825163ee8c834b60e01b815292516001600160a01b039091169263ee8c834b9260048083019391928290030181865afa158015612a69573d6000803e3d6000fd5b505050506040513d601f19601f82011682018060405250810190612a8d9190614450565b6012811115612a9e57612a9e61443a565b14612af75760405162461bcd60e51b8152602060048201526024808201527f456d6572616c64206973206e6f7420696e205061636b6564466f724c616220736044820152637461746560e01b6064820152608401610a73565b600082815260056020908152604091829020548251631a8fa05b60e31b815292516001600160a01b039091169263d47d02d89260048083019391928290030181865afa158015612b4b573d6000803e3d6000fd5b505050506040513d601f19601f82011682018060405250810190612b6f91906144e9565b336001600160a01b03821614612b975760405162461bcd60e51b8152600401610a7390614533565b612ba033611fe9565b612bbc5760405162461bcd60e51b8152600401610a73906145d8565b6000838152600560205260409081902054905163e2c737d760e01b81526001600160a01b039091169063e2c737d790612bfa906003906004016144a8565b600060405180830381600087803b158015612c1457600080fd5b505af1158015612c28573d6000803e3d6000fd5b505050507f7b14d24fbd5b84854b9cff7c14059e2e6cef50d183cd227564b5c122bd7f0114836040516115e191815260200190565b60008181526005602081815260409283902054835163ee8c834b60e01b8152935185946001600160a01b039092169263ee8c834b92600480820193918290030181865afa158015612cb2573d6000803e3d6000fd5b505050506040513d601f19601f82011682018060405250810190612cd69190614450565b6012811115612ce757612ce761443a565b14612d3e5760405162461bcd60e51b815260206004820152602160248201527f456d6572616c64206973206e6f7420696e2043657274696669656420737461746044820152606560f81b6064820152608401610a73565b60008281526005602090815260409182902054825163b53fbe6b60e01b815292516001600160a01b039091169263b53fbe6b9260048083019391928290030181865afa158015612d92573d6000803e3d6000fd5b505050506040513d601f19601f82011682018060405250810190612db691906144e9565b336001600160a01b03821614612dde5760405162461bcd60e51b8152600401610a7390614533565b612de733611070565b612e035760405162461bcd60e51b8152600401610a739061456a565b6000838152600560205260409081902054905163e2c737d760e01b81526001600160a01b039091169063e2c737d790612e41906006906004016144a8565b600060405180830381600087803b158015612e5b57600080fd5b505af1158015612e6f573d6000803e3d6000fd5b505050507f729452ead7b4677dc5dfd83eb1ef913235bb47c841006a0bfe0e471361d9b25a836040516115e191815260200190565b611da033613f7e565b82600160008281526005602090815260409182902054825163ee8c834b60e01b815292516001600160a01b039091169263ee8c834b9260048083019391928290030181865afa158015612f04573d6000803e3d6000fd5b505050506040513d601f19601f82011682018060405250810190612f289190614450565b6012811115612f3957612f3961443a565b14612f865760405162461bcd60e51b815260206004820152601e60248201527f456d6572616c64206973206e6f7420696e205363616c656420737461746500006044820152606401610a73565b600084815260056020908152604091829020548251631a8fa05b60e31b815292516001600160a01b039091169263d47d02d89260048083019391928290030181865afa158015612fda573d6000803e3d6000fd5b505050506040513d601f19601f82011682018060405250810190612ffe91906144e9565b336001600160a01b038216146130265760405162461bcd60e51b8152600401610a7390614533565b61302f33611fe9565b61304b5760405162461bcd60e51b8152600401610a73906145d8565b60008581526005602052604090819020549051633cacd34b60e21b81526001600160a01b0386811660048301529091169063f2b34d2c90602401600060405180830381600087803b15801561309f57600080fd5b505af11580156130b3573d6000803e3d6000fd5b50505060008681526005602052604090819020549051631b1a22d360e01b81526001600160a01b0386811660048301529091169150631b1a22d390602401600060405180830381600087803b15801561310b57600080fd5b505af115801561311f573d6000803e3d6000fd5b5050506000868152600560205260409081902054905163e2c737d760e01b81526001600160a01b03909116915063e2c737d790613161906002906004016144a8565b600060405180830381600087803b15801561317b57600080fd5b505af115801561318f573d6000803e3d6000fd5b505050507fa2064f0effc5e80d5e28029364cf9747d971c009f89b41ef00f9cabc7f99f19d856040516131c491815260200190565b60405180910390a15050505050565b6131dc3361108a565b6131f85760405162461bcd60e51b8152600401610a73906145a1565b6116b481613f96565b611da033613fae565b80600760008281526005602090815260409182902054825163ee8c834b60e01b815292516001600160a01b039091169263ee8c834b9260048083019391928290030181865afa158015613261573d6000803e3d6000fd5b505050506040513d601f19601f820116820180604052508101906132859190614450565b60128111156132965761329661443a565b146132f35760405162461bcd60e51b815260206004820152602760248201527f456d6572616c64206973206e6f7420696e2053746f72616765526563656976656044820152666420737461746560c81b6064820152608401610a73565b600082815260056020908152604091829020548251639d79188760e01b815292516001600160a01b0390911692639d7918879260048083019391928290030181865afa158015613347573d6000803e3d6000fd5b505050506040513d601f19601f8201168201806040525081019061336b91906144e9565b336001600160a01b038216146133935760405162461bcd60e51b8152600401610a7390614533565b61339c336115ee565b6133b85760405162461bcd60e51b8152600401610a739061471c565b6000838152600560205260409081902054905163e2c737d760e01b81526001600160a01b039091169063e2c737d7906133f6906008906004016144a8565b600060405180830381600087803b15801561341057600080fd5b505af1158015613424573d6000803e3d6000fd5b505050507fc6d8c0af6d21f291e7c359603aa97e0ed500f04db6e983b9fce75a91c6b8da6b836040516115e191815260200190565b611da033613fc6565b80601160008281526005602090815260409182902054825163ee8c834b60e01b815292516001600160a01b039091169263ee8c834b9260048083019391928290030181865afa1580156134b9573d6000803e3d6000fd5b505050506040513d601f19601f820116820180604052508101906134dd9190614450565b60128111156134ee576134ee61443a565b1461354d5760405162461bcd60e51b815260206004820152602960248201527f456d6572616c64206973206e6f7420696e2053686970706564546f437573746f6044820152686d657220737461746560b81b6064820152608401610a73565b6135563361108a565b6135725760405162461bcd60e51b8152600401610a73906145a1565b6000828152600560205260409081902054905163e2c737d760e01b81526001600160a01b039091169063e2c737d7906135b0906012906004016144a8565b600060405180830381600087803b1580156135ca57600080fd5b505af11580156135de573d6000803e3d6000fd5b505050507ffcc296b8bdd64e3f1d1faadef50cb2d6550f645316330fe57cb1dd7e0612ead082604051610b4191815260200190565b80600e60008281526005602090815260409182902054825163ee8c834b60e01b815292516001600160a01b039091169263ee8c834b9260048083019391928290030181865afa15801561366a573d6000803e3d6000fd5b505050506040513d601f19601f8201168201806040525081019061368e9190614450565b601281111561369f5761369f61443a565b146136fa5760405162461bcd60e51b815260206004820152602560248201527f456d6572616c64206973206e6f7420696e205061636b6564466f7253616c6520604482015264737461746560d81b6064820152608401610a73565b61370333610b4d565b61371f5760405162461bcd60e51b8152600401610a7390614471565b6000828152600560205260409081902054905163e2c737d760e01b81526001600160a01b039091169063e2c737d79061375d90600f906004016144a8565b600060405180830381600087803b15801561377757600080fd5b505af115801561378b573d6000803e3d6000fd5b505050507f376bc3664e237a897179c3c1ddc5b8ef6318ad79c1b7819a305b0e23263f868d82604051610b4191815260200190565b600082815260016020819052604090912001546137dc81613d98565b6113928383613e0d565b611da033613fde565b80600b60008281526005602090815260409182902054825163ee8c834b60e01b815292516001600160a01b039091169263ee8c834b9260048083019391928290030181865afa158015613846573d6000803e3d6000fd5b505050506040513d601f19601f8201168201806040525081019061386a9190614450565b601281111561387b5761387b61443a565b146138da5760405162461bcd60e51b815260206004820152602960248201527f456d6572616c64206973206e6f7420696e2053686970546f4d616e756661637460448201526875726520737461746560b81b6064820152608401610a73565b6138e333610b4d565b6138ff5760405162461bcd60e51b8152600401610a7390614471565b6000828152600560205260409081902054905163e2c737d760e01b81526001600160a01b039091169063e2c737d79061393d90600c906004016144a8565b600060405180830381600087803b15801561395757600080fd5b505af115801561396b573d6000803e3d6000fd5b505050507f87bea2641566ed387ce22c7eeb7149bf5cca2aeef1183c7bed5ac77424d6bce682604051610b4191815260200190565b6139a8613e8c565b6001600160a01b038116613a0d5760405162461bcd60e51b815260206004820152602660248201527f4f776e61626c653a206e6577206f776e657220697320746865207a65726f206160448201526564647265737360d01b6064820152608401610a73565b6116b481613f16565b613a1f33611fe9565b613a3b5760405162461bcd60e51b8152600401610a73906145d8565b6116b481613ff6565b80600a60008281526005602090815260409182902054825163ee8c834b60e01b815292516001600160a01b039091169263ee8c834b9260048083019391928290030181865afa158015613a9b573d6000803e3d6000fd5b505050506040513d601f19601f82011682018060405250810190613abf9190614450565b6012811115613ad057613ad061443a565b14613b1d5760405162461bcd60e51b815260206004820152601c60248201527f456d6572616c64206973206e6f7420696e20536f6c64207374617465000000006044820152606401610a73565b613b26336115ee565b613b425760405162461bcd60e51b8152600401610a739061471c565b6000828152600560205260409081902054905163e2c737d760e01b81526001600160a01b039091169063e2c737d790613b8090600b906004016144a8565b600060405180830381600087803b158015613b9a57600080fd5b505af1158015613bae573d6000803e3d6000fd5b505050507f747d6658cf85694c84b5e18d38c89b08e414c1ed0f5bf76379135634ce8e489c82604051610b4191815260200190565b60606109986001600160a01b03831660145b60606000613c04836002614753565b613c0f90600261468d565b67ffffffffffffffff811115613c2757613c276140e9565b6040519080825280601f01601f191660200182016040528015613c51576020820181803683370190505b509050600360fc1b81600081518110613c6c57613c6c614772565b60200101906001600160f81b031916908160001a905350600f60fb1b81600181518110613c9b57613c9b614772565b60200101906001600160f81b031916908160001a9053506000613cbf846002614753565b613cca90600161468d565b90505b6001811115613d42576f181899199a1a9b1b9c1cb0b131b232b360811b85600f1660108110613cfe57613cfe614772565b1a60f81b828281518110613d1457613d14614772565b60200101906001600160f81b031916908160001a90535060049490941c93613d3b81614788565b9050613ccd565b508315613d915760405162461bcd60e51b815260206004820181905260248201527f537472696e67733a20686578206c656e67746820696e73756666696369656e746044820152606401610a73565b9392505050565b6116b4813361400e565b613dac82826129e7565b6116825760008281526001602081815260408084206001600160a01b0386168086529252808420805460ff19169093179092559051339285917f2f8788117e7eff1d82e926ec794901d17c78024a50270940304540a733656f0d9190a45050565b613e1782826129e7565b156116825760008281526001602090815260408083206001600160a01b0385168085529252808320805460ff1916905551339285917ff6391f5c32d9c69d2a47ea670b442974b53935d1edc7fd64eb21e047a839171b9190a45050565b6116b46000805160206155148339815191528261136c565b6000546001600160a01b03163314611da05760405162461bcd60e51b815260206004820181905260248201527f4f776e61626c653a2063616c6c6572206973206e6f7420746865206f776e65726044820152606401610a73565b6116b46000805160206154f4833981519152826137c0565b6116b46000805160206154d48339815191528261136c565b600080546001600160a01b038381166001600160a01b0319831681178455604051919092169283917f8be0079c531659141344cd1fd0a4f28419497f9722a3daafe3b4186f6b6457e09190a35050565b6116b46000805160206154f48339815191528261136c565b6116b4600080516020615534833981519152826137c0565b6116b46000805160206155348339815191528261136c565b6116b4600080516020615554833981519152826137c0565b6116b4600080516020615514833981519152826137c0565b6116b46000805160206154d4833981519152826137c0565b6116b46000805160206155548339815191528261136c565b61401882826129e7565b6116825761402581613be3565b614030836020613bf5565b60405160200161404192919061479f565b60408051601f198184030181529082905262461bcd60e51b8252610a73916004016143c3565b610cbf8061481583390190565b60006020828403121561408657600080fd5b81356001600160e01b031981168114613d9157600080fd5b6000602082840312156140b057600080fd5b5035919050565b6001600160a01b03811681146116b457600080fd5b6000602082840312156140de57600080fd5b8135613d91816140b7565b634e487b7160e01b600052604160045260246000fd5b604051601f8201601f1916810167ffffffffffffffff81118282101715614128576141286140e9565b604052919050565b600067ffffffffffffffff82111561414a5761414a6140e9565b50601f01601f191660200190565b600082601f83011261416957600080fd5b813561417c61417782614130565b6140ff565b81815284602083860101111561419157600080fd5b816020850160208301376000918101602001919091529392505050565b600080604083850312156141c157600080fd5b82359150602083013567ffffffffffffffff8111156141df57600080fd5b6141eb85828601614158565b9150509250929050565b6000806040838503121561420857600080fd5b82359150602083013561421a816140b7565b809150509250929050565b60008060006060848603121561423a57600080fd5b83359250602084013567ffffffffffffffff81111561425857600080fd5b61426486828701614158565b925050604084013590509250925092565b8035614280816140b7565b919050565b600080600080600080600080610100898b0312156142a257600080fd5b88359750602089013596506142b960408a01614275565b95506142c760608a01614275565b9450608089013567ffffffffffffffff808211156142e457600080fd5b6142f08c838d01614158565b955060a08b013591508082111561430657600080fd5b6143128c838d01614158565b945060c08b013591508082111561432857600080fd5b6143348c838d01614158565b935060e08b013591508082111561434a57600080fd5b506143578b828c01614158565b9150509295985092959890939650565b60005b8381101561438257818101518382015260200161436a565b83811115614391576000848401525b50505050565b600081518084526143af816020860160208601614367565b601f01601f19169290920160200192915050565b602081526000613d916020830184614397565b600080604083850312156143e957600080fd5b50508035926020909101359150565b60008060006060848603121561440d57600080fd5b83359250602084013561441f816140b7565b9150604084013561442f816140b7565b809150509250925092565b634e487b7160e01b600052602160045260246000fd5b60006020828403121561446257600080fd5b815160138110613d9157600080fd5b6020808252601d908201527f43616c6c6572206973206e6f742061206d616e7566616374757265722e000000604082015260600190565b60208101601383106144ca57634e487b7160e01b600052602160045260246000fd5b91905290565b6000602082840312156144e257600080fd5b5051919050565b6000602082840312156144fb57600080fd5b8151613d91816140b7565b634e487b7160e01b600052601160045260246000fd5b60008282101561452e5761452e614506565b500390565b60208082526018908201527f43616c6c6572206973206e6f7420617574686f72697a65640000000000000000604082015260600190565b6020808252601b908201527f43616c6c6572206973206e6f742061206c61626f7261746f72792e0000000000604082015260600190565b60208082526019908201527f43616c6c6572206973206e6f74206120637573746f6d65722e00000000000000604082015260600190565b60208082526016908201527521b0b63632b91034b9903737ba10309036b4b732b91760511b604082015260600190565b888152602081018890526001600160a01b038781166040830152861660608201526101006080820181905260009061464283820188614397565b905082810360a08401526146568187614397565b905082810360c084015261466a8186614397565b905082810360e084015261467e8185614397565b9b9a5050505050505050505050565b600082198211156146a0576146a0614506565b500190565b6000602082840312156146b757600080fd5b815167ffffffffffffffff8111156146ce57600080fd5b8201601f810184136146df57600080fd5b80516146ed61417782614130565b81815285602083850101111561470257600080fd5b614713826020830160208601614367565b95945050505050565b6020808252601a908201527f43616c6c6572206973206e6f74206120637573746f6469616e2e000000000000604082015260600190565b600081600019048311821515161561476d5761476d614506565b500290565b634e487b7160e01b600052603260045260246000fd5b60008161479757614797614506565b506000190190565b7f416363657373436f6e74726f6c3a206163636f756e74200000000000000000008152600083516147d7816017850160208801614367565b7001034b99036b4b9b9b4b733903937b6329607d1b6017918401918201528351614808816028840160208801614367565b0160280194935050505056fe608060405234801561001057600080fd5b50610c9f806100206000396000f3fe608060405234801561001057600080fd5b50600436106101cf5760003560e01c80639d79188711610104578063ca0a9b31116100a2578063e4729f2011610071578063e4729f2014610407578063ee8c834b1461040f578063f2b34d2c14610422578063f960278d1461045257600080fd5b8063ca0a9b31146103ab578063d47d02d8146103b3578063e0e6d756146103c4578063e2c737d7146103f457600080fd5b8063b0a742b0116100de578063b0a742b014610365578063b380b20214610376578063b53fbe6b14610389578063c33955681461039a57600080fd5b80639d7918871461031c5780639f999da31461032d578063acbe50cd1461033557600080fd5b8063525cefae11610171578063660e16c31161014b578063660e16c3146102f1578063686690e6146102f957806368c2014b14610301578063748d02ea1461031457600080fd5b8063525cefae146102b257806353d74836146102c45780635499b035146102e957600080fd5b80632041d8cc116101ad5780632041d8cc14610254578063372d5e451461025c578063392389d91461028c578063460f7ed31461029f57600080fd5b806313674e5b146101d457806317cd611b146102065780631b1a22d314610224575b600080fd5b6102046101e23660046107b8565b601180546001600160a01b0319166001600160a01b0392909216919091179055565b005b61020e610465565b60405161021b9190610827565b60405180910390f35b6102046102323660046107b8565b600f80546001600160a01b0319166001600160a01b0392909216919091179055565b61020e6104f7565b61020461026a3660046107b8565b600280546001600160a01b0319166001600160a01b0392909216919091179055565b61020461029a3660046108dd565b610506565b6102046102ad3660046109bf565b6105e2565b6008545b60405190815260200161021b565b6011546001600160a01b03165b6040516001600160a01b03909116815260200161021b565b6001546102b6565b600d546102b6565b6000546102b6565b61020461030f3660046109bf565b6105f9565b61020e61060c565b600f546001600160a01b03166102d1565b61020e61061b565b6102046103433660046107b8565b600380546001600160a01b0319166001600160a01b0392909216919091179055565b6002546001600160a01b03166102d1565b6102046103843660046109fc565b600d55565b600e546001600160a01b03166102d1565b6010546001600160a01b03166102d1565b61020e61066c565b6003546001600160a01b03166102d1565b6102046103d23660046107b8565b601080546001600160a01b0319166001600160a01b0392909216919091179055565b610204610402366004610a15565b6106be565b61020e6106e5565b60095460ff1660405161021b9190610a6e565b6102046104303660046107b8565b600e80546001600160a01b0319166001600160a01b0392909216919091179055565b6102046104603660046109bf565b6106f4565b60606006805461047490610a82565b80601f01602080910402602001604051908101604052809291908181526020018280546104a090610a82565b80156104ed5780601f106104c2576101008083540402835291602001916104ed565b820191906000526020600020905b8154815290600101906020018083116104d057829003601f168201915b5050505050905090565b60606004805461047490610a82565b60008890556001879055600280546001600160a01b038089166001600160a01b03199283161790925560038054928816929091169190911790558351610553906004906020870190610703565b508251610567906005906020860190610703565b50815161057b906006906020850190610703565b50805161058f906007906020840190610703565b5061059a8789610abd565b60085550506009805460ff1916905550506000600d555050600e80546001600160a01b0319908116909155600f80548216905560108054821690556011805490911690555050565b80516105f590600b906020840190610703565b5050565b80516105f590600c906020840190610703565b60606005805461047490610a82565b60005460015460025460035460405160609461065894909390926001600160a01b0391821692911690600490600590600690600790602001610b83565b604051602081830303815290604052905090565b600054600154600854600d54600954600e54600f5460105460115460405160609961065899909890979096909560ff909116946001600160a01b03918216949082169390821692911690602001610c08565b6009805482919060ff191660018360128111156106dd576106dd610a36565b021790555050565b60606007805461047490610a82565b80516105f590600a9060208401905b82805461070f90610a82565b90600052602060002090601f0160209004810192826107315760008555610777565b82601f1061074a57805160ff1916838001178555610777565b82800160010185558215610777579182015b8281111561077757825182559160200191906001019061075c565b50610783929150610787565b5090565b5b808211156107835760008155600101610788565b80356001600160a01b03811681146107b357600080fd5b919050565b6000602082840312156107ca57600080fd5b6107d38261079c565b9392505050565b6000815180845260005b81811015610800576020818501810151868301820152016107e4565b81811115610812576000602083870101525b50601f01601f19169290920160200192915050565b6020815260006107d360208301846107da565b634e487b7160e01b600052604160045260246000fd5b600082601f83011261086157600080fd5b813567ffffffffffffffff8082111561087c5761087c61083a565b604051601f8301601f19908116603f011681019082821181831017156108a4576108a461083a565b816040528381528660208588010111156108bd57600080fd5b836020870160208301376000602085830101528094505050505092915050565b600080600080600080600080610100898b0312156108fa57600080fd5b883597506020890135965061091160408a0161079c565b955061091f60608a0161079c565b9450608089013567ffffffffffffffff8082111561093c57600080fd5b6109488c838d01610850565b955060a08b013591508082111561095e57600080fd5b61096a8c838d01610850565b945060c08b013591508082111561098057600080fd5b61098c8c838d01610850565b935060e08b01359150808211156109a257600080fd5b506109af8b828c01610850565b9150509295985092959890939650565b6000602082840312156109d157600080fd5b813567ffffffffffffffff8111156109e857600080fd5b6109f484828501610850565b949350505050565b600060208284031215610a0e57600080fd5b5035919050565b600060208284031215610a2757600080fd5b8135601381106107d357600080fd5b634e487b7160e01b600052602160045260246000fd5b60138110610a6a57634e487b7160e01b600052602160045260246000fd5b9052565b60208101610a7c8284610a4c565b92915050565b600181811c90821680610a9657607f821691505b60208210811415610ab757634e487b7160e01b600052602260045260246000fd5b50919050565b60008219821115610ade57634e487b7160e01b600052601160045260246000fd5b500190565b8054600090600181811c9080831680610afd57607f831692505b6020808410821415610b1f57634e487b7160e01b600052602260045260246000fd5b83885260208801828015610b3a5760018114610b4b57610b76565b60ff19871682528282019750610b76565b60008981526020902060005b87811015610b7057815484820152908601908401610b57565b83019850505b5050505050505092915050565b888152602081018890526001600160a01b0387811660408301528616606082015261010060808201819052600090610bbd83820188610ae3565b905082810360a0840152610bd18187610ae3565b905082810360c0840152610be58186610ae3565b905082810360e0840152610bf98185610ae3565b9b9a5050505050505050505050565b6000610120820190508a8252896020830152886040830152876060830152610c336080830188610a4c565b6001600160a01b0395861660a083015293851660c082015291841660e0830152909216610100909201919091529594505050505056fea2646970667358221220a2dce65bd3332ff95f3dcf6902dae2fa93b4b7a9d32c3ba73bfebb41633d7a3264736f6c634300080a0033eefb95e842a3287179d933b4460be539a1d5af11aa8b325bb45c5c8dc92de4ede28434228950b641dbbc0178de89daa359a87c6ee0d8399aeace52a98fe902b9c9f41f19cd323609a8840e20c19f0688fff7f2c7796dc69350af80f75835f815288a15c4a15d470e4cd9cad2f113b91206b520c26dbd3dd74627f0c057baa19ca952726ef2588ad078edf35b066f7c7406e207cb0003bbaba8cb53eba9553e72a2646970667358221220f48f2ddd07f6070e7301aa0383b976aaccb7676079b65407476ba00816bcca2c64736f6c634300080a0033",
  "immutableReferences": {},
  "source": "// SPDX-License-Identifier: MIT\r\npragma solidity ^0.8.10;\r\n\r\nimport \"@openzeppelin/contracts/access/AccessControl.sol\";\r\nimport \"@openzeppelin/contracts/access/Ownable.sol\";\r\nimport \"../emeraldaccesscontrol/MinerRole.sol\";\r\nimport \"../emeraldaccesscontrol/LaboratoryRole.sol\";\r\nimport \"../emeraldaccesscontrol/CustodianRole.sol\";\r\nimport \"../emeraldaccesscontrol/ManufacturerRole.sol\";\r\nimport \"../emeraldaccesscontrol/CustomerRole.sol\";\r\nimport \"./EmeraldStates.sol\";\r\nimport \"./Emerald.sol\";\r\n\r\n// Define a contract 'Supplychain'\r\ncontract  SupplyChain is Ownable, AccessControl, MinerRole, LaboratoryRole, CustodianRole, ManufacturerRole, CustomerRole {\r\n\r\n    // Define a variable called 'upc' for Universal Product Code (UPC)\r\n    uint256 upc;\r\n\r\n    // Define a variable called 'sku' for Stock Keeping Unit (SKU)\r\n    uint256 sku;\r\n\r\n    // Define owner address\r\n    address payable ownerID;\r\n\r\n    // Define a public mapping 'emeralds' that maps the UPC to an Emerald.\r\n    mapping (uint256 => Emerald) emeralds;\r\n\r\n    // Define a public mapping 'emeraldHistory' that maps the UPC to an array of TxHash, \r\n    // that track its journey through the supply chain -- to be sent from DApp.\r\n    mapping (uint256 => string[]) emeraldsHistory;\r\n\r\n    EmeraldStates.State constant defaultState = EmeraldStates.State.Mined;\r\n\r\n    // Define 17 events with the same 17 state values and accept 'upc' as input argument\r\n    event Mined(uint256 upc);\r\n    event Scaled(uint256 upc);\r\n    event PackedForLab(uint256 upc);\r\n    event ShipedToLab(uint256 upc);\r\n    event LabReceived(uint256 upc);\r\n    event Certified(uint256 upc);\r\n    event ShippedToStore(uint256 upc);\r\n    event StorageReceived(uint256 upc);\r\n    event Stored(uint256 upc);\r\n    event ForSale(uint256 upc);\r\n    event Sold(uint256 upc);\r\n    event ShipToManufacture(uint256 upc);\r\n    event ManufacturerReceived(uint256 upc);\r\n    event Manufactured(uint256 upc);\r\n    event PackedForSale(uint256 upc);\r\n    event Published(uint256 upc);\r\n    event Buyed(uint256 upc);\r\n    event ShippedToCustomer(uint256 upc);\r\n    event Delivered(uint256 upc);\r\n\r\n    // Define a modifer that verifies the Caller\r\n    modifier verifyCaller(address payable _address) {\r\n        require(msg.sender == _address, \"Caller is not authorized\");\r\n        _;\r\n    }\r\n\r\n    // Define a modifier that checks if the paid amount is sufficient to cover the price\r\n    modifier paidEnough(uint256 _price) {\r\n        require(msg.value >= _price, \"Insufficient funds\");\r\n        _;\r\n    }\r\n  \r\n    // Define a modifier that checks the price and refunds the remaining balance\r\n    modifier checkValue(uint256 _upc) {\r\n        _;\r\n        uint256 _price = emeralds[_upc].getMarketPrice();\r\n        uint256 amountToReturn = msg.value - _price;\r\n        if (amountToReturn > 0) {\r\n            payable(msg.sender).transfer(amountToReturn);\r\n        }\r\n    }\r\n\r\n    // Checks if a emerald is Mined\r\n    modifier mined(uint256 _upc) {\r\n        require(emeralds[_upc].getEmeraldState() == EmeraldStates.State.Mined, \"Emerald is not in Mined state\");\r\n        _;\r\n    }\r\n\r\n    //Checks if an emerald was scaled\r\n    modifier scaled(uint256 _upc) {\r\n        require(emeralds[_upc].getEmeraldState() == EmeraldStates.State.Scaled, \"Emerald is not in Scaled state\");\r\n        _;\r\n    }\r\n  \r\n    //Checks if an emerald is packed\r\n    modifier packedForLab(uint256 _upc) {\r\n        require(emeralds[_upc].getEmeraldState() == EmeraldStates.State.PackedForLab, \"Emerald is not in PackedForLab state\");\r\n        _;\r\n    }\r\n\r\n    // Checks if an emerald was shipped to the laboratory\r\n    modifier shipedToLab(uint256 _upc) {\r\n        require(emeralds[_upc].getEmeraldState() == EmeraldStates.State.ShipedToLab, \"Emerald is not in ShipedToLab state\");\r\n        _;\r\n    }\r\n\r\n    // Checks if an emerald was received by the Laboratory\r\n    modifier labReceived(uint256 _upc) {\r\n        require(emeralds[_upc].getEmeraldState() == EmeraldStates.State.LabReceived, \"Emerald is not in LabReceived state\");\r\n        _;\r\n    }\r\n  \r\n    // Checks if an emerald was certified by the laboratory\r\n    modifier certified(uint256 _upc) {\r\n        require(emeralds[_upc].getEmeraldState() == EmeraldStates.State.Certified, \"Emerald is not in Certified state\");\r\n        _;\r\n    }\r\n\r\n    // Checks if an emerald was shipped to the storage by the laboratory\r\n    modifier shippedToStore(uint256 _upc) {\r\n        require(emeralds[_upc].getEmeraldState() == EmeraldStates.State.ShippedToStore, \"Emerald is not in ShippedToStore state\");\r\n        _;\r\n    }\r\n\r\n    // Checks if an emerald was received by the custodian service\r\n    modifier storageReceived(uint256 _upc) {\r\n        require(emeralds[_upc].getEmeraldState() == EmeraldStates.State.StorageReceived, \"Emerald is not in StorageReceived state\");\r\n        _;\r\n    }  \r\n\r\n    // Checks if an emerald was stored by the custodian\r\n    modifier stored(uint256 _upc) {\r\n        require(emeralds[_upc].getEmeraldState() == EmeraldStates.State.Stored, \"Emerald is not in Stored state\");\r\n        _;\r\n    }\r\n\r\n    // Checks if a raw emerald is available for sale\r\n    modifier forSale(uint256 _upc) {\r\n        require(emeralds[_upc].getEmeraldState() == EmeraldStates.State.ForSale, \"Emerald is not in ForSale state\");\r\n        _;\r\n    }\r\n\r\n    // Checks if a raw emerald was sold\r\n    modifier sold(uint256 _upc) {\r\n        require(emeralds[_upc].getEmeraldState() == EmeraldStates.State.Sold, \"Emerald is not in Sold state\");\r\n        _;\r\n    }\r\n  \r\n    // Checks if a sold emerald was shipped to the buyer\r\n    modifier shiptoManufacture(uint256 _upc) {\r\n        require(emeralds[_upc].getEmeraldState() == EmeraldStates.State.ShipToManufacture, \"Emerald is not in ShipToManufacture state\");\r\n        _;\r\n    }\r\n\r\n    // Checks if an emerald was received by the manufacturer\r\n    modifier manufacturerReceived(uint256 _upc) {\r\n        require(emeralds[_upc].getEmeraldState() == EmeraldStates.State.ManufacturerReceived, \"Emerald is not in ManufacturerReceived state\");\r\n        _;\r\n    }\r\n\r\n    // Checks if an emerald was processed by the manufacturer\r\n    modifier manufactured(uint256 _upc) {\r\n        require(emeralds[_upc].getEmeraldState() == EmeraldStates.State.Manufactured, \"Emerald is not in Manufactured state\");\r\n        _;\r\n    }\r\n\r\n    // Checks if a cut emerald was packed\r\n    modifier packedForSale(uint256 _upc) {\r\n        require(emeralds[_upc].getEmeraldState() == EmeraldStates.State.PackedForSale, \"Emerald is not in PackedForSale state\");\r\n        _;\r\n    }\r\n  \r\n    // Checks if a processed emerald is ready for sale\r\n    modifier published(uint256 _upc) {\r\n        require(emeralds[_upc].getEmeraldState() == EmeraldStates.State.Published, \"Emerald is not in Published state\");\r\n        _;\r\n    }\r\n\r\n    // Checks if a processed emerald was purchased\r\n    modifier buyed(uint256 _upc) {\r\n        require(emeralds[_upc].getEmeraldState() == EmeraldStates.State.Buyed, \"Emerald is not in Buyed state\");\r\n        _;\r\n    }\r\n\r\n    // Checks if a cut emerald was shipped to the buyer\r\n    modifier shippedToCustomer(uint256 _upc) {\r\n        require(emeralds[_upc].getEmeraldState() == EmeraldStates.State.ShippedToCustomer, \"Emerald is not in ShippedToCustomer state\");\r\n        _;\r\n    }\r\n\r\n    // Checks if a cut emerald was received by the customer\r\n    modifier delivered(uint256 _upc) {\r\n        require(emeralds[_upc].getEmeraldState() == EmeraldStates.State.Delivered, \"Emerald is not in Delivered state\");\r\n        _;\r\n    }\r\n\r\n    // In the constructor set 'owner' to the address that instantiated the contract\r\n    // and set 'sku' to 1\r\n    // and set 'upc' to 1\r\n    constructor() {\r\n        ownerID = payable(msg.sender);\r\n        sku = 1;\r\n        upc = 1;\r\n        _grantRole(DEFAULT_ADMIN_ROLE, msg.sender);\r\n    }\r\n\r\n    // Define a function 'kill' if required\r\n    function kill() public onlyOwner {\r\n        selfdestruct(payable(msg.sender));\r\n    }\r\n\r\n\r\n    // Define a function 'extractEmerald' that allows a Miner to mark an emerald as 'Mined'\r\n    function extractEmerald(\r\n        uint256 _sku,\r\n        uint256 _upc,\r\n        address payable _ownerID,\r\n        address payable _originMinerID,\r\n        string memory _originMineName,\r\n        string memory _originMineInformation, \r\n        string memory _originMineLatitude, \r\n        string memory _originMineLongitude  \r\n    )\r\n        public\r\n        onlyMiner\r\n    {\r\n        \r\n        // Add emerald to emeralds list in the contract\r\n        Emerald emerald = new Emerald();\r\n        emerald.setExtractionInfo(\r\n            _sku,\r\n            _upc,\r\n            _ownerID,\r\n            _originMinerID,\r\n            _originMineName,\r\n            _originMineInformation, \r\n            _originMineLatitude, \r\n            _originMineLongitude      \r\n        );\r\n\r\n        emerald.setEmeraldState(EmeraldStates.State.Mined);\r\n\r\n        emeralds[_upc] = emerald;\r\n\r\n        // Increment sku\r\n        sku += 1;\r\n\r\n        // Emit the appropriate event\r\n        emit Mined(_upc);\r\n    }\r\n\r\n    // Define a function 'scaleEmerald' that allows Miner to mark an item as 'Scaled'\r\n    function scaleEmerald(uint256 _upc, string memory _scaleInfo) \r\n        public\r\n        // Call modifier to check if upc has passed previous supply chain stage\r\n        mined(_upc)\r\n        // Call modifier to verify caller of this function\r\n        verifyCaller(emeralds[_upc].getOriginMinerID())\r\n        onlyMiner \r\n    {\r\n        // Update the appropriate fields\r\n        emeralds[_upc].setScaleInfo(_scaleInfo);\r\n        emeralds[_upc].setEmeraldState(EmeraldStates.State.Scaled);\r\n\r\n        // Emit the appropriate event\r\n        emit Scaled(_upc);  \r\n    }\r\n\r\n    // Define a function 'packScaledEmerald' that allows a Miner to mark an item 'PackedForLab'\r\n    function packScaledEmerald(uint256 _upc, address payable _laboratoryID, address payable _custodianID)\r\n        public \r\n        // Call modifier to check if upc has passed previous supply chain stage\r\n        scaled(_upc)\r\n        // Call modifier to verify caller of this function\r\n        verifyCaller(emeralds[_upc].getOriginMinerID())\r\n        onlyMiner \r\n    {\r\n        // Update the appropriate fields\r\n        emeralds[_upc].authorizeLab(_laboratoryID);\r\n        emeralds[_upc].authorizeCustodian(_custodianID);\r\n        \r\n        // Update Emerald state\r\n        emeralds[_upc].setEmeraldState(EmeraldStates.State.PackedForLab);\r\n\r\n        // Emit the appropriate event\r\n        emit PackedForLab(_upc);\r\n    }\r\n\r\n    // Define a function 'shipToLaboratory' that allows a Miner to mark an item 'ShipedToLab'\r\n    function shipToLaboratory(uint256 _upc)\r\n        public \r\n        // Call modifier to check if upc has passed previous supply chain stage\r\n        packedForLab(_upc)\r\n        // Call modifier to verify caller of this function\r\n        verifyCaller(emeralds[_upc].getOriginMinerID())\r\n        onlyMiner \r\n    {\r\n        // Update the appropriate fields\r\n        emeralds[_upc].setEmeraldState(EmeraldStates.State.ShipedToLab);\r\n\r\n        // Emit the appropriate event\r\n        emit ShipedToLab(_upc);\r\n    }\r\n\r\n    // Define a function 'laboratoryReceived' that allows a Miner to mark an item 'LabReceived'\r\n    function laboratoryReceived(uint256 _upc)\r\n        public \r\n        // Call modifier to check if upc has passed previous supply chain stage\r\n        shipedToLab(_upc)\r\n        // Call modifier to verify caller of this function\r\n        verifyCaller(emeralds[_upc].getLaboratoryID())\r\n        onlyLaboratory\r\n    {\r\n        // Update the appropriate fields\r\n        emeralds[_upc].setEmeraldState(EmeraldStates.State.LabReceived);\r\n\r\n        // Emit the appropriate event\r\n        emit LabReceived(_upc);\r\n    }\r\n\r\n    // Define a function 'certifyEmerald' that allows a Miner to mark an item 'Certified'\r\n    function certifyEmerald(uint256 _upc, string memory _certifiedProperties) \r\n        public\r\n        // Call modifier to check if upc has passed previous supply chain stage\r\n        labReceived(_upc)\r\n        // Call modifier to verify caller of this function\r\n        verifyCaller(emeralds[_upc].getLaboratoryID())\r\n        onlyLaboratory \r\n    {\r\n        // Update the appropriate fields\r\n        emeralds[_upc].setCertifiedInfo(_certifiedProperties);\r\n        emeralds[_upc].setEmeraldState(EmeraldStates.State.Certified);\r\n\r\n        // Emit the appropriate event\r\n        emit Certified(_upc);  \r\n    }\r\n\r\n    // Define a function 'shipToSecureStore' that allows a Miner to mark an item 'ShippedToStore'\r\n    function shipToSecureStore(uint256 _upc)\r\n        public \r\n        // Call modifier to check if upc has passed previous supply chain stage\r\n        certified(_upc)\r\n        // Call modifier to verify caller of this function\r\n        verifyCaller(emeralds[_upc].getLaboratoryID())\r\n        onlyLaboratory\r\n    {\r\n        // Update the appropriate fields\r\n        emeralds[_upc].setEmeraldState(EmeraldStates.State.ShippedToStore);\r\n\r\n        // Emit the appropriate event\r\n        emit ShippedToStore(_upc);\r\n    }   \r\n\r\n    // Define a function 'secureStorageReceived' that allows a Miner to mark an item 'StorageReceived'\r\n    function secureStorageReceived(uint256 _upc)\r\n        public \r\n        // Call modifier to check if upc has passed previous supply chain stage\r\n        shippedToStore(_upc)\r\n        // Call modifier to verify caller of this function\r\n        verifyCaller(emeralds[_upc].getCustodianID())\r\n        onlyCustodian\r\n    {\r\n        // Update the appropriate fields\r\n        emeralds[_upc].setEmeraldState(EmeraldStates.State.StorageReceived);\r\n\r\n        // Emit the appropriate event\r\n        emit StorageReceived(_upc);\r\n    }\r\n\r\n    // Define a function 'storeEmerald' that allows a Miner to mark an item 'Stored'\r\n    function storeEmerald(uint256 _upc)\r\n        public \r\n        // Call modifier to check if upc has passed previous supply chain stage\r\n        storageReceived(_upc)\r\n        // Call modifier to verify caller of this function\r\n        verifyCaller(emeralds[_upc].getCustodianID())\r\n        onlyCustodian\r\n    {\r\n        // Update the appropriate fields\r\n        emeralds[_upc].setEmeraldState(EmeraldStates.State.Stored);\r\n\r\n        // Emit the appropriate event\r\n        emit Stored(_upc);\r\n    }\r\n\r\n    // Define a function 'registerForSale' that allows a Miner to mark an item 'ForSale'\r\n    function registerForSale(uint256 _upc, uint256 _marketPrice)\r\n        public\r\n        // Call modifier to check if upc has passed previous supply chain stage\r\n        stored(_upc)\r\n        // Call modifier to verify caller of this function\r\n        verifyCaller(emeralds[_upc].getOriginMinerID())\r\n        onlyMiner\r\n    {\r\n        // Setup market price  \r\n        emeralds[_upc].setMarketPrice(_marketPrice);\r\n        // Update the appropriate fields\r\n        emeralds[_upc].setEmeraldState(EmeraldStates.State.ForSale);\r\n\r\n        // Emit the appropriate event\r\n        emit ForSale(_upc); \r\n    }\r\n\r\n    // Define a function 'buyFromMiner' that allows the Manufacturer to mark an item 'Sold'\r\n    function buyFromMiner(uint256 _upc) \r\n        public \r\n        payable \r\n        // Call modifier to check if upc has passed previous supply chain stage\r\n        forSale(_upc)\r\n        // Call modifer to check if buyer has paid enough\r\n        paidEnough(emeralds[_upc].getMarketPrice())\r\n        // Call modifer to send any excess ether back to buyer\r\n        checkValue(_upc)\r\n        onlyManufacturer\r\n    {\r\n        // Transfer money to Miner\r\n        (bool success, ) = emeralds[_upc].getOriginMinerID().call{value: emeralds[_upc].getMarketPrice()}(\"\");\r\n        require(success, \"Transfer failed\");\r\n\r\n        // Tranfer emerald ownership\r\n        //emeralds[_upc].setOwnerID(msg.sender);\r\n        emeralds[_upc].setManufacturerID(payable(msg.sender));\r\n        // Update emerald state\r\n        emeralds[_upc].setEmeraldState(EmeraldStates.State.Sold);\r\n\r\n        // Emit the appropriate event\r\n        emit Sold(_upc);\r\n    }\r\n\r\n    // Define a function 'shipToManufacturer' that allows a Miner to mark an item 'ShipToManufacture'\r\n    function shipToManufacturer(uint256 _upc) \r\n        public \r\n        // Call modifier to check if upc has passed previous supply chain stage\r\n        sold(_upc)\r\n        // Call modifier to verify caller of this function\r\n        onlyCustodian\r\n    {\r\n        // Update the appropriate fields\r\n        emeralds[_upc].setEmeraldState(EmeraldStates.State.ShipToManufacture);\r\n\r\n        // Emit the appropriate event\r\n        emit ShipToManufacture(_upc);    \r\n    }\r\n\r\n    // Define a function 'receiveFromStorage' that allows the manufacturer mark an item 'ManufacturerReceived'\r\n    function receiveFromStorage(uint256 _upc) \r\n        public \r\n        // Call modifier to check if upc has passed previous supply chain stage\r\n        shiptoManufacture(_upc)\r\n        // Access Control\r\n        onlyManufacturer\r\n    {\r\n        // Update the appropriate fields\r\n        emeralds[_upc].setEmeraldState(EmeraldStates.State.ManufacturerReceived);\r\n\r\n        // Emit the appropriate event\r\n        emit ManufacturerReceived(_upc);\r\n    }\r\n\r\n    // Define a function 'manufactureEmerald' that allows the manufacturer mark an item 'Manufactured'\r\n    function manufactureEmerald(uint256 _upc, string memory _manofactureInfo, uint256 _price)\r\n        public \r\n        // Call modifier to check if upc has passed previous supply chain stage\r\n        manufacturerReceived(_upc)\r\n        // Access Control\r\n        onlyManufacturer\r\n    {\r\n        // Update the appropriate fields\r\n        emeralds[_upc].setManufactureInfo(_manofactureInfo);\r\n        emeralds[_upc].setMarketPrice(_price);\r\n        emeralds[_upc].setEmeraldState(EmeraldStates.State.Manufactured);\r\n\r\n        // Emit the appropriate event\r\n        emit Manufactured(_upc);\r\n    }\r\n\r\n    // Define a function 'packForSale' that allows the manufacturer to mark an item 'PackedForSale'\r\n    function packForSale(uint256 _upc)\r\n        public \r\n        // Call modifier to check if upc has passed previous supply chain stage\r\n        manufactured(_upc)\r\n        // Access Control\r\n        onlyManufacturer\r\n    {\r\n        // Update the appropriate fields\r\n        emeralds[_upc].setEmeraldState(EmeraldStates.State.PackedForSale);\r\n\r\n        // Emit the appropriate event\r\n        emit PackedForSale(_upc);\r\n    }\r\n\r\n    // Define a function 'publish' that allows the manufacturer to mark an item 'Published'\r\n    function publish(uint _upc)\r\n        public \r\n        // Call modifier to check if upc has passed previous supply chain stage\r\n        packedForSale(_upc)\r\n        // Access Control\r\n        onlyManufacturer\r\n    {\r\n        // Update the appropriate fields\r\n        emeralds[_upc].setEmeraldState(EmeraldStates.State.Published);\r\n\r\n        // Emit the appropriate event\r\n        emit Published(_upc);\r\n    }\r\n\r\n    // Define a function 'buyFromManufacturer' that allows the customer to mark an item 'Buyed'\r\n    function buyFromManufacturer(uint256 _upc) \r\n        public \r\n        payable \r\n        // Call modifier to check if upc has passed previous supply chain stage\r\n        published(_upc)\r\n        // Call modifer to check if buyer has paid enough\r\n        paidEnough(emeralds[_upc].getMarketPrice())\r\n        // Call modifer to send any excess ether back to buyer\r\n        checkValue(_upc)\r\n        onlyCustomer\r\n    {\r\n        // Transfer money to Manufacturer\r\n        (bool success, ) = emeralds[_upc].getManufacturerID().call{value: emeralds[_upc].getMarketPrice()}(\"\");\r\n        require(success, \"Transfer failed\");\r\n\r\n        // Tranfer emerald ownership\r\n        //emeralds[_upc].setOwnerID(msg.sender);\r\n        emeralds[_upc].setCustomerID(payable(msg.sender));\r\n\r\n        // Update emerald state\r\n        emeralds[_upc].setEmeraldState(EmeraldStates.State.Buyed);\r\n\r\n        // Emit the appropriate event\r\n        emit Buyed(_upc);\r\n    }\r\n\r\n    // Define a function 'shipToCustomer' that allows a Manufacturer to mark an item 'ShippedToCustomer'\r\n    function shipToCustomer(uint256 _upc) \r\n        public \r\n        // Call modifier to check if upc has passed previous supply chain stage\r\n        buyed(_upc)\r\n        // Access Control\r\n        onlyManufacturer\r\n    {\r\n        // Update the appropriate fields\r\n        emeralds[_upc].setEmeraldState(EmeraldStates.State.ShippedToCustomer);\r\n\r\n        // Emit the appropriate event\r\n        emit ShippedToCustomer(_upc);\r\n    }\r\n\r\n    // Define a function 'customerReceived' that allows a Manufacturer to mark an item 'Delivered'\r\n    function customerReceived(uint256 _upc) \r\n        public \r\n        // Call modifier to check if upc has passed previous supply chain stage\r\n        shippedToCustomer(_upc)\r\n        // Access Control\r\n        onlyCustomer\r\n    {\r\n        // Update the appropriate fields\r\n        emeralds[_upc].setEmeraldState(EmeraldStates.State.Delivered);\r\n\r\n        // Emit the appropriate event\r\n        emit Delivered(_upc);\r\n    }\r\n\r\n    // Define a function 'fetchItemBufferOne' that fetches the data\r\n  function fetchItemBufferOne(uint256 _upc) public view returns (bytes memory) \r\n  {\r\n    return (emeralds[_upc].getBasicInfo());\r\n  }\r\n\r\n  // Define a function 'fetchItemBufferTwo' that fetches the data\r\n  function fetchItemBufferTwo(uint256 _upc) public view returns (bytes memory) \r\n  {\r\n    return (emeralds[_upc].getDetailedInfo());\r\n  } \r\n}\r\n",
  "sourcePath": "D:\\INE1\\S2\\SecurityProject2\\emeraldTracker\\src\\contracts\\emeraldbase\\SupplyChain.sol",
  "compiler": {
    "name": "solc",
    "version": "0.8.10+commit.fc410830.Emscripten.clang"
  },
  "schemaVersion": "3.4.16",
  "updatedAt": "2024-06-03T09:35:03.559Z",
  "devdoc": {
    "kind": "dev",
    "methods": {
      "getRoleAdmin(bytes32)": {
        "details": "Returns the admin role that controls `role`. See {grantRole} and {revokeRole}. To change a role's admin, use {_setRoleAdmin}."
      },
      "grantRole(bytes32,address)": {
        "details": "Grants `role` to `account`. If `account` had not been already granted `role`, emits a {RoleGranted} event. Requirements: - the caller must have ``role``'s admin role. May emit a {RoleGranted} event."
      },
      "hasRole(bytes32,address)": {
        "details": "Returns `true` if `account` has been granted `role`."
      },
      "owner()": {
        "details": "Returns the address of the current owner."
      },
      "renounceOwnership()": {
        "details": "Leaves the contract without owner. It will not be possible to call `onlyOwner` functions. Can only be called by the current owner. NOTE: Renouncing ownership will leave the contract without an owner, thereby disabling any functionality that is only available to the owner."
      },
      "renounceRole(bytes32,address)": {
        "details": "Revokes `role` from the calling account. Roles are often managed via {grantRole} and {revokeRole}: this function's purpose is to provide a mechanism for accounts to lose their privileges if they are compromised (such as when a trusted device is misplaced). If the calling account had been revoked `role`, emits a {RoleRevoked} event. Requirements: - the caller must be `account`. May emit a {RoleRevoked} event."
      },
      "revokeRole(bytes32,address)": {
        "details": "Revokes `role` from `account`. If `account` had been granted `role`, emits a {RoleRevoked} event. Requirements: - the caller must have ``role``'s admin role. May emit a {RoleRevoked} event."
      },
      "supportsInterface(bytes4)": {
        "details": "See {IERC165-supportsInterface}."
      },
      "transferOwnership(address)": {
        "details": "Transfers ownership of the contract to a new account (`newOwner`). Can only be called by the current owner."
      }
    },
    "version": 1
  },
  "userdoc": {
    "kind": "user",
    "methods": {},
    "version": 1
  }
}